{
  "_format": "hh-sol-artifact-1",
  "contractName": "KnowledgeLayerID",
  "sourceName": "contracts/KnowledgeLayerID.sol",
  "abi": [
    {
      "inputs": [
        {
          "internalType": "address",
          "name": "_platformIdAddress",
          "type": "address"
        }
      ],
      "stateMutability": "nonpayable",
      "type": "constructor"
    },
    {
      "inputs": [],
      "name": "HandleContainsInvalidCharacters",
      "type": "error"
    },
    {
      "inputs": [],
      "name": "HandleFirstCharInvalid",
      "type": "error"
    },
    {
      "inputs": [],
      "name": "HandleLengthInvalid",
      "type": "error"
    },
    {
      "anonymous": false,
      "inputs": [
        {
          "indexed": true,
          "internalType": "address",
          "name": "owner",
          "type": "address"
        },
        {
          "indexed": true,
          "internalType": "address",
          "name": "approved",
          "type": "address"
        },
        {
          "indexed": true,
          "internalType": "uint256",
          "name": "tokenId",
          "type": "uint256"
        }
      ],
      "name": "Approval",
      "type": "event"
    },
    {
      "anonymous": false,
      "inputs": [
        {
          "indexed": true,
          "internalType": "address",
          "name": "owner",
          "type": "address"
        },
        {
          "indexed": true,
          "internalType": "address",
          "name": "operator",
          "type": "address"
        },
        {
          "indexed": false,
          "internalType": "bool",
          "name": "approved",
          "type": "bool"
        }
      ],
      "name": "ApprovalForAll",
      "type": "event"
    },
    {
      "anonymous": false,
      "inputs": [
        {
          "indexed": true,
          "internalType": "uint256",
          "name": "profileId",
          "type": "uint256"
        },
        {
          "indexed": false,
          "internalType": "string",
          "name": "newCid",
          "type": "string"
        }
      ],
      "name": "CidUpdated",
      "type": "event"
    },
    {
      "anonymous": false,
      "inputs": [
        {
          "indexed": false,
          "internalType": "uint256",
          "name": "profileId",
          "type": "uint256"
        },
        {
          "indexed": false,
          "internalType": "address",
          "name": "delegate",
          "type": "address"
        }
      ],
      "name": "DelegateAdded",
      "type": "event"
    },
    {
      "anonymous": false,
      "inputs": [
        {
          "indexed": false,
          "internalType": "uint256",
          "name": "profileId",
          "type": "uint256"
        },
        {
          "indexed": false,
          "internalType": "address",
          "name": "delegate",
          "type": "address"
        }
      ],
      "name": "DelegateRemoved",
      "type": "event"
    },
    {
      "anonymous": false,
      "inputs": [
        {
          "indexed": true,
          "internalType": "address",
          "name": "user",
          "type": "address"
        },
        {
          "indexed": false,
          "internalType": "uint256",
          "name": "profileId",
          "type": "uint256"
        },
        {
          "indexed": false,
          "internalType": "string",
          "name": "handle",
          "type": "string"
        },
        {
          "indexed": false,
          "internalType": "uint256",
          "name": "platformId",
          "type": "uint256"
        },
        {
          "indexed": false,
          "internalType": "uint256",
          "name": "fee",
          "type": "uint256"
        }
      ],
      "name": "Mint",
      "type": "event"
    },
    {
      "anonymous": false,
      "inputs": [
        {
          "indexed": false,
          "internalType": "uint256",
          "name": "mintFee",
          "type": "uint256"
        }
      ],
      "name": "MintFeeUpdated",
      "type": "event"
    },
    {
      "anonymous": false,
      "inputs": [
        {
          "indexed": false,
          "internalType": "enum KnowledgeLayerID.MintStatus",
          "name": "mintStatus",
          "type": "uint8"
        }
      ],
      "name": "MintStatusUpdated",
      "type": "event"
    },
    {
      "anonymous": false,
      "inputs": [
        {
          "indexed": true,
          "internalType": "address",
          "name": "previousOwner",
          "type": "address"
        },
        {
          "indexed": true,
          "internalType": "address",
          "name": "newOwner",
          "type": "address"
        }
      ],
      "name": "OwnershipTransferred",
      "type": "event"
    },
    {
      "anonymous": false,
      "inputs": [
        {
          "indexed": false,
          "internalType": "uint256",
          "name": "price",
          "type": "uint256"
        }
      ],
      "name": "ShortHandlesMaxPriceUpdated",
      "type": "event"
    },
    {
      "anonymous": false,
      "inputs": [
        {
          "indexed": true,
          "internalType": "address",
          "name": "from",
          "type": "address"
        },
        {
          "indexed": true,
          "internalType": "address",
          "name": "to",
          "type": "address"
        },
        {
          "indexed": true,
          "internalType": "uint256",
          "name": "tokenId",
          "type": "uint256"
        }
      ],
      "name": "Transfer",
      "type": "event"
    },
    {
      "inputs": [
        {
          "internalType": "uint256",
          "name": "_profileId",
          "type": "uint256"
        },
        {
          "internalType": "address",
          "name": "_delegate",
          "type": "address"
        }
      ],
      "name": "addDelegate",
      "outputs": [],
      "stateMutability": "nonpayable",
      "type": "function"
    },
    {
      "inputs": [
        {
          "internalType": "address",
          "name": "to",
          "type": "address"
        },
        {
          "internalType": "uint256",
          "name": "tokenId",
          "type": "uint256"
        }
      ],
      "name": "approve",
      "outputs": [],
      "stateMutability": "nonpayable",
      "type": "function"
    },
    {
      "inputs": [
        {
          "internalType": "address",
          "name": "owner",
          "type": "address"
        }
      ],
      "name": "balanceOf",
      "outputs": [
        {
          "internalType": "uint256",
          "name": "",
          "type": "uint256"
        }
      ],
      "stateMutability": "view",
      "type": "function"
    },
    {
      "inputs": [
        {
          "internalType": "uint256",
          "name": "_platformId",
          "type": "uint256"
        },
        {
          "internalType": "address",
          "name": "_userAddress",
          "type": "address"
        },
        {
          "internalType": "string",
          "name": "_handle",
          "type": "string"
        }
      ],
      "name": "freeMint",
      "outputs": [
        {
          "internalType": "uint256",
          "name": "",
          "type": "uint256"
        }
      ],
      "stateMutability": "nonpayable",
      "type": "function"
    },
    {
      "inputs": [
        {
          "internalType": "uint256",
          "name": "tokenId",
          "type": "uint256"
        }
      ],
      "name": "getApproved",
      "outputs": [
        {
          "internalType": "address",
          "name": "",
          "type": "address"
        }
      ],
      "stateMutability": "view",
      "type": "function"
    },
    {
      "inputs": [
        {
          "internalType": "string",
          "name": "_handle",
          "type": "string"
        }
      ],
      "name": "getHandlePrice",
      "outputs": [
        {
          "internalType": "uint256",
          "name": "",
          "type": "uint256"
        }
      ],
      "stateMutability": "view",
      "type": "function"
    },
    {
      "inputs": [
        {
          "internalType": "address",
          "name": "_address",
          "type": "address"
        }
      ],
      "name": "getOriginatorPlatformIdByAddress",
      "outputs": [
        {
          "internalType": "uint256",
          "name": "",
          "type": "uint256"
        }
      ],
      "stateMutability": "view",
      "type": "function"
    },
    {
      "inputs": [
        {
          "internalType": "uint256",
          "name": "",
          "type": "uint256"
        }
      ],
      "name": "hasActivity",
      "outputs": [
        {
          "internalType": "bool",
          "name": "",
          "type": "bool"
        }
      ],
      "stateMutability": "view",
      "type": "function"
    },
    {
      "inputs": [
        {
          "internalType": "address",
          "name": "",
          "type": "address"
        }
      ],
      "name": "ids",
      "outputs": [
        {
          "internalType": "uint256",
          "name": "",
          "type": "uint256"
        }
      ],
      "stateMutability": "view",
      "type": "function"
    },
    {
      "inputs": [
        {
          "internalType": "address",
          "name": "owner",
          "type": "address"
        },
        {
          "internalType": "address",
          "name": "operator",
          "type": "address"
        }
      ],
      "name": "isApprovedForAll",
      "outputs": [
        {
          "internalType": "bool",
          "name": "",
          "type": "bool"
        }
      ],
      "stateMutability": "view",
      "type": "function"
    },
    {
      "inputs": [
        {
          "internalType": "uint256",
          "name": "_profileId",
          "type": "uint256"
        },
        {
          "internalType": "address",
          "name": "_address",
          "type": "address"
        }
      ],
      "name": "isDelegate",
      "outputs": [
        {
          "internalType": "bool",
          "name": "",
          "type": "bool"
        }
      ],
      "stateMutability": "view",
      "type": "function"
    },
    {
      "inputs": [
        {
          "internalType": "uint256",
          "name": "_profileId",
          "type": "uint256"
        },
        {
          "internalType": "address",
          "name": "_address",
          "type": "address"
        }
      ],
      "name": "isOwnerOrDelegate",
      "outputs": [
        {
          "internalType": "bool",
          "name": "",
          "type": "bool"
        }
      ],
      "stateMutability": "view",
      "type": "function"
    },
    {
      "inputs": [
        {
          "internalType": "address",
          "name": "",
          "type": "address"
        }
      ],
      "name": "isServiceContract",
      "outputs": [
        {
          "internalType": "bool",
          "name": "",
          "type": "bool"
        }
      ],
      "stateMutability": "view",
      "type": "function"
    },
    {
      "inputs": [
        {
          "internalType": "uint256",
          "name": "_profileId",
          "type": "uint256"
        }
      ],
      "name": "isValid",
      "outputs": [],
      "stateMutability": "view",
      "type": "function"
    },
    {
      "inputs": [
        {
          "internalType": "address",
          "name": "_address",
          "type": "address"
        },
        {
          "internalType": "string",
          "name": "_handle",
          "type": "string"
        },
        {
          "internalType": "bytes32[]",
          "name": "_proof",
          "type": "bytes32[]"
        }
      ],
      "name": "isWhitelisted",
      "outputs": [
        {
          "internalType": "bool",
          "name": "",
          "type": "bool"
        }
      ],
      "stateMutability": "view",
      "type": "function"
    },
    {
      "inputs": [],
      "name": "knowledgeLayerPlatformId",
      "outputs": [
        {
          "internalType": "contract IKnowledgeLayerPlatformID",
          "name": "",
          "type": "address"
        }
      ],
      "stateMutability": "view",
      "type": "function"
    },
    {
      "inputs": [
        {
          "internalType": "uint256",
          "name": "_platformId",
          "type": "uint256"
        },
        {
          "internalType": "string",
          "name": "_handle",
          "type": "string"
        }
      ],
      "name": "mint",
      "outputs": [
        {
          "internalType": "uint256",
          "name": "",
          "type": "uint256"
        }
      ],
      "stateMutability": "payable",
      "type": "function"
    },
    {
      "inputs": [],
      "name": "mintFee",
      "outputs": [
        {
          "internalType": "uint256",
          "name": "",
          "type": "uint256"
        }
      ],
      "stateMutability": "view",
      "type": "function"
    },
    {
      "inputs": [
        {
          "internalType": "address",
          "name": "_address",
          "type": "address"
        },
        {
          "internalType": "uint256",
          "name": "_platformId",
          "type": "uint256"
        },
        {
          "internalType": "string",
          "name": "_handle",
          "type": "string"
        }
      ],
      "name": "mintForAddress",
      "outputs": [
        {
          "internalType": "uint256",
          "name": "",
          "type": "uint256"
        }
      ],
      "stateMutability": "payable",
      "type": "function"
    },
    {
      "inputs": [],
      "name": "mintStatus",
      "outputs": [
        {
          "internalType": "enum KnowledgeLayerID.MintStatus",
          "name": "",
          "type": "uint8"
        }
      ],
      "stateMutability": "view",
      "type": "function"
    },
    {
      "inputs": [],
      "name": "name",
      "outputs": [
        {
          "internalType": "string",
          "name": "",
          "type": "string"
        }
      ],
      "stateMutability": "view",
      "type": "function"
    },
    {
      "inputs": [],
      "name": "owner",
      "outputs": [
        {
          "internalType": "address",
          "name": "",
          "type": "address"
        }
      ],
      "stateMutability": "view",
      "type": "function"
    },
    {
      "inputs": [
        {
          "internalType": "uint256",
          "name": "tokenId",
          "type": "uint256"
        }
      ],
      "name": "ownerOf",
      "outputs": [
        {
          "internalType": "address",
          "name": "",
          "type": "address"
        }
      ],
      "stateMutability": "view",
      "type": "function"
    },
    {
      "inputs": [
        {
          "internalType": "uint256",
          "name": "_tokenId1",
          "type": "uint256"
        },
        {
          "internalType": "uint256",
          "name": "_tokenId2",
          "type": "uint256"
        }
      ],
      "name": "ownersOf",
      "outputs": [
        {
          "internalType": "address",
          "name": "",
          "type": "address"
        },
        {
          "internalType": "address",
          "name": "",
          "type": "address"
        }
      ],
      "stateMutability": "view",
      "type": "function"
    },
    {
      "inputs": [
        {
          "internalType": "uint256",
          "name": "",
          "type": "uint256"
        }
      ],
      "name": "profiles",
      "outputs": [
        {
          "internalType": "uint256",
          "name": "id",
          "type": "uint256"
        },
        {
          "internalType": "string",
          "name": "handle",
          "type": "string"
        },
        {
          "internalType": "uint256",
          "name": "platformId",
          "type": "uint256"
        },
        {
          "internalType": "string",
          "name": "dataUri",
          "type": "string"
        }
      ],
      "stateMutability": "view",
      "type": "function"
    },
    {
      "inputs": [
        {
          "internalType": "uint256",
          "name": "_profileId",
          "type": "uint256"
        },
        {
          "internalType": "address",
          "name": "_delegate",
          "type": "address"
        }
      ],
      "name": "removeDelegate",
      "outputs": [],
      "stateMutability": "nonpayable",
      "type": "function"
    },
    {
      "inputs": [],
      "name": "renounceOwnership",
      "outputs": [],
      "stateMutability": "nonpayable",
      "type": "function"
    },
    {
      "inputs": [
        {
          "internalType": "address",
          "name": "from",
          "type": "address"
        },
        {
          "internalType": "address",
          "name": "to",
          "type": "address"
        },
        {
          "internalType": "uint256",
          "name": "tokenId",
          "type": "uint256"
        }
      ],
      "name": "safeTransferFrom",
      "outputs": [],
      "stateMutability": "nonpayable",
      "type": "function"
    },
    {
      "inputs": [
        {
          "internalType": "address",
          "name": "from",
          "type": "address"
        },
        {
          "internalType": "address",
          "name": "to",
          "type": "address"
        },
        {
          "internalType": "uint256",
          "name": "tokenId",
          "type": "uint256"
        },
        {
          "internalType": "bytes",
          "name": "data",
          "type": "bytes"
        }
      ],
      "name": "safeTransferFrom",
      "outputs": [],
      "stateMutability": "nonpayable",
      "type": "function"
    },
    {
      "inputs": [
        {
          "internalType": "address",
          "name": "operator",
          "type": "address"
        },
        {
          "internalType": "bool",
          "name": "approved",
          "type": "bool"
        }
      ],
      "name": "setApprovalForAll",
      "outputs": [],
      "stateMutability": "nonpayable",
      "type": "function"
    },
    {
      "inputs": [
        {
          "internalType": "uint256",
          "name": "_profileId",
          "type": "uint256"
        }
      ],
      "name": "setHasActivity",
      "outputs": [],
      "stateMutability": "nonpayable",
      "type": "function"
    },
    {
      "inputs": [
        {
          "internalType": "address",
          "name": "_address",
          "type": "address"
        },
        {
          "internalType": "bool",
          "name": "_isServiceContract",
          "type": "bool"
        }
      ],
      "name": "setIsServiceContract",
      "outputs": [],
      "stateMutability": "nonpayable",
      "type": "function"
    },
    {
      "inputs": [
        {
          "internalType": "bytes32",
          "name": "root",
          "type": "bytes32"
        }
      ],
      "name": "setWhitelistMerkleRoot",
      "outputs": [],
      "stateMutability": "nonpayable",
      "type": "function"
    },
    {
      "inputs": [
        {
          "internalType": "bytes4",
          "name": "interfaceId",
          "type": "bytes4"
        }
      ],
      "name": "supportsInterface",
      "outputs": [
        {
          "internalType": "bool",
          "name": "",
          "type": "bool"
        }
      ],
      "stateMutability": "view",
      "type": "function"
    },
    {
      "inputs": [],
      "name": "symbol",
      "outputs": [
        {
          "internalType": "string",
          "name": "",
          "type": "string"
        }
      ],
      "stateMutability": "view",
      "type": "function"
    },
    {
      "inputs": [
        {
          "internalType": "string",
          "name": "",
          "type": "string"
        }
      ],
      "name": "takenHandles",
      "outputs": [
        {
          "internalType": "bool",
          "name": "",
          "type": "bool"
        }
      ],
      "stateMutability": "view",
      "type": "function"
    },
    {
      "inputs": [
        {
          "internalType": "uint256",
          "name": "tokenId",
          "type": "uint256"
        }
      ],
      "name": "tokenURI",
      "outputs": [
        {
          "internalType": "string",
          "name": "",
          "type": "string"
        }
      ],
      "stateMutability": "view",
      "type": "function"
    },
    {
      "inputs": [],
      "name": "totalSupply",
      "outputs": [
        {
          "internalType": "uint256",
          "name": "",
          "type": "uint256"
        }
      ],
      "stateMutability": "view",
      "type": "function"
    },
    {
      "inputs": [
        {
          "internalType": "address",
          "name": "from",
          "type": "address"
        },
        {
          "internalType": "address",
          "name": "to",
          "type": "address"
        },
        {
          "internalType": "uint256",
          "name": "tokenId",
          "type": "uint256"
        }
      ],
      "name": "transferFrom",
      "outputs": [],
      "stateMutability": "nonpayable",
      "type": "function"
    },
    {
      "inputs": [
        {
          "internalType": "address",
          "name": "newOwner",
          "type": "address"
        }
      ],
      "name": "transferOwnership",
      "outputs": [],
      "stateMutability": "nonpayable",
      "type": "function"
    },
    {
      "inputs": [
        {
          "internalType": "uint256",
          "name": "_mintFee",
          "type": "uint256"
        }
      ],
      "name": "updateMintFee",
      "outputs": [],
      "stateMutability": "nonpayable",
      "type": "function"
    },
    {
      "inputs": [
        {
          "internalType": "enum KnowledgeLayerID.MintStatus",
          "name": "_mintStatus",
          "type": "uint8"
        }
      ],
      "name": "updateMintStatus",
      "outputs": [],
      "stateMutability": "nonpayable",
      "type": "function"
    },
    {
      "inputs": [
        {
          "internalType": "uint256",
          "name": "_profileId",
          "type": "uint256"
        },
        {
          "internalType": "string",
          "name": "_newCid",
          "type": "string"
        }
      ],
      "name": "updateProfileData",
      "outputs": [],
      "stateMutability": "nonpayable",
      "type": "function"
    },
    {
      "inputs": [
        {
          "internalType": "uint256",
          "name": "_shortHandlesMaxPrice",
          "type": "uint256"
        }
      ],
      "name": "updateShortHandlesMaxPrice",
      "outputs": [],
      "stateMutability": "nonpayable",
      "type": "function"
    },
    {
      "inputs": [
        {
          "internalType": "uint256",
          "name": "_platformId",
          "type": "uint256"
        },
        {
          "internalType": "string",
          "name": "_handle",
          "type": "string"
        },
        {
          "internalType": "bytes32[]",
          "name": "_proof",
          "type": "bytes32[]"
        }
      ],
      "name": "whitelistMint",
      "outputs": [
        {
          "internalType": "uint256",
          "name": "",
          "type": "uint256"
        }
      ],
      "stateMutability": "payable",
      "type": "function"
    },
    {
      "inputs": [],
      "name": "withdraw",
      "outputs": [],
      "stateMutability": "nonpayable",
      "type": "function"
    }
  ],
  "bytecode": "0x60806040523480156200001157600080fd5b506040516200413c3803806200413c833981016040819052620000349162000158565b6040518060400160405280601081526020016f12db9bdddb195919d953185e595c925160821b8152506040518060400160405280600481526020016312d3125160e21b815250620000946200008e620000fb60201b60201c565b620000ff565b6001620000a283826200022f565b506002620000b182826200022f565b5050600780546001600160a01b0319166001600160a01b03841617905550620000e7600c6200014f602090811b62001c5c17901c565b50600f805460ff19166001179055620002fb565b3390565b600080546001600160a01b038381166001600160a01b0319831681178455604051919092169283917f8be0079c531659141344cd1fd0a4f28419497f9722a3daafe3b4186f6b6457e09190a35050565b80546001019055565b6000602082840312156200016b57600080fd5b81516001600160a01b03811681146200018357600080fd5b9392505050565b634e487b7160e01b600052604160045260246000fd5b600181811c90821680620001b557607f821691505b602082108103620001d657634e487b7160e01b600052602260045260246000fd5b50919050565b601f8211156200022a57600081815260208120601f850160051c81016020861015620002055750805b601f850160051c820191505b81811015620002265782815560010162000211565b5050505b505050565b81516001600160401b038111156200024b576200024b6200018a565b62000263816200025c8454620001a0565b84620001dc565b602080601f8311600181146200029b5760008415620002825750858301515b600019600386901b1c1916600185901b17855562000226565b600085815260208120601f198616915b82811015620002cc57888601518255948401946001909101908401620002ab565b5085821015620002eb5787850151600019600388901b60f8161c191681555b5050505050600190811b01905550565b613e31806200030b6000396000f3fe60806040526004361061027d5760003560e01c806377097fc81161014f578063c247793b116100c1578063ebf247f91161007a578063ebf247f914610836578063f160068f14610856578063f2fde38b14610876578063f577a50014610896578063f905f154146108b6578063fbdc8dc0146108d657600080fd5b8063c247793b14610724578063c36fe3d614610744578063c87b56dd14610774578063e985e9c514610794578063ea17e5a8146107dd578063eab5d426146107f057600080fd5b80638da5cb5b116101135780638da5cb5b1461066a57806395d89b41146106885780639da3f8fd1461069d578063a22cb465146106c4578063b88d4fde146106e4578063bd32fb661461070457600080fd5b806377097fc8146105d757806383ce205b146105ea57806384017e521461060a57806389c1694c1461062a5780638ced8ba31461064a57600080fd5b80632106beec116101f357806342842e0e116101ac57806342842e0e146104fc5780635c4b03481461051c5780636352211e1461056257806370a082311461058257806370e703dd146105a2578063715018a6146105c257600080fd5b80632106beec1461041c57806322039f891461045757806323b872dd146104875780632eefaa61146104a75780632fa117e5146104c75780633ccfd60b146104e757600080fd5b806313966db51161024557806313966db51461036357806316afebe51461038757806318160ddd1461039a5780631847c06b146103af5780631cf6239b146103dc5780631f67fba6146103fc57600080fd5b806301ffc9a71461028257806306fdde03146102b7578063081812fc146102d9578063095ea7b3146103115780630d283a2514610333575b600080fd5b34801561028e57600080fd5b506102a261029d366004612bf5565b610916565b60405190151581526020015b60405180910390f35b3480156102c357600080fd5b506102cc610968565b6040516102ae9190612c62565b3480156102e557600080fd5b506102f96102f4366004612c75565b6109fa565b6040516001600160a01b0390911681526020016102ae565b34801561031d57600080fd5b5061033161032c366004612caa565b610a21565b005b34801561033f57600080fd5b506102a261034e366004612c75565b60116020526000908152604090205460ff1681565b34801561036f57600080fd5b50610379600b5481565b6040519081526020016102ae565b610379610395366004612d15565b610b3b565b3480156103a657600080fd5b50610379610de4565b3480156103bb57600080fd5b506103796103ca366004612dbb565b600a6020526000908152604090205481565b3480156103e857600080fd5b506103316103f7366004612dd6565b610e00565b34801561040857600080fd5b50610331610417366004612c75565b610ebc565b34801561042857600080fd5b506102a2610437366004612ebf565b805160208183018101805160088252928201919093012091525460ff1681565b34801561046357600080fd5b506102a2610472366004612dbb565b60126020526000908152604090205460ff1681565b34801561049357600080fd5b506103316104a2366004612ef3565b610f00565b3480156104b357600080fd5b506102a26104c2366004612f2f565b610f31565b3480156104d357600080fd5b506102a26104e2366004612dd6565b610fb1565b3480156104f357600080fd5b50610331611004565b34801561050857600080fd5b50610331610517366004612ef3565b6110a7565b34801561052857600080fd5b50610379610537366004612dbb565b6001600160a01b03166000908152600a60209081526040808320548352600990915290206002015490565b34801561056e57600080fd5b506102f961057d366004612c75565b6110c2565b34801561058e57600080fd5b5061037961059d366004612dbb565b611122565b3480156105ae57600080fd5b506103316105bd366004612dd6565b6111a8565b3480156105ce57600080fd5b50610331611259565b6103796105e536600461300b565b61126d565b3480156105f657600080fd5b50610331610605366004612c75565b611446565b34801561061657600080fd5b50610331610625366004612c75565b6114eb565b34801561063657600080fd5b50610379610645366004613056565b611528565b34801561065657600080fd5b506103316106653660046130af565b611666565b34801561067657600080fd5b506000546001600160a01b03166102f9565b34801561069457600080fd5b506102cc611699565b3480156106a957600080fd5b50600f546106b79060ff1681565b6040516102ae9190613101565b3480156106d057600080fd5b506103316106df3660046130af565b6116a8565b3480156106f057600080fd5b506103316106ff366004613129565b6116b7565b34801561071057600080fd5b5061033161071f366004612c75565b6116ef565b34801561073057600080fd5b506007546102f9906001600160a01b031681565b34801561075057600080fd5b5061076461075f366004612c75565b6116fc565b6040516102ae94939291906131a4565b34801561078057600080fd5b506102cc61078f366004612c75565b611835565b3480156107a057600080fd5b506102a26107af3660046131e0565b6001600160a01b03918216600090815260066020908152604080832093909416825291909152205460ff1690565b6103796107eb36600461320a565b611840565b3480156107fc57600080fd5b506102a261080b366004612dd6565b6000918252600d602090815260408084206001600160a01b0393909316845291905290205460ff1690565b34801561084257600080fd5b5061037961085136600461324b565b6119fb565b34801561086257600080fd5b5061033161087136600461328c565b611a3a565b34801561088257600080fd5b50610331610891366004612dbb565b611b21565b3480156108a257600080fd5b506103316108b1366004612c75565b611b97565b3480156108c257600080fd5b506103316108d13660046132d2565b611be0565b3480156108e257600080fd5b506108f66108f13660046132f3565b611c3b565b604080516001600160a01b039384168152929091166020830152016102ae565b60006001600160e01b031982166380ac58cd60e01b148061094757506001600160e01b03198216635b5e139f60e01b145b8061096257506301ffc9a760e01b6001600160e01b03198316145b92915050565b60606001805461097790613315565b80601f01602080910402602001604051908101604052809291908181526020018280546109a390613315565b80156109f05780601f106109c5576101008083540402835291602001916109f0565b820191906000526020600020905b8154815290600101906020018083116109d357829003601f168201915b5050505050905090565b6000610a0582611c65565b506000908152600560205260409020546001600160a01b031690565b6000610a2c826110c2565b9050806001600160a01b0316836001600160a01b031603610a9e5760405162461bcd60e51b815260206004820152602160248201527f4552433732313a20617070726f76616c20746f2063757272656e74206f776e656044820152603960f91b60648201526084015b60405180910390fd5b336001600160a01b0382161480610aba5750610aba81336107af565b610b2c5760405162461bcd60e51b815260206004820152603d60248201527f4552433732313a20617070726f76652063616c6c6572206973206e6f7420746f60448201527f6b656e206f776e6572206f7220617070726f76656420666f7220616c6c0000006064820152608401610a95565b610b368383611cc4565b505050565b600033858588610b4a84611122565b15610b675760405162461bcd60e51b8152600401610a959061334f565b60088383604051610b79929190613392565b9081526040519081900360200190205460ff1615610ba95760405162461bcd60e51b8152600401610a95906133a2565b8015610c0b5760075460405162f577a560e81b8152600481018390526001600160a01b039091169063f577a5009060240160006040518083038186803b158015610bf257600080fd5b505afa158015610c06573d6000803e3d6000fd5b505050505b610c158383611d32565b8888610c2182826119fb565b3414610c3f5760405162461bcd60e51b8152600401610a95906133d0565b6001600f5460ff166002811115610c5857610c586130eb565b14610ca55760405162461bcd60e51b815260206004820152601d60248201527f57686974656c697374206d696e74206973206e6f7420656e61626c65640000006044820152606401610a95565b6000339050610d2c818d8d8080601f016020809104026020016040519081016040528093929190818152602001838380828437600081840152601f19601f820116905080830192505050505050508c8c80806020026020016040519081016040528093929190818152602001838360200280828437600092019190915250610f3192505050565b610d715760405162461bcd60e51b8152602060048201526016602482015275165bdd49dc99481b9bdd081dda1a5d195b1a5cdd195960521b6044820152606401610a95565b610d8381610d7e600c5490565b611f54565b610dd3818d8d8080601f016020809104026020016040519081016040528093929190818152602001838380828437600081840152601f19601f820116905080830192505050505050508f346120df565b9d9c50505050505050505050505050565b60006001610df1600c5490565b610dfb919061342a565b905090565b33610e0a836110c2565b6001600160a01b031614610e505760405162461bcd60e51b815260206004820152600d60248201526c2737ba103a34329037bbb732b960991b6044820152606401610a95565b6000828152600d602090815260408083206001600160a01b03851680855290835292819020805460ff191660011790558051858152918201929092527f2d678d15460f6ef62d6d85bfaf6a46d9d0d6498a0fd6ecd92d42bc2ab018103991015b60405180910390a15050565b610ec46121b1565b60108190556040518181527fa7c83a47a9702f7f1fc21a99b3be95dc10f5d00a4bca12cb54ed49b50bce1785906020015b60405180910390a150565b610f0a338261220b565b610f265760405162461bcd60e51b8152600401610a959061343d565b610b36838383612289565b600080610f48856001600160a01b03166014612380565b84604051602001610f5a9291906134a6565b6040516020818303038152906040529050610fa8600e5482604051602001610f8291906134e2565b604051602081830303815290604052805190602001208561251b9092919063ffffffff16565b95945050505050565b6000816001600160a01b0316610fc6846110c2565b6001600160a01b03161480610ffd57506000838152600d602090815260408083206001600160a01b038616845290915290205460ff165b9392505050565b61100c6121b1565b604051600090339047908381818185875af1925050503d806000811461104e576040519150601f19603f3d011682016040523d82523d6000602084013e611053565b606091505b50509050806110a45760405162461bcd60e51b815260206004820152601860248201527f4661696c656420746f20776974686472617720457468657200000000000000006044820152606401610a95565b50565b610b36838383604051806020016040528060008152506116b7565b6000818152600360205260408120546001600160a01b0316806109625760405162461bcd60e51b8152602060048201526018602482015277115490cdcc8c4e881a5b9d985b1a59081d1bdad95b88125160421b6044820152606401610a95565b60006001600160a01b03821661118c5760405162461bcd60e51b815260206004820152602960248201527f4552433732313a2061646472657373207a65726f206973206e6f7420612076616044820152683634b21037bbb732b960b91b6064820152608401610a95565b506001600160a01b031660009081526004602052604090205490565b336111b2836110c2565b6001600160a01b0316146111f85760405162461bcd60e51b815260206004820152600d60248201526c2737ba103a34329037bbb732b960991b6044820152606401610a95565b6000828152600d602090815260408083206001600160a01b03851680855290835292819020805460ff191690558051858152918201929092527f09f87139523b83583b15f476015dd9a27fae3a03f17202cdf77d063bef5d21c29101610eb0565b6112616121b1565b61126b6000612531565b565b60003383838661127c84611122565b156112995760405162461bcd60e51b8152600401610a959061334f565b600883836040516112ab929190613392565b9081526040519081900360200190205460ff16156112db5760405162461bcd60e51b8152600401610a95906133a2565b801561133d5760075460405162f577a560e81b8152600481018390526001600160a01b039091169063f577a5009060240160006040518083038186803b15801561132457600080fd5b505afa158015611338573d6000803e3d6000fd5b505050505b6113478383611d32565b868661135382826119fb565b34146113715760405162461bcd60e51b8152600401610a95906133d0565b6002600f5460ff16600281111561138a5761138a6130eb565b146113d75760405162461bcd60e51b815260206004820152601a60248201527f5075626c6963206d696e74206973206e6f7420656e61626c65640000000000006044820152606401610a95565b600c5433906113e7908290611f54565b611437818b8b8080601f016020809104026020016040519081016040528093929190818152602001838380828437600081840152601f19601f820116905080830192505050505050508d346120df565b9b9a5050505050505050505050565b3360009081526012602052604090205460ff1615156001146114d05760405162461bcd60e51b815260206004820152603a60248201527f4f6e6c79207365727669636520636f6e7472616374732063616e20736574207760448201527f68657468657220612075736572206861732061637469766974790000000000006064820152608401610a95565b6000908152601160205260409020805460ff19166001179055565b6114f36121b1565b600b8190556040518181527f38fbb1c8b109c430f0c030e7ed076cf5611a307773a4e8e365601e8f8bceaec690602001610ef5565b60008383838761153784611122565b156115545760405162461bcd60e51b8152600401610a959061334f565b60088383604051611566929190613392565b9081526040519081900360200190205460ff16156115965760405162461bcd60e51b8152600401610a95906133a2565b80156115f85760075460405162f577a560e81b8152600481018390526001600160a01b039091169063f577a5009060240160006040518083038186803b1580156115df57600080fd5b505afa1580156115f3573d6000803e3d6000fd5b505050505b6116028383611d32565b61160a6121b1565b61161788610d7e600c5490565b6116598888888080601f01602080910402602001604051908101604052809392919081815260200183838082843760009201829052508f935091506120df9050565b9998505050505050505050565b61166e6121b1565b6001600160a01b03919091166000908152601260205260409020805460ff1916911515919091179055565b60606002805461097790613315565b6116b3338383612581565b5050565b6116c1338361220b565b6116dd5760405162461bcd60e51b8152600401610a959061343d565b6116e98484848461264f565b50505050565b6116f76121b1565b600e55565b6009602052600090815260409020805460018201805491929161171e90613315565b80601f016020809104026020016040519081016040528092919081815260200182805461174a90613315565b80156117975780601f1061176c57610100808354040283529160200191611797565b820191906000526020600020905b81548152906001019060200180831161177a57829003601f168201915b5050505050908060020154908060030180546117b290613315565b80601f01602080910402602001604051908101604052809291908181526020018280546117de90613315565b801561182b5780601f106118005761010080835404028352916020019161182b565b820191906000526020600020905b81548152906001019060200180831161180e57829003601f168201915b5050505050905084565b606061096282612682565b60008483838661184f84611122565b1561186c5760405162461bcd60e51b8152600401610a959061334f565b6008838360405161187e929190613392565b9081526040519081900360200190205460ff16156118ae5760405162461bcd60e51b8152600401610a95906133a2565b80156119105760075460405162f577a560e81b8152600481018390526001600160a01b039091169063f577a5009060240160006040518083038186803b1580156118f757600080fd5b505afa15801561190b573d6000803e3d6000fd5b505050505b61191a8383611d32565b868661192682826119fb565b34146119445760405162461bcd60e51b8152600401610a95906133d0565b6002600f5460ff16600281111561195d5761195d6130eb565b146119aa5760405162461bcd60e51b815260206004820152601a60248201527f5075626c6963206d696e74206973206e6f7420656e61626c65640000000000006044820152606401610a95565b6119b78b610d7e600c5490565b6114378b8a8a8080601f0160208091040260200160405190810160405280939291908181526020018383808284376000920191909152508f92503491506120df9050565b60008160048111611a2e57611a1160018261342a565b611a1c9060026135e2565b601054611a2991906135ee565b611a32565b600b545b949350505050565b81611a458133610fb1565b611a895760405162461bcd60e51b81526020600482015260156024820152744e6f74206f776e6572206f722064656c656761746560581b6044820152606401610a95565b8151602e14611ac85760405162461bcd60e51b815260206004820152600b60248201526a125b9d985b1a590818da5960aa1b6044820152606401610a95565b6000838152600960205260409020600301611ae38382613656565b50827f613807bd6768f626264e7eb664a65ca99a0d930f8fd8a5b868491a592eb57f7283604051611b149190612c62565b60405180910390a2505050565b611b296121b1565b6001600160a01b038116611b8e5760405162461bcd60e51b815260206004820152602660248201527f4f776e61626c653a206e6577206f776e657220697320746865207a65726f206160448201526564647265737360d01b6064820152608401610a95565b6110a481612531565b600081118015611ba85750600c5481105b6110a45760405162461bcd60e51b81526020600482015260096024820152681b9bdd081d985b1a5960ba1b6044820152606401610a95565b611be86121b1565b600f805482919060ff19166001836002811115611c0757611c076130eb565b02179055507fbe5bfaa294dd4b792e98f2bcf8f597b2ead214107f9bc9e8392d6ec65e8d854f81604051610ef59190613101565b600080611c47846110c2565b611c50846110c2565b915091505b9250929050565b80546001019055565b6000818152600360205260409020546001600160a01b03166110a45760405162461bcd60e51b8152602060048201526018602482015277115490cdcc8c4e881a5b9d985b1a59081d1bdad95b88125160421b6044820152606401610a95565b600081815260056020526040902080546001600160a01b0319166001600160a01b0384169081179091558190611cf9826110c2565b6001600160a01b03167f8c5be1e5ebec7d5bd14f71427d1e84f3dd0314c0f7b2291e5b200ac8c7c3b92560405160405180910390a45050565b600082828080601f0160208091040260200160405190810160405280939291908181526020018383808284376000920191909152505082519293505060018210905080611d7f5750601f81115b15611d9d57604051633eb64ab360e01b815260040160405180910390fd5b600084846000818110611db257611db2613715565b909101356001600160f81b031916915050602d60f81b811480611de25750605f60f81b6001600160f81b03198216145b15611e0057604051632f2c22a760e11b815260040160405180910390fd5b60005b82811015611f4c57600360fc1b848281518110611e2257611e22613715565b01602001516001600160f81b0319161080611e605750603d60f91b848281518110611e4f57611e4f613715565b01602001516001600160f81b031916115b80611ebc5750603960f81b848281518110611e7d57611e7d613715565b01602001516001600160f81b031916118015611ebc5750606160f81b848281518110611eab57611eab613715565b01602001516001600160f81b031916105b8015611eed5750838181518110611ed557611ed5613715565b6020910101516001600160f81b031916602d60f81b14155b8015611f1e5750838181518110611f0657611f06613715565b6020910101516001600160f81b031916605f60f81b14155b15611f3c57604051630bb7f19b60e21b815260040160405180910390fd5b611f458161372b565b9050611e03565b505050505050565b6001600160a01b038216611faa5760405162461bcd60e51b815260206004820181905260248201527f4552433732313a206d696e7420746f20746865207a65726f20616464726573736044820152606401610a95565b6000818152600360205260409020546001600160a01b03161561200f5760405162461bcd60e51b815260206004820152601c60248201527f4552433732313a20746f6b656e20616c7265616479206d696e746564000000006044820152606401610a95565b6000818152600360205260409020546001600160a01b0316156120745760405162461bcd60e51b815260206004820152601c60248201527f4552433732313a20746f6b656e20616c7265616479206d696e746564000000006044820152606401610a95565b6001600160a01b038216600081815260046020908152604080832080546001019055848352600390915280822080546001600160a01b0319168417905551839291907fddf252ad1be2c89b69c2b068fc378daa952ba7f163c4a11628f55a4df523b3ef908290a45050565b6000806120eb600c5490565b90506120fb600c80546001019055565b6000818152600960205260409020600281018590556001810161211e8782613656565b50600160088760405161213191906134e2565b9081526040805160209281900383018120805460ff1916941515949094179093556001600160a01b038a166000818152600a9093529120849055907f8475f1ba3b06c1e11c870cbbf9753ca9a8292ea0b203262f682de476dc268f8c9061219f9085908a908a908a90613744565b60405180910390a25095945050505050565b6000546001600160a01b0316331461126b5760405162461bcd60e51b815260206004820181905260248201527f4f776e61626c653a2063616c6c6572206973206e6f7420746865206f776e65726044820152606401610a95565b600080612217836110c2565b9050806001600160a01b0316846001600160a01b0316148061225e57506001600160a01b0380821660009081526006602090815260408083209388168352929052205460ff165b80611a325750836001600160a01b0316612277846109fa565b6001600160a01b031614949350505050565b60008181526011602052604090205460ff16156122e85760405162461bcd60e51b815260206004820152601d60248201527f546f6b656e207472616e73666572206973206e6f7420616c6c6f7765640000006044820152606401610a95565b6122f182611122565b1561234f5760405162461bcd60e51b815260206004820152602860248201527f526563656976657220616c7265616479206861732061204b6e6f776c6564676560448201526713185e595c88125160c21b6064820152608401610a95565b6001600160a01b038084166000908152600a6020526040808220829055918416815220819055610b368383836127af565b6060600061238f836002613770565b61239a906002613787565b6001600160401b038111156123b1576123b1612e02565b6040519080825280601f01601f1916602001820160405280156123db576020820181803683370190505b509050600360fc1b816000815181106123f6576123f6613715565b60200101906001600160f81b031916908160001a905350600f60fb1b8160018151811061242557612425613715565b60200101906001600160f81b031916908160001a9053506000612449846002613770565b612454906001613787565b90505b60018111156124cc576f181899199a1a9b1b9c1cb0b131b232b360811b85600f166010811061248857612488613715565b1a60f81b82828151811061249e5761249e613715565b60200101906001600160f81b031916908160001a90535060049490941c936124c58161379a565b9050612457565b508315610ffd5760405162461bcd60e51b815260206004820181905260248201527f537472696e67733a20686578206c656e67746820696e73756666696369656e746044820152606401610a95565b6000826125288584612913565b14949350505050565b600080546001600160a01b038381166001600160a01b0319831681178455604051919092169283917f8be0079c531659141344cd1fd0a4f28419497f9722a3daafe3b4186f6b6457e09190a35050565b816001600160a01b0316836001600160a01b0316036125e25760405162461bcd60e51b815260206004820152601960248201527f4552433732313a20617070726f766520746f2063616c6c6572000000000000006044820152606401610a95565b6001600160a01b03838116600081815260066020908152604080832094871680845294825291829020805460ff191686151590811790915591519182527f17307eab39ab6107e8899845ad3d59bd9653f200f220920489ca2b5937696c31910160405180910390a3505050565b61265a848484612289565b61266684848484612960565b6116e95760405162461bcd60e51b8152600401610a95906137b1565b60008181526009602090815260408083209051606093926126a7926001019101613803565b6040516020818303038152906040529050600060146009600086815260200190815260200160002060010180546126dd90613315565b905011156127055760405180604001604052806002815260200161034360f41b815250612721565b60405180604001604052806002815260200161036360f41b8152505b9050600061274f828460405160200161273b929190613884565b604051602081830303815290604052612a5e565b60405160200161275f9190613bfc565b6040516020818303038152906040529050612786838260405160200161273b929190613c41565b6040516020016127969190613cd7565b6040516020818303038152906040529350505050919050565b826001600160a01b03166127c2826110c2565b6001600160a01b0316146127e85760405162461bcd60e51b8152600401610a9590613d1c565b6001600160a01b03821661284a5760405162461bcd60e51b8152602060048201526024808201527f4552433732313a207472616e7366657220746f20746865207a65726f206164646044820152637265737360e01b6064820152608401610a95565b826001600160a01b031661285d826110c2565b6001600160a01b0316146128835760405162461bcd60e51b8152600401610a9590613d1c565b600081815260056020908152604080832080546001600160a01b03199081169091556001600160a01b0387811680865260048552838620805460001901905590871680865283862080546001019055868652600390945282852080549092168417909155905184937fddf252ad1be2c89b69c2b068fc378daa952ba7f163c4a11628f55a4df523b3ef91a4505050565b600081815b8451811015612958576129448286838151811061293757612937613715565b6020026020010151612bb0565b9150806129508161372b565b915050612918565b509392505050565b60006001600160a01b0384163b15612a5657604051630a85bd0160e11b81526001600160a01b0385169063150b7a02906129a4903390899088908890600401613d61565b6020604051808303816000875af19250505080156129df575060408051601f3d908101601f191682019092526129dc91810190613d9e565b60015b612a3c573d808015612a0d576040519150601f19603f3d011682016040523d82523d6000602084013e612a12565b606091505b508051600003612a345760405162461bcd60e51b8152600401610a95906137b1565b805181602001fd5b6001600160e01b031916630a85bd0160e11b149050611a32565b506001611a32565b60608151600003612a7d57505060408051602081019091526000815290565b6000604051806060016040528060408152602001613dbc6040913990506000600384516002612aac9190613787565b612ab691906135ee565b612ac1906004613770565b6001600160401b03811115612ad857612ad8612e02565b6040519080825280601f01601f191660200182016040528015612b02576020820181803683370190505b509050600182016020820185865187015b80821015612b6e576003820191508151603f8160121c168501518453600184019350603f81600c1c168501518453600184019350603f8160061c168501518453600184019350603f8116850151845350600183019250612b13565b5050600386510660018114612b8a5760028114612b9d57612ba5565b603d6001830353603d6002830353612ba5565b603d60018303535b509195945050505050565b6000818310612bcc576000828152602084905260409020610ffd565b6000838152602083905260409020610ffd565b6001600160e01b0319811681146110a457600080fd5b600060208284031215612c0757600080fd5b8135610ffd81612bdf565b60005b83811015612c2d578181015183820152602001612c15565b50506000910152565b60008151808452612c4e816020860160208601612c12565b601f01601f19169290920160200192915050565b602081526000610ffd6020830184612c36565b600060208284031215612c8757600080fd5b5035919050565b80356001600160a01b0381168114612ca557600080fd5b919050565b60008060408385031215612cbd57600080fd5b612cc683612c8e565b946020939093013593505050565b60008083601f840112612ce657600080fd5b5081356001600160401b03811115612cfd57600080fd5b602083019150836020828501011115611c5557600080fd5b600080600080600060608688031215612d2d57600080fd5b8535945060208601356001600160401b0380821115612d4b57600080fd5b612d5789838a01612cd4565b90965094506040880135915080821115612d7057600080fd5b818801915088601f830112612d8457600080fd5b813581811115612d9357600080fd5b8960208260051b8501011115612da857600080fd5b9699959850939650602001949392505050565b600060208284031215612dcd57600080fd5b610ffd82612c8e565b60008060408385031215612de957600080fd5b82359150612df960208401612c8e565b90509250929050565b634e487b7160e01b600052604160045260246000fd5b604051601f8201601f191681016001600160401b0381118282101715612e4057612e40612e02565b604052919050565b60006001600160401b03831115612e6157612e61612e02565b612e74601f8401601f1916602001612e18565b9050828152838383011115612e8857600080fd5b828260208301376000602084830101529392505050565b600082601f830112612eb057600080fd5b610ffd83833560208501612e48565b600060208284031215612ed157600080fd5b81356001600160401b03811115612ee757600080fd5b611a3284828501612e9f565b600080600060608486031215612f0857600080fd5b612f1184612c8e565b9250612f1f60208501612c8e565b9150604084013590509250925092565b600080600060608486031215612f4457600080fd5b612f4d84612c8e565b92506020808501356001600160401b0380821115612f6a57600080fd5b612f7688838901612e9f565b94506040870135915080821115612f8c57600080fd5b818701915087601f830112612fa057600080fd5b813581811115612fb257612fb2612e02565b8060051b9150612fc3848301612e18565b818152918301840191848101908a841115612fdd57600080fd5b938501935b83851015612ffb57843582529385019390850190612fe2565b8096505050505050509250925092565b60008060006040848603121561302057600080fd5b8335925060208401356001600160401b0381111561303d57600080fd5b61304986828701612cd4565b9497909650939450505050565b6000806000806060858703121561306c57600080fd5b8435935061307c60208601612c8e565b925060408501356001600160401b0381111561309757600080fd5b6130a387828801612cd4565b95989497509550505050565b600080604083850312156130c257600080fd5b6130cb83612c8e565b9150602083013580151581146130e057600080fd5b809150509250929050565b634e487b7160e01b600052602160045260246000fd5b602081016003831061312357634e487b7160e01b600052602160045260246000fd5b91905290565b6000806000806080858703121561313f57600080fd5b61314885612c8e565b935061315660208601612c8e565b92506040850135915060608501356001600160401b0381111561317857600080fd5b8501601f8101871361318957600080fd5b61319887823560208401612e48565b91505092959194509250565b8481526080602082015260006131bd6080830186612c36565b84604084015282810360608401526131d58185612c36565b979650505050505050565b600080604083850312156131f357600080fd5b6131fc83612c8e565b9150612df960208401612c8e565b6000806000806060858703121561322057600080fd5b61322985612c8e565b93506020850135925060408501356001600160401b0381111561309757600080fd5b6000806020838503121561325e57600080fd5b82356001600160401b0381111561327457600080fd5b61328085828601612cd4565b90969095509350505050565b6000806040838503121561329f57600080fd5b8235915060208301356001600160401b038111156132bc57600080fd5b6132c885828601612e9f565b9150509250929050565b6000602082840312156132e457600080fd5b813560038110610ffd57600080fd5b6000806040838503121561330657600080fd5b50508035926020909101359150565b600181811c9082168061332957607f821691505b60208210810361334957634e487b7160e01b600052602260045260246000fd5b50919050565b60208082526023908201527f596f7520616c726561647920686176652061204b6e6f776c656467654c6179656040820152621c925160ea1b606082015260800190565b8183823760009101908152919050565b6020808252601490820152732430b73236329030b63932b0b23c903a30b5b2b760611b604082015260600190565b60208082526024908201527f496e636f727265637420616d6f756e74206f662045544820666f72206d696e746040820152632066656560e01b606082015260800190565b634e487b7160e01b600052601160045260246000fd5b8181038181111561096257610962613414565b6020808252602d908201527f4552433732313a2063616c6c6572206973206e6f7420746f6b656e206f776e6560408201526c1c881bdc88185c1c1c9bdd9959609a1b606082015260800190565b6000815161349c818560208601612c12565b9290920192915050565b600083516134b8818460208801612c12565b603b60f81b90830190815283516134d6816001840160208801612c12565b01600101949350505050565b600082516134f4818460208701612c12565b9190910192915050565b600181815b8085111561353957816000190482111561351f5761351f613414565b8085161561352c57918102915b93841c9390800290613503565b509250929050565b60008261355057506001610962565b8161355d57506000610962565b8160018114613573576002811461357d57613599565b6001915050610962565b60ff84111561358e5761358e613414565b50506001821b610962565b5060208310610133831016604e8410600b84101617156135bc575081810a610962565b6135c683836134fe565b80600019048211156135da576135da613414565b029392505050565b6000610ffd8383613541565b60008261360b57634e487b7160e01b600052601260045260246000fd5b500490565b601f821115610b3657600081815260208120601f850160051c810160208610156136375750805b601f850160051c820191505b81811015611f4c57828155600101613643565b81516001600160401b0381111561366f5761366f612e02565b6136838161367d8454613315565b84613610565b602080601f8311600181146136b857600084156136a05750858301515b600019600386901b1c1916600185901b178555611f4c565b600085815260208120601f198616915b828110156136e7578886015182559484019460019091019084016136c8565b50858210156137055787850151600019600388901b60f8161c191681555b5050505050600190811b01905550565b634e487b7160e01b600052603260045260246000fd5b60006001820161373d5761373d613414565b5060010190565b84815260806020820152600061375d6080830186612c36565b6040830194909452506060015292915050565b808202811582820484141761096257610962613414565b8082018082111561096257610962613414565b6000816137a9576137a9613414565b506000190190565b60208082526032908201527f4552433732313a207472616e7366657220746f206e6f6e20455243373231526560408201527131b2b4bb32b91034b6b83632b6b2b73a32b960711b606082015260800190565b600080835461381181613315565b60018281168015613829576001811461383e5761386d565b60ff198416875282151583028701945061386d565b8760005260208060002060005b858110156138645781548a82015290840190820161384b565b50505082870194505b5050620b9d1b60ea1b835250506003019392505050565b7f3c73766720786d6c6e733d22687474703a2f2f7777772e77332e6f72672f323081527f30302f737667222077696474683d2237323022206865696768743d223732302260208201527f3e3c726563742077696474683d223130302522206865696768743d223130302560408201527f222f3e3c73766720786d6c6e733d22687474703a2f2f7777772e77332e6f726760608201527f2f323030302f737667222077696474683d2231353022206865696768743d223160808201527f3530222076657273696f6e3d22312e32222076696577426f783d222d3230302060a08201527f2d353020313030302031303030223e3c706174682066696c6c3d22234646464660c08201527f46462220643d224d3236342e35203139302e3563302d31332e382031312e322d60e08201527f32352032352d3235483536386331332e3820302032352031312e3220323520326101008201527f357634393063302031332e382d31312e322032352d3235203235483238392e356101208201527f632d31332e3820302d32352d31312e322d32352d32357a222f3e3c70617468206101408201527f66696c6c3d22234646464646462220643d224d3236352036323463302d31332e6101608201527f382031312e322d32352032352d3235683534336331332e3820302032352031316101808201527f2e322032352032357635362e3563302031332e382d31312e322032352d3235206101a08201527f323548323930632d31332e3820302d32352d31312e322d32352d32357a222f3e6101c08201527f3c706174682066696c6c3d22234646464646462220643d224d30203139302e356101e08201527f63302d31332e382031312e322d32352032352d3235683534336331332e3820306102008201527f2032352031312e322032352032355632343763302031332e382d31312e3220326102208201527f352d3235203235483235632d31332e3820302d32352d31312e322d32352d32356102408201527f7a222f3e3c2f7376673e3c7465787420783d2233302220793d223637302220736102608201526b03a3cb6329e913337b73a1d160a51b6102808201526000611a32613be3613bdd613bb461028c86018861348a565b7f70782073616e732d73657269663b66696c6c3a23666666223e00000000000000815260190190565b8561348a565b6c1e17ba32bc3a1f1e17b9bb339f60991b8152600d0190565b7f646174613a696d6167652f7376672b786d6c3b6261736536342c000000000000815260008251613c3481601a850160208701612c12565b91909101601a0192915050565b683d913730b6b2911d1160b91b81528251600090613c66816009850160208801612c12565b6b1116101134b6b0b3b2911d1160a11b6009918401918201528351613c92816015840160208801612c12565b7f222c20226465736372697074696f6e223a20224b6e6f776c656467654c617965601592909101918201526572204944227d60d01b6035820152603b01949350505050565b7f646174613a6170706c69636174696f6e2f6a736f6e3b6261736536342c000000815260008251613d0f81601d850160208701612c12565b91909101601d0192915050565b60208082526025908201527f4552433732313a207472616e736665722066726f6d20696e636f72726563742060408201526437bbb732b960d91b606082015260800190565b6001600160a01b0385811682528416602082015260408101839052608060608201819052600090613d9490830184612c36565b9695505050505050565b600060208284031215613db057600080fd5b8151610ffd81612bdf56fe4142434445464748494a4b4c4d4e4f505152535455565758595a6162636465666768696a6b6c6d6e6f707172737475767778797a303132333435363738392b2fa2646970667358221220d3daf81c3ebeacc57bb6be24031eb71700f7c032c01d1a732ac26e90b3575d9964736f6c63430008110033",
  "linkReferences": {},
  "deployedLinkReferences": {}
}