{
  "_format": "hh-sol-artifact-1",
  "contractName": "KnowledgeLayerCourse",
  "sourceName": "contracts/KnowledgeLayerCourse.sol",
  "abi": [
    {
      "inputs": [
        {
          "internalType": "address",
          "name": "_knowledgeLayerIdAddress",
          "type": "address"
        }
      ],
      "stateMutability": "nonpayable",
      "type": "constructor"
    },
    {
      "anonymous": false,
      "inputs": [
        {
          "indexed": true,
          "internalType": "address",
          "name": "account",
          "type": "address"
        },
        {
          "indexed": true,
          "internalType": "address",
          "name": "operator",
          "type": "address"
        },
        {
          "indexed": false,
          "internalType": "bool",
          "name": "approved",
          "type": "bool"
        }
      ],
      "name": "ApprovalForAll",
      "type": "event"
    },
    {
      "anonymous": false,
      "inputs": [
        {
          "indexed": true,
          "internalType": "uint256",
          "name": "courseId",
          "type": "uint256"
        },
        {
          "indexed": false,
          "internalType": "uint256",
          "name": "ownerId",
          "type": "uint256"
        },
        {
          "indexed": false,
          "internalType": "uint256",
          "name": "platformId",
          "type": "uint256"
        },
        {
          "indexed": false,
          "internalType": "uint256",
          "name": "price",
          "type": "uint256"
        },
        {
          "indexed": false,
          "internalType": "address",
          "name": "token",
          "type": "address"
        },
        {
          "indexed": false,
          "internalType": "string",
          "name": "dataUri",
          "type": "string"
        }
      ],
      "name": "CourseCreated",
      "type": "event"
    },
    {
      "anonymous": false,
      "inputs": [
        {
          "indexed": true,
          "internalType": "uint256",
          "name": "courseId",
          "type": "uint256"
        },
        {
          "indexed": false,
          "internalType": "uint256",
          "name": "price",
          "type": "uint256"
        },
        {
          "indexed": false,
          "internalType": "address",
          "name": "token",
          "type": "address"
        },
        {
          "indexed": false,
          "internalType": "string",
          "name": "dataUri",
          "type": "string"
        }
      ],
      "name": "CourseUpdated",
      "type": "event"
    },
    {
      "anonymous": false,
      "inputs": [
        {
          "indexed": true,
          "internalType": "bytes32",
          "name": "role",
          "type": "bytes32"
        },
        {
          "indexed": true,
          "internalType": "bytes32",
          "name": "previousAdminRole",
          "type": "bytes32"
        },
        {
          "indexed": true,
          "internalType": "bytes32",
          "name": "newAdminRole",
          "type": "bytes32"
        }
      ],
      "name": "RoleAdminChanged",
      "type": "event"
    },
    {
      "anonymous": false,
      "inputs": [
        {
          "indexed": true,
          "internalType": "bytes32",
          "name": "role",
          "type": "bytes32"
        },
        {
          "indexed": true,
          "internalType": "address",
          "name": "account",
          "type": "address"
        },
        {
          "indexed": true,
          "internalType": "address",
          "name": "sender",
          "type": "address"
        }
      ],
      "name": "RoleGranted",
      "type": "event"
    },
    {
      "anonymous": false,
      "inputs": [
        {
          "indexed": true,
          "internalType": "bytes32",
          "name": "role",
          "type": "bytes32"
        },
        {
          "indexed": true,
          "internalType": "address",
          "name": "account",
          "type": "address"
        },
        {
          "indexed": true,
          "internalType": "address",
          "name": "sender",
          "type": "address"
        }
      ],
      "name": "RoleRevoked",
      "type": "event"
    },
    {
      "anonymous": false,
      "inputs": [
        {
          "indexed": true,
          "internalType": "address",
          "name": "operator",
          "type": "address"
        },
        {
          "indexed": true,
          "internalType": "address",
          "name": "from",
          "type": "address"
        },
        {
          "indexed": true,
          "internalType": "address",
          "name": "to",
          "type": "address"
        },
        {
          "indexed": false,
          "internalType": "uint256[]",
          "name": "ids",
          "type": "uint256[]"
        },
        {
          "indexed": false,
          "internalType": "uint256[]",
          "name": "values",
          "type": "uint256[]"
        }
      ],
      "name": "TransferBatch",
      "type": "event"
    },
    {
      "anonymous": false,
      "inputs": [
        {
          "indexed": true,
          "internalType": "address",
          "name": "operator",
          "type": "address"
        },
        {
          "indexed": true,
          "internalType": "address",
          "name": "from",
          "type": "address"
        },
        {
          "indexed": true,
          "internalType": "address",
          "name": "to",
          "type": "address"
        },
        {
          "indexed": false,
          "internalType": "uint256",
          "name": "id",
          "type": "uint256"
        },
        {
          "indexed": false,
          "internalType": "uint256",
          "name": "value",
          "type": "uint256"
        }
      ],
      "name": "TransferSingle",
      "type": "event"
    },
    {
      "anonymous": false,
      "inputs": [
        {
          "indexed": false,
          "internalType": "string",
          "name": "value",
          "type": "string"
        },
        {
          "indexed": true,
          "internalType": "uint256",
          "name": "id",
          "type": "uint256"
        }
      ],
      "name": "URI",
      "type": "event"
    },
    {
      "inputs": [],
      "name": "DEFAULT_ADMIN_ROLE",
      "outputs": [
        {
          "internalType": "bytes32",
          "name": "",
          "type": "bytes32"
        }
      ],
      "stateMutability": "view",
      "type": "function"
    },
    {
      "inputs": [],
      "name": "ESCROW_ROLE",
      "outputs": [
        {
          "internalType": "bytes32",
          "name": "",
          "type": "bytes32"
        }
      ],
      "stateMutability": "view",
      "type": "function"
    },
    {
      "inputs": [
        {
          "internalType": "address",
          "name": "account",
          "type": "address"
        },
        {
          "internalType": "uint256",
          "name": "id",
          "type": "uint256"
        }
      ],
      "name": "balanceOf",
      "outputs": [
        {
          "internalType": "uint256",
          "name": "",
          "type": "uint256"
        }
      ],
      "stateMutability": "view",
      "type": "function"
    },
    {
      "inputs": [
        {
          "internalType": "address[]",
          "name": "accounts",
          "type": "address[]"
        },
        {
          "internalType": "uint256[]",
          "name": "ids",
          "type": "uint256[]"
        }
      ],
      "name": "balanceOfBatch",
      "outputs": [
        {
          "internalType": "uint256[]",
          "name": "",
          "type": "uint256[]"
        }
      ],
      "stateMutability": "view",
      "type": "function"
    },
    {
      "inputs": [
        {
          "internalType": "uint256",
          "name": "_profileId",
          "type": "uint256"
        },
        {
          "internalType": "uint256",
          "name": "_courseId",
          "type": "uint256"
        }
      ],
      "name": "buyCourse",
      "outputs": [],
      "stateMutability": "nonpayable",
      "type": "function"
    },
    {
      "inputs": [
        {
          "internalType": "uint256",
          "name": "",
          "type": "uint256"
        }
      ],
      "name": "courses",
      "outputs": [
        {
          "internalType": "uint256",
          "name": "ownerId",
          "type": "uint256"
        },
        {
          "internalType": "uint256",
          "name": "platformId",
          "type": "uint256"
        },
        {
          "internalType": "uint256",
          "name": "price",
          "type": "uint256"
        },
        {
          "internalType": "address",
          "name": "token",
          "type": "address"
        },
        {
          "internalType": "string",
          "name": "dataUri",
          "type": "string"
        }
      ],
      "stateMutability": "view",
      "type": "function"
    },
    {
      "inputs": [
        {
          "internalType": "uint256",
          "name": "_profileId",
          "type": "uint256"
        },
        {
          "internalType": "uint256",
          "name": "_platformId",
          "type": "uint256"
        },
        {
          "internalType": "uint256",
          "name": "_price",
          "type": "uint256"
        },
        {
          "internalType": "address",
          "name": "_token",
          "type": "address"
        },
        {
          "internalType": "string",
          "name": "_dataUri",
          "type": "string"
        }
      ],
      "name": "createCourse",
      "outputs": [],
      "stateMutability": "nonpayable",
      "type": "function"
    },
    {
      "inputs": [
        {
          "internalType": "uint256",
          "name": "_courseId",
          "type": "uint256"
        }
      ],
      "name": "getCourse",
      "outputs": [
        {
          "components": [
            {
              "internalType": "uint256",
              "name": "ownerId",
              "type": "uint256"
            },
            {
              "internalType": "uint256",
              "name": "platformId",
              "type": "uint256"
            },
            {
              "internalType": "uint256",
              "name": "price",
              "type": "uint256"
            },
            {
              "internalType": "address",
              "name": "token",
              "type": "address"
            },
            {
              "internalType": "string",
              "name": "dataUri",
              "type": "string"
            }
          ],
          "internalType": "struct KnowledgeLayerCourse.Course",
          "name": "",
          "type": "tuple"
        }
      ],
      "stateMutability": "view",
      "type": "function"
    },
    {
      "inputs": [
        {
          "internalType": "bytes32",
          "name": "role",
          "type": "bytes32"
        }
      ],
      "name": "getRoleAdmin",
      "outputs": [
        {
          "internalType": "bytes32",
          "name": "",
          "type": "bytes32"
        }
      ],
      "stateMutability": "view",
      "type": "function"
    },
    {
      "inputs": [
        {
          "internalType": "bytes32",
          "name": "role",
          "type": "bytes32"
        },
        {
          "internalType": "address",
          "name": "account",
          "type": "address"
        }
      ],
      "name": "grantRole",
      "outputs": [],
      "stateMutability": "nonpayable",
      "type": "function"
    },
    {
      "inputs": [
        {
          "internalType": "bytes32",
          "name": "role",
          "type": "bytes32"
        },
        {
          "internalType": "address",
          "name": "account",
          "type": "address"
        }
      ],
      "name": "hasRole",
      "outputs": [
        {
          "internalType": "bool",
          "name": "",
          "type": "bool"
        }
      ],
      "stateMutability": "view",
      "type": "function"
    },
    {
      "inputs": [
        {
          "internalType": "address",
          "name": "account",
          "type": "address"
        },
        {
          "internalType": "address",
          "name": "operator",
          "type": "address"
        }
      ],
      "name": "isApprovedForAll",
      "outputs": [
        {
          "internalType": "bool",
          "name": "",
          "type": "bool"
        }
      ],
      "stateMutability": "view",
      "type": "function"
    },
    {
      "inputs": [
        {
          "internalType": "bytes32",
          "name": "role",
          "type": "bytes32"
        },
        {
          "internalType": "address",
          "name": "account",
          "type": "address"
        }
      ],
      "name": "renounceRole",
      "outputs": [],
      "stateMutability": "nonpayable",
      "type": "function"
    },
    {
      "inputs": [
        {
          "internalType": "bytes32",
          "name": "role",
          "type": "bytes32"
        },
        {
          "internalType": "address",
          "name": "account",
          "type": "address"
        }
      ],
      "name": "revokeRole",
      "outputs": [],
      "stateMutability": "nonpayable",
      "type": "function"
    },
    {
      "inputs": [
        {
          "internalType": "address",
          "name": "",
          "type": "address"
        },
        {
          "internalType": "address",
          "name": "",
          "type": "address"
        },
        {
          "internalType": "uint256[]",
          "name": "",
          "type": "uint256[]"
        },
        {
          "internalType": "uint256[]",
          "name": "",
          "type": "uint256[]"
        },
        {
          "internalType": "bytes",
          "name": "",
          "type": "bytes"
        }
      ],
      "name": "safeBatchTransferFrom",
      "outputs": [],
      "stateMutability": "nonpayable",
      "type": "function"
    },
    {
      "inputs": [
        {
          "internalType": "address",
          "name": "",
          "type": "address"
        },
        {
          "internalType": "address",
          "name": "",
          "type": "address"
        },
        {
          "internalType": "uint256",
          "name": "",
          "type": "uint256"
        },
        {
          "internalType": "uint256",
          "name": "",
          "type": "uint256"
        },
        {
          "internalType": "bytes",
          "name": "",
          "type": "bytes"
        }
      ],
      "name": "safeTransferFrom",
      "outputs": [],
      "stateMutability": "nonpayable",
      "type": "function"
    },
    {
      "inputs": [
        {
          "internalType": "address",
          "name": "operator",
          "type": "address"
        },
        {
          "internalType": "bool",
          "name": "approved",
          "type": "bool"
        }
      ],
      "name": "setApprovalForAll",
      "outputs": [],
      "stateMutability": "nonpayable",
      "type": "function"
    },
    {
      "inputs": [
        {
          "internalType": "bytes4",
          "name": "interfaceId",
          "type": "bytes4"
        }
      ],
      "name": "supportsInterface",
      "outputs": [
        {
          "internalType": "bool",
          "name": "",
          "type": "bool"
        }
      ],
      "stateMutability": "view",
      "type": "function"
    },
    {
      "inputs": [
        {
          "internalType": "uint256",
          "name": "_profileId",
          "type": "uint256"
        },
        {
          "internalType": "uint256",
          "name": "_courseId",
          "type": "uint256"
        },
        {
          "internalType": "uint256",
          "name": "_price",
          "type": "uint256"
        },
        {
          "internalType": "address",
          "name": "_token",
          "type": "address"
        },
        {
          "internalType": "string",
          "name": "_dataUri",
          "type": "string"
        }
      ],
      "name": "updateCourse",
      "outputs": [],
      "stateMutability": "nonpayable",
      "type": "function"
    },
    {
      "inputs": [
        {
          "internalType": "uint256",
          "name": "",
          "type": "uint256"
        }
      ],
      "name": "uri",
      "outputs": [
        {
          "internalType": "string",
          "name": "",
          "type": "string"
        }
      ],
      "stateMutability": "view",
      "type": "function"
    }
  ],
  "bytecode": "0x60806040523480156200001157600080fd5b506040516200219938038062002199833981016040819052620000349162000161565b6040805160208101909152600081526200004e8162000096565b506200005c600033620000a8565b600680546001600160a01b0319166001600160a01b0383161790556200008f6005620000b4602090811b62000d1217901c565b5062000304565b6002620000a4828262000238565b5050565b620000a48282620000bd565b80546001019055565b60008281526003602090815260408083206001600160a01b038516845290915290205460ff16620000a45760008281526003602090815260408083206001600160a01b03851684529091529020805460ff191660011790556200011d3390565b6001600160a01b0316816001600160a01b0316837f2f8788117e7eff1d82e926ec794901d17c78024a50270940304540a733656f0d60405160405180910390a45050565b6000602082840312156200017457600080fd5b81516001600160a01b03811681146200018c57600080fd5b9392505050565b634e487b7160e01b600052604160045260246000fd5b600181811c90821680620001be57607f821691505b602082108103620001df57634e487b7160e01b600052602260045260246000fd5b50919050565b601f8211156200023357600081815260208120601f850160051c810160208610156200020e5750805b601f850160051c820191505b818110156200022f578281556001016200021a565b5050505b505050565b81516001600160401b0381111562000254576200025462000193565b6200026c81620002658454620001a9565b84620001e5565b602080601f831160018114620002a457600084156200028b5750858301515b600019600386901b1c1916600185901b1785556200022f565b600085815260208120601f198616915b82811015620002d557888601518255948401946001909101908401620002b4565b5085821015620002f45787850151600019600388901b60f8161c191681555b5050505050600190811b01905550565b611e8580620003146000396000f3fe608060405234801561001057600080fd5b506004361061012b5760003560e01c80636ce76f30116100ad578063a22cb46511610071578063a22cb465146102c3578063d547741f146102d6578063e6194369146102e9578063e985e9c5146102fc578063f242432a1461033857600080fd5b80636ce76f301461024a57806391d148541461027157806396f979d21461028457806399dbff01146102a8578063a217fddf146102bb57600080fd5b80632eb2c2d6116100f45780632eb2c2d6146101dc5780632f2ff15d146101f157806334ba6ea81461020457806336568abe146102175780634e1273f41461022a57600080fd5b8062fdd58e1461013057806301ffc9a7146101565780630b91e28d146101795780630e89341c14610199578063248a9ca3146101b9575b600080fd5b61014361013e366004611490565b610346565b6040519081526020015b60405180910390f35b6101696101643660046114d2565b6103df565b604051901515815260200161014d565b61018c6101873660046114ef565b6103f9565b60405161014d9190611558565b6101ac6101a73660046114ef565b610562565b60405161014d91906115ab565b6101436101c73660046114ef565b60009081526003602052604090206001015490565b6101ef6101ea366004611714565b6105f6565b005b6101ef6101ff3660046117c2565b61063e565b6101ef6102123660046117f2565b610668565b6101ef6102253660046117c2565b6107f5565b61023d610238366004611866565b610873565b60405161014d9190611933565b6101437f2fdac322ee704ce09f0773f7f3f92eb98d5e7c836ee9c056cccd5f61041e5e3f81565b61016961027f3660046117c2565b61099d565b6102976102923660046114ef565b6109c8565b60405161014d959493929190611977565b6101ef6102b63660046119b5565b610a8d565b610143600081565b6101ef6102d13660046119e5565b610b49565b6101ef6102e43660046117c2565b610b54565b6101ef6102f73660046117f2565b610b79565b61016961030a366004611a13565b6001600160a01b03918216600090815260016020908152604080832093909416825291909152205460ff1690565b6101ef6101ea366004611a41565b60006001600160a01b0383166103b65760405162461bcd60e51b815260206004820152602a60248201527f455243313135353a2061646472657373207a65726f206973206e6f742061207660448201526930b634b21037bbb732b960b11b60648201526084015b60405180910390fd5b506000818152602081815260408083206001600160a01b03861684529091529020545b92915050565b60006103ea82610d1b565b806103d957506103d982610d6b565b6104346040518060a0016040528060008152602001600081526020016000815260200160006001600160a01b03168152602001606081525090565b60055482106104795760405162461bcd60e51b8152602060048201526011602482015270125b9d985b1a590818dbdd5c9cd9481251607a1b60448201526064016103ad565b600082815260046020818152604092839020835160a0810185528154815260018201549281019290925260028101549382019390935260038301546001600160a01b0316606082015290820180549192916080840191906104d990611aaa565b80601f016020809104026020016040519081016040528092919081815260200182805461050590611aaa565b80156105525780601f1061052757610100808354040283529160200191610552565b820191906000526020600020905b81548152906001019060200180831161053557829003601f168201915b5050505050815250509050919050565b60606002805461057190611aaa565b80601f016020809104026020016040519081016040528092919081815260200182805461059d90611aaa565b80156105ea5780601f106105bf576101008083540402835291602001916105ea565b820191906000526020600020905b8154815290600101906020018083116105cd57829003601f168201915b50505050509050919050565b60405162461bcd60e51b815260206004820152601d60248201527f546f6b656e207472616e73666572206973206e6f7420616c6c6f77656400000060448201526064016103ad565b60008281526003602052604090206001015461065981610d90565b6106638383610d9d565b505050565b60065485906001600160a01b0316632fa117e582336040516001600160e01b031960e085901b16815260048101929092526001600160a01b03166024820152604401602060405180830381865afa1580156106c7573d6000803e3d6000fd5b505050506040513d601f19601f820116820180604052508101906106eb9190611ae4565b61072f5760405162461bcd60e51b81526020600482015260156024820152744e6f74206f776e6572206f722064656c656761746560581b60448201526064016103ad565b60008581526004602052604090208054871461077d5760405162461bcd60e51b815260206004820152600d60248201526c2737ba103a34329037bbb732b960991b60448201526064016103ad565b600281018590556003810180546001600160a01b0319166001600160a01b038616179055600481016107af8482611b47565b50857f0e51a51c5f732afe9d8dda86036d0588de49fc5334205793a2a84a6ceb5ef7da8686866040516107e493929190611c07565b60405180910390a250505050505050565b6001600160a01b03811633146108655760405162461bcd60e51b815260206004820152602f60248201527f416363657373436f6e74726f6c3a2063616e206f6e6c792072656e6f756e636560448201526e103937b632b9903337b91039b2b63360891b60648201526084016103ad565b61086f8282610e23565b5050565b606081518351146108d85760405162461bcd60e51b815260206004820152602960248201527f455243313135353a206163636f756e747320616e6420696473206c656e677468604482015268040dad2e6dac2e8c6d60bb1b60648201526084016103ad565b6000835167ffffffffffffffff8111156108f4576108f46115be565b60405190808252806020026020018201604052801561091d578160200160208202803683370190505b50905060005b84518110156109955761096885828151811061094157610941611c3a565b602002602001015185838151811061095b5761095b611c3a565b6020026020010151610346565b82828151811061097a5761097a611c3a565b602090810291909101015261098e81611c66565b9050610923565b509392505050565b60009182526003602090815260408084206001600160a01b0393909316845291905290205460ff1690565b6004602081905260009182526040909120805460018201546002830154600384015494840180549395929491936001600160a01b0390931692610a0a90611aaa565b80601f0160208091040260200160405190810160405280929190818152602001828054610a3690611aaa565b8015610a835780601f10610a5857610100808354040283529160200191610a83565b820191906000526020600020905b815481529060010190602001808311610a6657829003601f168201915b5050505050905085565b7f2fdac322ee704ce09f0773f7f3f92eb98d5e7c836ee9c056cccd5f61041e5e3f610ab781610d90565b6006546040516331a9108f60e11b8152600481018590526000916001600160a01b031690636352211e90602401602060405180830381865afa158015610b01573d6000803e3d6000fd5b505050506040513d601f19601f82011682018060405250810190610b259190611c7f565b9050610b438184600160405180602001604052806000815250610e8a565b50505050565b61086f338383610f9e565b600082815260036020526040902060010154610b6f81610d90565b6106638383610e23565b60065485906001600160a01b0316632fa117e582336040516001600160e01b031960e085901b16815260048101929092526001600160a01b03166024820152604401602060405180830381865afa158015610bd8573d6000803e3d6000fd5b505050506040513d601f19601f82011682018060405250810190610bfc9190611ae4565b610c405760405162461bcd60e51b81526020600482015260156024820152744e6f74206f776e6572206f722064656c656761746560581b60448201526064016103ad565b6000610c4b60055490565b6040805160a08101825289815260208082018a81528284018a81526001600160a01b038a811660608601908152608086018b815260008981526004968790529790972086518155935160018501559151600284015590516003830180546001600160a01b031916919092161790559251939450909290820190610cce9082611b47565b505060058054600101905550807f3a8fd0fe37a8c321d641651e868e7beb96ff207804b33e764a2a26b692110c6e88888888886040516107e4959493929190611977565b80546001019055565b60006001600160e01b03198216636cdb3d1360e11b1480610d4c57506001600160e01b031982166303a24d0760e21b145b806103d957506301ffc9a760e01b6001600160e01b03198316146103d9565b60006001600160e01b03198216637965db0b60e01b14806103d957506103d982610d1b565b610d9a813361107e565b50565b610da7828261099d565b61086f5760008281526003602090815260408083206001600160a01b03851684529091529020805460ff19166001179055610ddf3390565b6001600160a01b0316816001600160a01b0316837f2f8788117e7eff1d82e926ec794901d17c78024a50270940304540a733656f0d60405160405180910390a45050565b610e2d828261099d565b1561086f5760008281526003602090815260408083206001600160a01b0385168085529252808320805460ff1916905551339285917ff6391f5c32d9c69d2a47ea670b442974b53935d1edc7fd64eb21e047a839171b9190a45050565b6001600160a01b038416610eea5760405162461bcd60e51b815260206004820152602160248201527f455243313135353a206d696e7420746f20746865207a65726f206164647265736044820152607360f81b60648201526084016103ad565b336000610ef6856110d7565b90506000610f03856110d7565b90506000868152602081815260408083206001600160a01b038b16845290915281208054879290610f35908490611c9c565b909155505060408051878152602081018790526001600160a01b03808a1692600092918716917fc3d58168c5ae7397731d063d5bbf3d657854427343f4c083240f7aacaa2d0f62910160405180910390a4610f958360008989898961112a565b50505050505050565b816001600160a01b0316836001600160a01b0316036110115760405162461bcd60e51b815260206004820152602960248201527f455243313135353a2073657474696e6720617070726f76616c20737461747573604482015268103337b91039b2b63360b91b60648201526084016103ad565b6001600160a01b03838116600081815260016020908152604080832094871680845294825291829020805460ff191686151590811790915591519182527f17307eab39ab6107e8899845ad3d59bd9653f200f220920489ca2b5937696c31910160405180910390a3505050565b611088828261099d565b61086f57611095816112c6565b6110a08360206112d8565b6040516020016110b1929190611caf565b60408051601f198184030181529082905262461bcd60e51b82526103ad916004016115ab565b6040805160018082528183019092526060916000919060208083019080368337019050509050828160008151811061111157611111611c3a565b602090810291909101015292915050565b505050505050565b6001600160a01b0384163b156111225760405163f23a6e6160e01b81526001600160a01b0385169063f23a6e619061116e9089908990889088908890600401611d24565b6020604051808303816000875af19250505080156111a9575060408051601f3d908101601f191682019092526111a691810190611d5e565b60015b611255576111b5611d7b565b806308c379a0036111ee57506111c9611d97565b806111d457506111f0565b8060405162461bcd60e51b81526004016103ad91906115ab565b505b60405162461bcd60e51b815260206004820152603460248201527f455243313135353a207472616e7366657220746f206e6f6e2d455243313135356044820152732932b1b2b4bb32b91034b6b83632b6b2b73a32b960611b60648201526084016103ad565b6001600160e01b0319811663f23a6e6160e01b14610f955760405162461bcd60e51b815260206004820152602860248201527f455243313135353a204552433131353552656365697665722072656a656374656044820152676420746f6b656e7360c01b60648201526084016103ad565b60606103d96001600160a01b03831660145b606060006112e7836002611e21565b6112f2906002611c9c565b67ffffffffffffffff81111561130a5761130a6115be565b6040519080825280601f01601f191660200182016040528015611334576020820181803683370190505b509050600360fc1b8160008151811061134f5761134f611c3a565b60200101906001600160f81b031916908160001a905350600f60fb1b8160018151811061137e5761137e611c3a565b60200101906001600160f81b031916908160001a90535060006113a2846002611e21565b6113ad906001611c9c565b90505b6001811115611425576f181899199a1a9b1b9c1cb0b131b232b360811b85600f16601081106113e1576113e1611c3a565b1a60f81b8282815181106113f7576113f7611c3a565b60200101906001600160f81b031916908160001a90535060049490941c9361141e81611e38565b90506113b0565b5083156114745760405162461bcd60e51b815260206004820181905260248201527f537472696e67733a20686578206c656e67746820696e73756666696369656e7460448201526064016103ad565b9392505050565b6001600160a01b0381168114610d9a57600080fd5b600080604083850312156114a357600080fd5b82356114ae8161147b565b946020939093013593505050565b6001600160e01b031981168114610d9a57600080fd5b6000602082840312156114e457600080fd5b8135611474816114bc565b60006020828403121561150157600080fd5b5035919050565b60005b8381101561152357818101518382015260200161150b565b50506000910152565b60008151808452611544816020860160208601611508565b601f01601f19169290920160200192915050565b6020815281516020820152602082015160408201526040820151606082015260018060a01b0360608301511660808201526000608083015160a0808401526115a360c084018261152c565b949350505050565b602081526000611474602083018461152c565b634e487b7160e01b600052604160045260246000fd5b601f8201601f1916810167ffffffffffffffff811182821017156115fa576115fa6115be565b6040525050565b600067ffffffffffffffff82111561161b5761161b6115be565b5060051b60200190565b600082601f83011261163657600080fd5b8135602061164382611601565b60405161165082826115d4565b83815260059390931b850182019282810191508684111561167057600080fd5b8286015b8481101561168b5780358352918301918301611674565b509695505050505050565b600067ffffffffffffffff8311156116b0576116b06115be565b6040516116c7601f8501601f1916602001826115d4565b8091508381528484840111156116dc57600080fd5b83836020830137600060208583010152509392505050565b600082601f83011261170557600080fd5b61147483833560208501611696565b600080600080600060a0868803121561172c57600080fd5b85356117378161147b565b945060208601356117478161147b565b9350604086013567ffffffffffffffff8082111561176457600080fd5b61177089838a01611625565b9450606088013591508082111561178657600080fd5b61179289838a01611625565b935060808801359150808211156117a857600080fd5b506117b5888289016116f4565b9150509295509295909350565b600080604083850312156117d557600080fd5b8235915060208301356117e78161147b565b809150509250929050565b600080600080600060a0868803121561180a57600080fd5b853594506020860135935060408601359250606086013561182a8161147b565b9150608086013567ffffffffffffffff81111561184657600080fd5b8601601f8101881361185757600080fd5b6117b588823560208401611696565b6000806040838503121561187957600080fd5b823567ffffffffffffffff8082111561189157600080fd5b818501915085601f8301126118a557600080fd5b813560206118b282611601565b6040516118bf82826115d4565b83815260059390931b85018201928281019150898411156118df57600080fd5b948201945b838610156119065785356118f78161147b565b825294820194908201906118e4565b9650508601359250508082111561191c57600080fd5b5061192985828601611625565b9150509250929050565b6020808252825182820181905260009190848201906040850190845b8181101561196b5783518352928401929184019160010161194f565b50909695505050505050565b85815284602082015283604082015260018060a01b038316606082015260a0608082015260006119aa60a083018461152c565b979650505050505050565b600080604083850312156119c857600080fd5b50508035926020909101359150565b8015158114610d9a57600080fd5b600080604083850312156119f857600080fd5b8235611a038161147b565b915060208301356117e7816119d7565b60008060408385031215611a2657600080fd5b8235611a318161147b565b915060208301356117e78161147b565b600080600080600060a08688031215611a5957600080fd5b8535611a648161147b565b94506020860135611a748161147b565b93506040860135925060608601359150608086013567ffffffffffffffff811115611a9e57600080fd5b6117b5888289016116f4565b600181811c90821680611abe57607f821691505b602082108103611ade57634e487b7160e01b600052602260045260246000fd5b50919050565b600060208284031215611af657600080fd5b8151611474816119d7565b601f82111561066357600081815260208120601f850160051c81016020861015611b285750805b601f850160051c820191505b8181101561112257828155600101611b34565b815167ffffffffffffffff811115611b6157611b616115be565b611b7581611b6f8454611aaa565b84611b01565b602080601f831160018114611baa5760008415611b925750858301515b600019600386901b1c1916600185901b178555611122565b600085815260208120601f198616915b82811015611bd957888601518255948401946001909101908401611bba565b5085821015611bf75787850151600019600388901b60f8161c191681555b5050505050600190811b01905550565b8381526001600160a01b0383166020820152606060408201819052600090611c319083018461152c565b95945050505050565b634e487b7160e01b600052603260045260246000fd5b634e487b7160e01b600052601160045260246000fd5b600060018201611c7857611c78611c50565b5060010190565b600060208284031215611c9157600080fd5b81516114748161147b565b808201808211156103d9576103d9611c50565b7f416363657373436f6e74726f6c3a206163636f756e7420000000000000000000815260008351611ce7816017850160208801611508565b7001034b99036b4b9b9b4b733903937b6329607d1b6017918401918201528351611d18816028840160208801611508565b01602801949350505050565b6001600160a01b03868116825285166020820152604081018490526060810183905260a0608082018190526000906119aa9083018461152c565b600060208284031215611d7057600080fd5b8151611474816114bc565b600060033d1115611d945760046000803e5060005160e01c5b90565b600060443d1015611da55790565b6040516003193d81016004833e81513d67ffffffffffffffff8160248401118184111715611dd557505050505090565b8285019150815181811115611ded5750505050505090565b843d8701016020828501011115611e075750505050505090565b611e16602082860101876115d4565b509095945050505050565b80820281158282048414176103d9576103d9611c50565b600081611e4757611e47611c50565b50600019019056fea264697066735822122085ba6b076d34373adb4b4d9ecc11c73d4418b45bec4d159a00eca6f2b947458664736f6c63430008110033",
  "linkReferences": {},
  "deployedLinkReferences": {}
}