{
  "_format": "hh-sol-artifact-1",
  "contractName": "KnowledgeLayerPlatformID",
  "sourceName": "contracts/KnowledgeLayerPlatformID.sol",
  "abi": [
    {
      "inputs": [],
      "stateMutability": "nonpayable",
      "type": "constructor"
    },
    {
      "inputs": [],
      "name": "HandleContainsInvalidCharacters",
      "type": "error"
    },
    {
      "inputs": [],
      "name": "HandleFirstCharInvalid",
      "type": "error"
    },
    {
      "inputs": [],
      "name": "HandleLengthInvalid",
      "type": "error"
    },
    {
      "anonymous": false,
      "inputs": [
        {
          "indexed": true,
          "internalType": "address",
          "name": "owner",
          "type": "address"
        },
        {
          "indexed": true,
          "internalType": "address",
          "name": "approved",
          "type": "address"
        },
        {
          "indexed": true,
          "internalType": "uint256",
          "name": "tokenId",
          "type": "uint256"
        }
      ],
      "name": "Approval",
      "type": "event"
    },
    {
      "anonymous": false,
      "inputs": [
        {
          "indexed": true,
          "internalType": "address",
          "name": "owner",
          "type": "address"
        },
        {
          "indexed": true,
          "internalType": "address",
          "name": "operator",
          "type": "address"
        },
        {
          "indexed": false,
          "internalType": "bool",
          "name": "approved",
          "type": "bool"
        }
      ],
      "name": "ApprovalForAll",
      "type": "event"
    },
    {
      "anonymous": false,
      "inputs": [
        {
          "indexed": false,
          "internalType": "uint256",
          "name": "platformId",
          "type": "uint256"
        },
        {
          "indexed": false,
          "internalType": "uint16",
          "name": "buyFee",
          "type": "uint16"
        }
      ],
      "name": "BuyFeeUpdated",
      "type": "event"
    },
    {
      "anonymous": false,
      "inputs": [
        {
          "indexed": true,
          "internalType": "uint256",
          "name": "platformId",
          "type": "uint256"
        },
        {
          "indexed": false,
          "internalType": "string",
          "name": "newCid",
          "type": "string"
        }
      ],
      "name": "CidUpdated",
      "type": "event"
    },
    {
      "anonymous": false,
      "inputs": [
        {
          "indexed": true,
          "internalType": "address",
          "name": "platformOwnerAddress",
          "type": "address"
        },
        {
          "indexed": false,
          "internalType": "uint256",
          "name": "platformId",
          "type": "uint256"
        },
        {
          "indexed": false,
          "internalType": "string",
          "name": "platformName",
          "type": "string"
        },
        {
          "indexed": false,
          "internalType": "uint256",
          "name": "fee",
          "type": "uint256"
        }
      ],
      "name": "Mint",
      "type": "event"
    },
    {
      "anonymous": false,
      "inputs": [
        {
          "indexed": false,
          "internalType": "uint256",
          "name": "mintFee",
          "type": "uint256"
        }
      ],
      "name": "MintFeeUpdated",
      "type": "event"
    },
    {
      "anonymous": false,
      "inputs": [
        {
          "indexed": false,
          "internalType": "enum KnowledgeLayerPlatformID.MintStatus",
          "name": "mintStatus",
          "type": "uint8"
        }
      ],
      "name": "MintStatusUpdated",
      "type": "event"
    },
    {
      "anonymous": false,
      "inputs": [
        {
          "indexed": false,
          "internalType": "uint256",
          "name": "platformId",
          "type": "uint256"
        },
        {
          "indexed": false,
          "internalType": "uint16",
          "name": "originFee",
          "type": "uint16"
        }
      ],
      "name": "OriginFeeUpdated",
      "type": "event"
    },
    {
      "anonymous": false,
      "inputs": [
        {
          "indexed": false,
          "internalType": "uint256",
          "name": "platformId",
          "type": "uint256"
        },
        {
          "indexed": false,
          "internalType": "uint256",
          "name": "postingFee",
          "type": "uint256"
        }
      ],
      "name": "PostingFeeUpdated",
      "type": "event"
    },
    {
      "anonymous": false,
      "inputs": [
        {
          "indexed": true,
          "internalType": "bytes32",
          "name": "role",
          "type": "bytes32"
        },
        {
          "indexed": true,
          "internalType": "bytes32",
          "name": "previousAdminRole",
          "type": "bytes32"
        },
        {
          "indexed": true,
          "internalType": "bytes32",
          "name": "newAdminRole",
          "type": "bytes32"
        }
      ],
      "name": "RoleAdminChanged",
      "type": "event"
    },
    {
      "anonymous": false,
      "inputs": [
        {
          "indexed": true,
          "internalType": "bytes32",
          "name": "role",
          "type": "bytes32"
        },
        {
          "indexed": true,
          "internalType": "address",
          "name": "account",
          "type": "address"
        },
        {
          "indexed": true,
          "internalType": "address",
          "name": "sender",
          "type": "address"
        }
      ],
      "name": "RoleGranted",
      "type": "event"
    },
    {
      "anonymous": false,
      "inputs": [
        {
          "indexed": true,
          "internalType": "bytes32",
          "name": "role",
          "type": "bytes32"
        },
        {
          "indexed": true,
          "internalType": "address",
          "name": "account",
          "type": "address"
        },
        {
          "indexed": true,
          "internalType": "address",
          "name": "sender",
          "type": "address"
        }
      ],
      "name": "RoleRevoked",
      "type": "event"
    },
    {
      "anonymous": false,
      "inputs": [
        {
          "indexed": false,
          "internalType": "uint256",
          "name": "platformId",
          "type": "uint256"
        },
        {
          "indexed": false,
          "internalType": "address",
          "name": "signer",
          "type": "address"
        }
      ],
      "name": "SignerUpdated",
      "type": "event"
    },
    {
      "anonymous": false,
      "inputs": [
        {
          "indexed": true,
          "internalType": "address",
          "name": "from",
          "type": "address"
        },
        {
          "indexed": true,
          "internalType": "address",
          "name": "to",
          "type": "address"
        },
        {
          "indexed": true,
          "internalType": "uint256",
          "name": "tokenId",
          "type": "uint256"
        }
      ],
      "name": "Transfer",
      "type": "event"
    },
    {
      "anonymous": false,
      "inputs": [
        {
          "indexed": true,
          "internalType": "address",
          "name": "user",
          "type": "address"
        }
      ],
      "name": "UserWhitelisted",
      "type": "event"
    },
    {
      "inputs": [],
      "name": "DEFAULT_ADMIN_ROLE",
      "outputs": [
        {
          "internalType": "bytes32",
          "name": "",
          "type": "bytes32"
        }
      ],
      "stateMutability": "view",
      "type": "function"
    },
    {
      "inputs": [],
      "name": "MINT_ROLE",
      "outputs": [
        {
          "internalType": "bytes32",
          "name": "",
          "type": "bytes32"
        }
      ],
      "stateMutability": "view",
      "type": "function"
    },
    {
      "inputs": [
        {
          "internalType": "address",
          "name": "to",
          "type": "address"
        },
        {
          "internalType": "uint256",
          "name": "tokenId",
          "type": "uint256"
        }
      ],
      "name": "approve",
      "outputs": [],
      "stateMutability": "nonpayable",
      "type": "function"
    },
    {
      "inputs": [
        {
          "internalType": "address",
          "name": "owner",
          "type": "address"
        }
      ],
      "name": "balanceOf",
      "outputs": [
        {
          "internalType": "uint256",
          "name": "",
          "type": "uint256"
        }
      ],
      "stateMutability": "view",
      "type": "function"
    },
    {
      "inputs": [
        {
          "internalType": "uint256",
          "name": "tokenId",
          "type": "uint256"
        }
      ],
      "name": "getApproved",
      "outputs": [
        {
          "internalType": "address",
          "name": "",
          "type": "address"
        }
      ],
      "stateMutability": "view",
      "type": "function"
    },
    {
      "inputs": [
        {
          "internalType": "uint256",
          "name": "_platformId",
          "type": "uint256"
        }
      ],
      "name": "getBuyFee",
      "outputs": [
        {
          "internalType": "uint16",
          "name": "",
          "type": "uint16"
        }
      ],
      "stateMutability": "view",
      "type": "function"
    },
    {
      "inputs": [
        {
          "internalType": "uint256",
          "name": "_platformId",
          "type": "uint256"
        }
      ],
      "name": "getOriginFee",
      "outputs": [
        {
          "internalType": "uint16",
          "name": "",
          "type": "uint16"
        }
      ],
      "stateMutability": "view",
      "type": "function"
    },
    {
      "inputs": [
        {
          "internalType": "uint256",
          "name": "_platformId",
          "type": "uint256"
        }
      ],
      "name": "getPlatform",
      "outputs": [
        {
          "components": [
            {
              "internalType": "uint256",
              "name": "id",
              "type": "uint256"
            },
            {
              "internalType": "string",
              "name": "name",
              "type": "string"
            },
            {
              "internalType": "string",
              "name": "dataUri",
              "type": "string"
            },
            {
              "internalType": "uint16",
              "name": "originFee",
              "type": "uint16"
            },
            {
              "internalType": "uint16",
              "name": "buyFee",
              "type": "uint16"
            },
            {
              "internalType": "uint256",
              "name": "postingFee",
              "type": "uint256"
            },
            {
              "internalType": "address",
              "name": "signer",
              "type": "address"
            }
          ],
          "internalType": "struct KnowledgeLayerPlatformID.Platform",
          "name": "",
          "type": "tuple"
        }
      ],
      "stateMutability": "view",
      "type": "function"
    },
    {
      "inputs": [
        {
          "internalType": "uint256",
          "name": "_platformId",
          "type": "uint256"
        }
      ],
      "name": "getPostingFee",
      "outputs": [
        {
          "internalType": "uint256",
          "name": "",
          "type": "uint256"
        }
      ],
      "stateMutability": "view",
      "type": "function"
    },
    {
      "inputs": [
        {
          "internalType": "bytes32",
          "name": "role",
          "type": "bytes32"
        }
      ],
      "name": "getRoleAdmin",
      "outputs": [
        {
          "internalType": "bytes32",
          "name": "",
          "type": "bytes32"
        }
      ],
      "stateMutability": "view",
      "type": "function"
    },
    {
      "inputs": [
        {
          "internalType": "uint256",
          "name": "_platformId",
          "type": "uint256"
        }
      ],
      "name": "getSigner",
      "outputs": [
        {
          "internalType": "address",
          "name": "",
          "type": "address"
        }
      ],
      "stateMutability": "view",
      "type": "function"
    },
    {
      "inputs": [
        {
          "internalType": "bytes32",
          "name": "role",
          "type": "bytes32"
        },
        {
          "internalType": "address",
          "name": "account",
          "type": "address"
        }
      ],
      "name": "grantRole",
      "outputs": [],
      "stateMutability": "nonpayable",
      "type": "function"
    },
    {
      "inputs": [
        {
          "internalType": "bytes32",
          "name": "role",
          "type": "bytes32"
        },
        {
          "internalType": "address",
          "name": "account",
          "type": "address"
        }
      ],
      "name": "hasRole",
      "outputs": [
        {
          "internalType": "bool",
          "name": "",
          "type": "bool"
        }
      ],
      "stateMutability": "view",
      "type": "function"
    },
    {
      "inputs": [
        {
          "internalType": "address",
          "name": "",
          "type": "address"
        }
      ],
      "name": "ids",
      "outputs": [
        {
          "internalType": "uint256",
          "name": "",
          "type": "uint256"
        }
      ],
      "stateMutability": "view",
      "type": "function"
    },
    {
      "inputs": [
        {
          "internalType": "address",
          "name": "owner",
          "type": "address"
        },
        {
          "internalType": "address",
          "name": "operator",
          "type": "address"
        }
      ],
      "name": "isApprovedForAll",
      "outputs": [
        {
          "internalType": "bool",
          "name": "",
          "type": "bool"
        }
      ],
      "stateMutability": "view",
      "type": "function"
    },
    {
      "inputs": [
        {
          "internalType": "uint256",
          "name": "_platformId",
          "type": "uint256"
        }
      ],
      "name": "isValid",
      "outputs": [],
      "stateMutability": "view",
      "type": "function"
    },
    {
      "inputs": [
        {
          "internalType": "string",
          "name": "_platformName",
          "type": "string"
        }
      ],
      "name": "mint",
      "outputs": [
        {
          "internalType": "uint256",
          "name": "",
          "type": "uint256"
        }
      ],
      "stateMutability": "payable",
      "type": "function"
    },
    {
      "inputs": [],
      "name": "mintFee",
      "outputs": [
        {
          "internalType": "uint256",
          "name": "",
          "type": "uint256"
        }
      ],
      "stateMutability": "view",
      "type": "function"
    },
    {
      "inputs": [
        {
          "internalType": "string",
          "name": "_platformName",
          "type": "string"
        },
        {
          "internalType": "address",
          "name": "_platformAddress",
          "type": "address"
        }
      ],
      "name": "mintForAddress",
      "outputs": [
        {
          "internalType": "uint256",
          "name": "",
          "type": "uint256"
        }
      ],
      "stateMutability": "payable",
      "type": "function"
    },
    {
      "inputs": [],
      "name": "mintStatus",
      "outputs": [
        {
          "internalType": "enum KnowledgeLayerPlatformID.MintStatus",
          "name": "",
          "type": "uint8"
        }
      ],
      "stateMutability": "view",
      "type": "function"
    },
    {
      "inputs": [],
      "name": "name",
      "outputs": [
        {
          "internalType": "string",
          "name": "",
          "type": "string"
        }
      ],
      "stateMutability": "view",
      "type": "function"
    },
    {
      "inputs": [
        {
          "internalType": "uint256",
          "name": "tokenId",
          "type": "uint256"
        }
      ],
      "name": "ownerOf",
      "outputs": [
        {
          "internalType": "address",
          "name": "",
          "type": "address"
        }
      ],
      "stateMutability": "view",
      "type": "function"
    },
    {
      "inputs": [
        {
          "internalType": "uint256",
          "name": "",
          "type": "uint256"
        }
      ],
      "name": "platforms",
      "outputs": [
        {
          "internalType": "uint256",
          "name": "id",
          "type": "uint256"
        },
        {
          "internalType": "string",
          "name": "name",
          "type": "string"
        },
        {
          "internalType": "string",
          "name": "dataUri",
          "type": "string"
        },
        {
          "internalType": "uint16",
          "name": "originFee",
          "type": "uint16"
        },
        {
          "internalType": "uint16",
          "name": "buyFee",
          "type": "uint16"
        },
        {
          "internalType": "uint256",
          "name": "postingFee",
          "type": "uint256"
        },
        {
          "internalType": "address",
          "name": "signer",
          "type": "address"
        }
      ],
      "stateMutability": "view",
      "type": "function"
    },
    {
      "inputs": [
        {
          "internalType": "bytes32",
          "name": "role",
          "type": "bytes32"
        },
        {
          "internalType": "address",
          "name": "account",
          "type": "address"
        }
      ],
      "name": "renounceRole",
      "outputs": [],
      "stateMutability": "nonpayable",
      "type": "function"
    },
    {
      "inputs": [
        {
          "internalType": "bytes32",
          "name": "role",
          "type": "bytes32"
        },
        {
          "internalType": "address",
          "name": "account",
          "type": "address"
        }
      ],
      "name": "revokeRole",
      "outputs": [],
      "stateMutability": "nonpayable",
      "type": "function"
    },
    {
      "inputs": [
        {
          "internalType": "address",
          "name": "from",
          "type": "address"
        },
        {
          "internalType": "address",
          "name": "to",
          "type": "address"
        },
        {
          "internalType": "uint256",
          "name": "tokenId",
          "type": "uint256"
        }
      ],
      "name": "safeTransferFrom",
      "outputs": [],
      "stateMutability": "nonpayable",
      "type": "function"
    },
    {
      "inputs": [
        {
          "internalType": "address",
          "name": "from",
          "type": "address"
        },
        {
          "internalType": "address",
          "name": "to",
          "type": "address"
        },
        {
          "internalType": "uint256",
          "name": "tokenId",
          "type": "uint256"
        },
        {
          "internalType": "bytes",
          "name": "data",
          "type": "bytes"
        }
      ],
      "name": "safeTransferFrom",
      "outputs": [],
      "stateMutability": "nonpayable",
      "type": "function"
    },
    {
      "inputs": [
        {
          "internalType": "address",
          "name": "operator",
          "type": "address"
        },
        {
          "internalType": "bool",
          "name": "approved",
          "type": "bool"
        }
      ],
      "name": "setApprovalForAll",
      "outputs": [],
      "stateMutability": "nonpayable",
      "type": "function"
    },
    {
      "inputs": [
        {
          "internalType": "bytes4",
          "name": "interfaceId",
          "type": "bytes4"
        }
      ],
      "name": "supportsInterface",
      "outputs": [
        {
          "internalType": "bool",
          "name": "",
          "type": "bool"
        }
      ],
      "stateMutability": "view",
      "type": "function"
    },
    {
      "inputs": [],
      "name": "symbol",
      "outputs": [
        {
          "internalType": "string",
          "name": "",
          "type": "string"
        }
      ],
      "stateMutability": "view",
      "type": "function"
    },
    {
      "inputs": [
        {
          "internalType": "string",
          "name": "",
          "type": "string"
        }
      ],
      "name": "takenNames",
      "outputs": [
        {
          "internalType": "bool",
          "name": "",
          "type": "bool"
        }
      ],
      "stateMutability": "view",
      "type": "function"
    },
    {
      "inputs": [
        {
          "internalType": "uint256",
          "name": "tokenId",
          "type": "uint256"
        }
      ],
      "name": "tokenURI",
      "outputs": [
        {
          "internalType": "string",
          "name": "",
          "type": "string"
        }
      ],
      "stateMutability": "view",
      "type": "function"
    },
    {
      "inputs": [],
      "name": "totalSupply",
      "outputs": [
        {
          "internalType": "uint256",
          "name": "",
          "type": "uint256"
        }
      ],
      "stateMutability": "view",
      "type": "function"
    },
    {
      "inputs": [
        {
          "internalType": "address",
          "name": "from",
          "type": "address"
        },
        {
          "internalType": "address",
          "name": "to",
          "type": "address"
        },
        {
          "internalType": "uint256",
          "name": "tokenId",
          "type": "uint256"
        }
      ],
      "name": "transferFrom",
      "outputs": [],
      "stateMutability": "nonpayable",
      "type": "function"
    },
    {
      "inputs": [
        {
          "internalType": "uint256",
          "name": "_platformId",
          "type": "uint256"
        },
        {
          "internalType": "uint16",
          "name": "_buyFee",
          "type": "uint16"
        }
      ],
      "name": "updateBuyFee",
      "outputs": [],
      "stateMutability": "nonpayable",
      "type": "function"
    },
    {
      "inputs": [
        {
          "internalType": "uint256",
          "name": "_mintFee",
          "type": "uint256"
        }
      ],
      "name": "updateMintFee",
      "outputs": [],
      "stateMutability": "nonpayable",
      "type": "function"
    },
    {
      "inputs": [
        {
          "internalType": "enum KnowledgeLayerPlatformID.MintStatus",
          "name": "_mintStatus",
          "type": "uint8"
        }
      ],
      "name": "updateMintStatus",
      "outputs": [],
      "stateMutability": "nonpayable",
      "type": "function"
    },
    {
      "inputs": [
        {
          "internalType": "uint256",
          "name": "_platformId",
          "type": "uint256"
        },
        {
          "internalType": "uint16",
          "name": "_originFee",
          "type": "uint16"
        }
      ],
      "name": "updateOriginFee",
      "outputs": [],
      "stateMutability": "nonpayable",
      "type": "function"
    },
    {
      "inputs": [
        {
          "internalType": "uint256",
          "name": "_platformId",
          "type": "uint256"
        },
        {
          "internalType": "uint256",
          "name": "postingFee",
          "type": "uint256"
        }
      ],
      "name": "updatePostingFee",
      "outputs": [],
      "stateMutability": "nonpayable",
      "type": "function"
    },
    {
      "inputs": [
        {
          "internalType": "uint256",
          "name": "_platformId",
          "type": "uint256"
        },
        {
          "internalType": "string",
          "name": "_newCid",
          "type": "string"
        }
      ],
      "name": "updateProfileData",
      "outputs": [],
      "stateMutability": "nonpayable",
      "type": "function"
    },
    {
      "inputs": [
        {
          "internalType": "uint256",
          "name": "_platformId",
          "type": "uint256"
        },
        {
          "internalType": "address",
          "name": "_signer",
          "type": "address"
        }
      ],
      "name": "updateSigner",
      "outputs": [],
      "stateMutability": "nonpayable",
      "type": "function"
    },
    {
      "inputs": [
        {
          "internalType": "address",
          "name": "",
          "type": "address"
        }
      ],
      "name": "whitelist",
      "outputs": [
        {
          "internalType": "bool",
          "name": "",
          "type": "bool"
        }
      ],
      "stateMutability": "view",
      "type": "function"
    },
    {
      "inputs": [
        {
          "internalType": "address",
          "name": "_user",
          "type": "address"
        }
      ],
      "name": "whitelistUser",
      "outputs": [],
      "stateMutability": "nonpayable",
      "type": "function"
    },
    {
      "inputs": [],
      "name": "withdraw",
      "outputs": [],
      "stateMutability": "nonpayable",
      "type": "function"
    }
  ],
  "bytecode": "0x60806040523480156200001157600080fd5b506040518060400160405280601881526020017f4b6e6f776c656467654c61796572506c6174666f726d494400000000000000008152506040518060400160405280600581526020016412d314125160da1b815250816000908162000077919062000258565b50600162000086828262000258565b506200009891506000905033620000f6565b620000c47f154c00819833dac601ee5ddded6fda79d9d8b506b911b3dbd54cdb95fe6c368633620000f6565b6000600b81905550620000e3600c6200010660201b62001a4b1760201c565b600d805460ff1916600117905562000324565b6200010282826200010f565b5050565b80546001019055565b60008281526006602090815260408083206001600160a01b038516845290915290205460ff16620001025760008281526006602090815260408083206001600160a01b03851684529091529020805460ff191660011790556200016f3390565b6001600160a01b0316816001600160a01b0316837f2f8788117e7eff1d82e926ec794901d17c78024a50270940304540a733656f0d60405160405180910390a45050565b634e487b7160e01b600052604160045260246000fd5b600181811c90821680620001de57607f821691505b602082108103620001ff57634e487b7160e01b600052602260045260246000fd5b50919050565b601f8211156200025357600081815260208120601f850160051c810160208610156200022e5750805b601f850160051c820191505b818110156200024f578281556001016200023a565b5050505b505050565b81516001600160401b03811115620002745762000274620001b3565b6200028c81620002858454620001c9565b8462000205565b602080601f831160018114620002c45760008415620002ab5750858301515b600019600386901b1c1916600185901b1785556200024f565b600085815260208120601f198616915b82811015620002f557888601518255948401946001909101908401620002d4565b5085821015620003145787850151600019600388901b60f8161c191681555b5050505050600190811b01905550565b61387f80620003346000396000f3fe6080604052600436106102675760003560e01c80637579d21711610144578063c37e154e116100b6578063e9a9c8501161007a578063e9a9c850146107b3578063f160068f146107e7578063f577a50014610807578063f905f15414610827578063faa992d314610847578063fdcc5a941461087a57600080fd5b8063c37e154e14610704578063c87b56dd14610717578063d547741f14610737578063d85d3d2714610757578063e985e9c51461076a57600080fd5b80639b19251a116101085780639b19251a1461061d5780639da3f8fd1461064d578063a217fddf14610674578063a22cb46514610689578063a383c692146106a9578063b88d4fde146106e457600080fd5b80637579d2171461058857806384017e52146105a85780638f283a86146105c857806391d14854146105e857806395d89b411461060857600080fd5b8063248a9ca3116101dd57806342842e0e116101a157806342842e0e146104bb57806345d6494d146104db5780634a4c560d146104fb5780635bd22c981461051b5780636352211e1461054857806370a082311461056857600080fd5b8063248a9ca3146104165780632f2ff15d1461044657806336568abe146104665780633ccfd60b146104865780633ffefe4e1461049b57600080fd5b806311202fb21161022f57806311202fb21461033d57806313966db51461036b57806318160ddd146103815780631847c06b146103965780631da8f4d9146103c357806323b872dd146103f657600080fd5b806301ffc9a71461026c57806306fdde03146102a1578063081812fc146102c3578063095ea7b3146102fb5780630cc87b741461031d575b600080fd5b34801561027857600080fd5b5061028c610287366004612887565b61089a565b60405190151581526020015b60405180910390f35b3480156102ad57600080fd5b506102b66108ba565b60405161029891906128f4565b3480156102cf57600080fd5b506102e36102de366004612907565b61094c565b6040516001600160a01b039091168152602001610298565b34801561030757600080fd5b5061031b61031636600461293c565b610973565b005b34801561032957600080fd5b5061031b610338366004612966565b610a8d565b34801561034957600080fd5b5061035d610358366004612907565b610b1f565b604051908152602001610298565b34801561037757600080fd5b5061035d600b5481565b34801561038d57600080fd5b5061035d610b40565b3480156103a257600080fd5b5061035d6103b136600461299d565b600a6020526000908152604090205481565b3480156103cf57600080fd5b506103e36103de366004612907565b610b5c565b60405161ffff9091168152602001610298565b34801561040257600080fd5b5061031b6104113660046129b8565b610b81565b34801561042257600080fd5b5061035d610431366004612907565b60009081526006602052604090206001015490565b34801561045257600080fd5b5061031b6104613660046129f4565b610bb2565b34801561047257600080fd5b5061031b6104813660046129f4565b610bd7565b34801561049257600080fd5b5061031b610c55565b3480156104a757600080fd5b506102e36104b6366004612907565b610cf8565b3480156104c757600080fd5b5061031b6104d63660046129b8565b610d22565b3480156104e757600080fd5b506103e36104f6366004612907565b610d3d565b34801561050757600080fd5b5061031b61051636600461299d565b610d68565b34801561052757600080fd5b5061053b610536366004612907565b610dc0565b6040516102989190612a20565b34801561055457600080fd5b506102e3610563366004612907565b610fa7565b34801561057457600080fd5b5061035d61058336600461299d565b611007565b34801561059457600080fd5b5061031b6105a3366004612966565b61108d565b3480156105b457600080fd5b5061031b6105c3366004612907565b611120565b3480156105d457600080fd5b5061031b6105e33660046129f4565b611168565b3480156105f457600080fd5b5061028c6106033660046129f4565b6111fb565b34801561061457600080fd5b506102b6611226565b34801561062957600080fd5b5061028c61063836600461299d565b60096020526000908152604090205460ff1681565b34801561065957600080fd5b50600d546106679060ff1681565b6040516102989190612ac1565b34801561068057600080fd5b5061035d600081565b34801561069557600080fd5b5061031b6106a4366004612ae9565b611235565b3480156106b557600080fd5b5061028c6106c4366004612bc6565b805160208183018101805160078252928201919093012091525460ff1681565b3480156106f057600080fd5b5061031b6106ff366004612bfb565b611240565b61035d610712366004612cc0565b611278565b34801561072357600080fd5b506102b6610732366004612907565b6114b7565b34801561074357600080fd5b5061031b6107523660046129f4565b6114c2565b61035d610765366004612d14565b6114e7565b34801561077657600080fd5b5061028c610785366004612d56565b6001600160a01b03918216600090815260056020908152604080832093909416825291909152205460ff1690565b3480156107bf57600080fd5b5061035d7f154c00819833dac601ee5ddded6fda79d9d8b506b911b3dbd54cdb95fe6c368681565b3480156107f357600080fd5b5061031b610802366004612d80565b6116f5565b34801561081357600080fd5b5061031b610822366004612907565b6117be565b34801561083357600080fd5b5061031b610842366004612dc7565b611814565b34801561085357600080fd5b50610867610862366004612907565b611872565b6040516102989796959493929190612de8565b34801561088657600080fd5b5061031b610895366004612e47565b6119cf565b60006108a582611a54565b806108b457506108b482611aa4565b92915050565b6060600080546108c990612e69565b80601f01602080910402602001604051908101604052809291908181526020018280546108f590612e69565b80156109425780601f1061091757610100808354040283529160200191610942565b820191906000526020600020905b81548152906001019060200180831161092557829003601f168201915b5050505050905090565b600061095782611ac9565b506000908152600460205260409020546001600160a01b031690565b600061097e82610fa7565b9050806001600160a01b0316836001600160a01b0316036109f05760405162461bcd60e51b815260206004820152602160248201527f4552433732313a20617070726f76616c20746f2063757272656e74206f776e656044820152603960f91b60648201526084015b60405180910390fd5b336001600160a01b0382161480610a0c5750610a0c8133610785565b610a7e5760405162461bcd60e51b815260206004820152603d60248201527f4552433732313a20617070726f76652063616c6c6572206973206e6f7420746f60448201527f6b656e206f776e6572206f7220617070726f76656420666f7220616c6c00000060648201526084016109e7565b610a888383611b28565b505050565b8133610a9882610fa7565b6001600160a01b031614610abe5760405162461bcd60e51b81526004016109e790612ea3565b600083815260086020908152604091829020600301805461ffff191661ffff86169081179091558251868152918201527f3c6d76732e58b7473b7a6beb0e6dd806e2ed0be9add9db37a1526b204abd938991015b60405180910390a1505050565b6000610b2a826117be565b5060009081526008602052604090206004015490565b60006001610b4d600c5490565b610b579190612ee0565b905090565b6000610b67826117be565b5060009081526008602052604090206003015461ffff1690565b610b8b3382611b96565b610ba75760405162461bcd60e51b81526004016109e790612ef3565b610a88838383611c15565b600082815260066020526040902060010154610bcd81611c5d565b610a888383611c67565b6001600160a01b0381163314610c475760405162461bcd60e51b815260206004820152602f60248201527f416363657373436f6e74726f6c3a2063616e206f6e6c792072656e6f756e636560448201526e103937b632b9903337b91039b2b63360891b60648201526084016109e7565b610c518282611ced565b5050565b6000610c6081611c5d565b604051600090339047908381818185875af1925050503d8060008114610ca2576040519150601f19603f3d011682016040523d82523d6000602084013e610ca7565b606091505b5050905080610c515760405162461bcd60e51b815260206004820152601860248201527f4661696c656420746f207769746864726177204574686572000000000000000060448201526064016109e7565b6000610d03826117be565b506000908152600860205260409020600501546001600160a01b031690565b610a8883838360405180602001604052806000815250611240565b6000610d48826117be565b5060009081526008602052604090206003015462010000900461ffff1690565b6000610d7381611c5d565b6001600160a01b038216600081815260096020526040808220805460ff19166001179055517f7409cb8e690bcd1487fd4fd27dad3fa92388d201ba6f953631d6d6b26299f8499190a25050565b610e116040518060e00160405280600081526020016060815260200160608152602001600061ffff168152602001600061ffff1681526020016000815260200160006001600160a01b031681525090565b610e1a826117be565b600860008381526020019081526020016000206040518060e001604052908160008201548152602001600182018054610e5290612e69565b80601f0160208091040260200160405190810160405280929190818152602001828054610e7e90612e69565b8015610ecb5780601f10610ea057610100808354040283529160200191610ecb565b820191906000526020600020905b815481529060010190602001808311610eae57829003601f168201915b50505050508152602001600282018054610ee490612e69565b80601f0160208091040260200160405190810160405280929190818152602001828054610f1090612e69565b8015610f5d5780601f10610f3257610100808354040283529160200191610f5d565b820191906000526020600020905b815481529060010190602001808311610f4057829003601f168201915b5050509183525050600382015461ffff808216602084015262010000909104166040820152600482015460608201526005909101546001600160a01b031660809091015292915050565b6000818152600260205260408120546001600160a01b0316806108b45760405162461bcd60e51b8152602060048201526018602482015277115490cdcc8c4e881a5b9d985b1a59081d1bdad95b88125160421b60448201526064016109e7565b60006001600160a01b0382166110715760405162461bcd60e51b815260206004820152602960248201527f4552433732313a2061646472657373207a65726f206973206e6f7420612076616044820152683634b21037bbb732b960b91b60648201526084016109e7565b506001600160a01b031660009081526003602052604090205490565b813361109882610fa7565b6001600160a01b0316146110be5760405162461bcd60e51b81526004016109e790612ea3565b600083815260086020908152604091829020600301805463ffff000019166201000061ffff8716908102919091179091558251868152918201527f14a262c77676131b3008d112e64e6a404859b494cacf43698318b17546f204629101610b12565b600061112b81611c5d565b600b8290556040518281527f38fbb1c8b109c430f0c030e7ed076cf5611a307773a4e8e365601e8f8bceaec6906020015b60405180910390a15050565b813361117382610fa7565b6001600160a01b0316146111995760405162461bcd60e51b81526004016109e790612ea3565b60008381526008602090815260409182902060050180546001600160a01b0319166001600160a01b0386169081179091558251868152918201527f793c7e64f530286f5392e4266e68cf1d6d1f08a9c5494c8b916d4b86f546cb3e9101610b12565b60009182526006602090815260408084206001600160a01b0393909316845291905290205460ff1690565b6060600180546108c990612e69565b610c51338383611d54565b61124a3383611b96565b6112665760405162461bcd60e51b81526004016109e790612ef3565b61127284848484611e22565b50505050565b60008383836001600d5460ff16600281111561129657611296612aab565b14806112b857506002600d5460ff1660028111156112b6576112b6612aab565b145b6112ff5760405162461bcd60e51b8152602060048201526018602482015277135a5b9d081cdd185d1d5cc81a5cc81b9bdd081d985b1a5960421b60448201526064016109e7565b6001600d5460ff16600281111561131857611318612aab565b03611376573360009081526009602052604090205460ff166113765760405162461bcd60e51b8152602060048201526017602482015276165bdd48185c99481b9bdd081dda1a5d195b1a5cdd1959604a1b60448201526064016109e7565b600b5434146113975760405162461bcd60e51b81526004016109e790612f40565b6113a081611007565b156113bd5760405162461bcd60e51b81526004016109e790612f84565b600783836040516113cf929190612fc6565b9081526040519081900360200190205460ff16156114245760405162461bcd60e51b81526020600482015260126024820152712730b6b29030b63932b0b23c903a30b5b2b760711b60448201526064016109e7565b61142e8383611e55565b7f154c00819833dac601ee5ddded6fda79d9d8b506b911b3dbd54cdb95fe6c368661145881611c5d565b61146a86611465600c5490565b612077565b6114ab88888080601f0160208091040260200160405190810160405280939291908181526020018383808284376000920191909152508a9250612202915050565b98975050505050505050565b60606108b4826122e2565b6000828152600660205260409020600101546114dd81611c5d565b610a888383611ced565b60008282336001600d5460ff16600281111561150557611505612aab565b148061152757506002600d5460ff16600281111561152557611525612aab565b145b61156e5760405162461bcd60e51b8152602060048201526018602482015277135a5b9d081cdd185d1d5cc81a5cc81b9bdd081d985b1a5960421b60448201526064016109e7565b6001600d5460ff16600281111561158757611587612aab565b036115e5573360009081526009602052604090205460ff166115e55760405162461bcd60e51b8152602060048201526017602482015276165bdd48185c99481b9bdd081dda1a5d195b1a5cdd1959604a1b60448201526064016109e7565b600b5434146116065760405162461bcd60e51b81526004016109e790612f40565b61160f81611007565b1561162c5760405162461bcd60e51b81526004016109e790612f84565b6007838360405161163e929190612fc6565b9081526040519081900360200190205460ff16156116935760405162461bcd60e51b81526020600482015260126024820152712730b6b29030b63932b0b23c903a30b5b2b760711b60448201526064016109e7565b61169d8383611e55565b6116aa33611465600c5490565b6116eb86868080601f016020809104026020016040519081016040528093929190818152602001838380828437600092019190915250339250612202915050565b9695505050505050565b813361170082610fa7565b6001600160a01b0316146117265760405162461bcd60e51b81526004016109e790612ea3565b8151602e146117655760405162461bcd60e51b815260206004820152600b60248201526a125b9d985b1a590818da5960aa1b60448201526064016109e7565b6000838152600860205260409020600201611780838261301c565b50827f613807bd6768f626264e7eb664a65ca99a0d930f8fd8a5b868491a592eb57f72836040516117b191906128f4565b60405180910390a2505050565b6000811180156117cf5750600c5481105b6118115760405162461bcd60e51b8152602060048201526013602482015272125b9d985b1a59081c1b185d199bdc9b481251606a1b60448201526064016109e7565b50565b600061181f81611c5d565b600d805483919060ff1916600183600281111561183e5761183e612aab565b02179055507fbe5bfaa294dd4b792e98f2bcf8f597b2ead214107f9bc9e8392d6ec65e8d854f8260405161115c9190612ac1565b6008602052600090815260409020805460018201805491929161189490612e69565b80601f01602080910402602001604051908101604052809291908181526020018280546118c090612e69565b801561190d5780601f106118e25761010080835404028352916020019161190d565b820191906000526020600020905b8154815290600101906020018083116118f057829003601f168201915b50505050509080600201805461192290612e69565b80601f016020809104026020016040519081016040528092919081815260200182805461194e90612e69565b801561199b5780601f106119705761010080835404028352916020019161199b565b820191906000526020600020905b81548152906001019060200180831161197e57829003601f168201915b50505060038401546004850154600590950154939461ffff808316956201000090930416935091506001600160a01b031687565b81336119da82610fa7565b6001600160a01b031614611a005760405162461bcd60e51b81526004016109e790612ea3565b60008381526008602090815260409182902060040184905581518581529081018490527f83d9a25c298f09345a74bf5635cf1345b0440eedee47833fd28c100435fd46189101610b12565b80546001019055565b60006001600160e01b031982166380ac58cd60e01b1480611a8557506001600160e01b03198216635b5e139f60e01b145b806108b457506301ffc9a760e01b6001600160e01b03198316146108b4565b60006001600160e01b03198216637965db0b60e01b14806108b457506108b482611a54565b6000818152600260205260409020546001600160a01b03166118115760405162461bcd60e51b8152602060048201526018602482015277115490cdcc8c4e881a5b9d985b1a59081d1bdad95b88125160421b60448201526064016109e7565b600081815260046020526040902080546001600160a01b0319166001600160a01b0384169081179091558190611b5d82610fa7565b6001600160a01b03167f8c5be1e5ebec7d5bd14f71427d1e84f3dd0314c0f7b2291e5b200ac8c7c3b92560405160405180910390a45050565b600080611ba283610fa7565b9050806001600160a01b0316846001600160a01b03161480611be957506001600160a01b0380821660009081526005602090815260408083209388168352929052205460ff165b80611c0d5750836001600160a01b0316611c028461094c565b6001600160a01b0316145b949350505050565b60405162461bcd60e51b815260206004820152601d60248201527f546f6b656e207472616e73666572206973206e6f7420616c6c6f77656400000060448201526064016109e7565b611811813361240f565b611c7182826111fb565b610c515760008281526006602090815260408083206001600160a01b03851684529091529020805460ff19166001179055611ca93390565b6001600160a01b0316816001600160a01b0316837f2f8788117e7eff1d82e926ec794901d17c78024a50270940304540a733656f0d60405160405180910390a45050565b611cf782826111fb565b15610c515760008281526006602090815260408083206001600160a01b0385168085529252808320805460ff1916905551339285917ff6391f5c32d9c69d2a47ea670b442974b53935d1edc7fd64eb21e047a839171b9190a45050565b816001600160a01b0316836001600160a01b031603611db55760405162461bcd60e51b815260206004820152601960248201527f4552433732313a20617070726f766520746f2063616c6c65720000000000000060448201526064016109e7565b6001600160a01b03838116600081815260056020908152604080832094871680845294825291829020805460ff191686151590811790915591519182527f17307eab39ab6107e8899845ad3d59bd9653f200f220920489ca2b5937696c31910160405180910390a3505050565b611e2d848484611c15565b611e3984848484612468565b6112725760405162461bcd60e51b81526004016109e7906130dc565b600082828080601f0160208091040260200160405190810160405280939291908181526020018383808284376000920191909152505082519293505060058210905080611ea25750601f81115b15611ec057604051633eb64ab360e01b815260040160405180910390fd5b600084846000818110611ed557611ed561312e565b909101356001600160f81b031916915050602d60f81b811480611f055750605f60f81b6001600160f81b03198216145b15611f2357604051632f2c22a760e11b815260040160405180910390fd5b60005b8281101561206f57600360fc1b848281518110611f4557611f4561312e565b01602001516001600160f81b0319161080611f835750603d60f91b848281518110611f7257611f7261312e565b01602001516001600160f81b031916115b80611fdf5750603960f81b848281518110611fa057611fa061312e565b01602001516001600160f81b031916118015611fdf5750606160f81b848281518110611fce57611fce61312e565b01602001516001600160f81b031916105b80156120105750838181518110611ff857611ff861312e565b6020910101516001600160f81b031916602d60f81b14155b801561204157508381815181106120295761202961312e565b6020910101516001600160f81b031916605f60f81b14155b1561205f57604051630bb7f19b60e21b815260040160405180910390fd5b61206881613144565b9050611f26565b505050505050565b6001600160a01b0382166120cd5760405162461bcd60e51b815260206004820181905260248201527f4552433732313a206d696e7420746f20746865207a65726f206164647265737360448201526064016109e7565b6000818152600260205260409020546001600160a01b0316156121325760405162461bcd60e51b815260206004820152601c60248201527f4552433732313a20746f6b656e20616c7265616479206d696e7465640000000060448201526064016109e7565b6000818152600260205260409020546001600160a01b0316156121975760405162461bcd60e51b815260206004820152601c60248201527f4552433732313a20746f6b656e20616c7265616479206d696e7465640000000060448201526064016109e7565b6001600160a01b038216600081815260036020908152604080832080546001019055848352600290915280822080546001600160a01b0319168417905551839291907fddf252ad1be2c89b69c2b068fc378daa952ba7f163c4a11628f55a4df523b3ef908290a45050565b60008061220e600c5490565b905061221e600c80546001019055565b60008181526008602052604090206001810161223a868261301c565b508181556005810180546001600160a01b0319169055604051600190600790612264908890613179565b9081526040805160209281900383018120805460ff1916941515949094179093556001600160a01b0387166000818152600a9093529120849055600b5490917f704496b72f6d3fd6e462fa31e27faddedde127bc9942bc94320e0c115b00cedf916122d29186918a91613195565b60405180910390a2509392505050565b60008181526008602090815260408083209051606093926123079260010191016131be565b60405160208183030381529060405290506000601460086000868152602001908152602001600020600101805461233d90612e69565b905011156123655760405180604001604052806002815260200161034360f41b815250612381565b60405180604001604052806002815260200161036360f41b8152505b905060006123af828460405160200161239b929190613240565b604051602081830303815290604052612569565b6040516020016123bf91906135b8565b60405160208183030381529060405290506123e6838260405160200161239b9291906135fd565b6040516020016123f6919061369c565b6040516020818303038152906040529350505050919050565b61241982826111fb565b610c5157612426816126bc565b6124318360206126ce565b6040516020016124429291906136e1565b60408051601f198184030181529082905262461bcd60e51b82526109e7916004016128f4565b60006001600160a01b0384163b1561255e57604051630a85bd0160e11b81526001600160a01b0385169063150b7a02906124ac903390899088908890600401613756565b6020604051808303816000875af19250505080156124e7575060408051601f3d908101601f191682019092526124e491810190613789565b60015b612544573d808015612515576040519150601f19603f3d011682016040523d82523d6000602084013e61251a565b606091505b50805160000361253c5760405162461bcd60e51b81526004016109e7906130dc565b805181602001fd5b6001600160e01b031916630a85bd0160e11b149050611c0d565b506001949350505050565b6060815160000361258857505060408051602081019091526000815290565b600060405180606001604052806040815260200161380a60409139905060006003845160026125b791906137a6565b6125c191906137b9565b6125cc9060046137db565b67ffffffffffffffff8111156125e4576125e4612b1a565b6040519080825280601f01601f19166020018201604052801561260e576020820181803683370190505b509050600182016020820185865187015b8082101561267a576003820191508151603f8160121c168501518453600184019350603f81600c1c168501518453600184019350603f8160061c168501518453600184019350603f811685015184535060018301925061261f565b505060038651066001811461269657600281146126a9576126b1565b603d6001830353603d60028303536126b1565b603d60018303535b509195945050505050565b60606108b46001600160a01b03831660145b606060006126dd8360026137db565b6126e89060026137a6565b67ffffffffffffffff81111561270057612700612b1a565b6040519080825280601f01601f19166020018201604052801561272a576020820181803683370190505b509050600360fc1b816000815181106127455761274561312e565b60200101906001600160f81b031916908160001a905350600f60fb1b816001815181106127745761277461312e565b60200101906001600160f81b031916908160001a90535060006127988460026137db565b6127a39060016137a6565b90505b600181111561281b576f181899199a1a9b1b9c1cb0b131b232b360811b85600f16601081106127d7576127d761312e565b1a60f81b8282815181106127ed576127ed61312e565b60200101906001600160f81b031916908160001a90535060049490941c93612814816137f2565b90506127a6565b50831561286a5760405162461bcd60e51b815260206004820181905260248201527f537472696e67733a20686578206c656e67746820696e73756666696369656e7460448201526064016109e7565b9392505050565b6001600160e01b03198116811461181157600080fd5b60006020828403121561289957600080fd5b813561286a81612871565b60005b838110156128bf5781810151838201526020016128a7565b50506000910152565b600081518084526128e08160208601602086016128a4565b601f01601f19169290920160200192915050565b60208152600061286a60208301846128c8565b60006020828403121561291957600080fd5b5035919050565b80356001600160a01b038116811461293757600080fd5b919050565b6000806040838503121561294f57600080fd5b61295883612920565b946020939093013593505050565b6000806040838503121561297957600080fd5b82359150602083013561ffff8116811461299257600080fd5b809150509250929050565b6000602082840312156129af57600080fd5b61286a82612920565b6000806000606084860312156129cd57600080fd5b6129d684612920565b92506129e460208501612920565b9150604084013590509250925092565b60008060408385031215612a0757600080fd5b82359150612a1760208401612920565b90509250929050565b60208152815160208201526000602083015160e06040840152612a476101008401826128c8565b90506040840151601f19848303016060850152612a6482826128c8565b915050606084015161ffff80821660808601528060808701511660a0860152505060a084015160c084015260018060a01b0360c08501511660e08401528091505092915050565b634e487b7160e01b600052602160045260246000fd5b6020810160038310612ae357634e487b7160e01b600052602160045260246000fd5b91905290565b60008060408385031215612afc57600080fd5b612b0583612920565b91506020830135801515811461299257600080fd5b634e487b7160e01b600052604160045260246000fd5b600067ffffffffffffffff80841115612b4b57612b4b612b1a565b604051601f8501601f19908116603f01168101908282118183101715612b7357612b73612b1a565b81604052809350858152868686011115612b8c57600080fd5b858560208301376000602087830101525050509392505050565b600082601f830112612bb757600080fd5b61286a83833560208501612b30565b600060208284031215612bd857600080fd5b813567ffffffffffffffff811115612bef57600080fd5b611c0d84828501612ba6565b60008060008060808587031215612c1157600080fd5b612c1a85612920565b9350612c2860208601612920565b925060408501359150606085013567ffffffffffffffff811115612c4b57600080fd5b8501601f81018713612c5c57600080fd5b612c6b87823560208401612b30565b91505092959194509250565b60008083601f840112612c8957600080fd5b50813567ffffffffffffffff811115612ca157600080fd5b602083019150836020828501011115612cb957600080fd5b9250929050565b600080600060408486031215612cd557600080fd5b833567ffffffffffffffff811115612cec57600080fd5b612cf886828701612c77565b9094509250612d0b905060208501612920565b90509250925092565b60008060208385031215612d2757600080fd5b823567ffffffffffffffff811115612d3e57600080fd5b612d4a85828601612c77565b90969095509350505050565b60008060408385031215612d6957600080fd5b612d7283612920565b9150612a1760208401612920565b60008060408385031215612d9357600080fd5b82359150602083013567ffffffffffffffff811115612db157600080fd5b612dbd85828601612ba6565b9150509250929050565b600060208284031215612dd957600080fd5b81356003811061286a57600080fd5b87815260e060208201526000612e0160e08301896128c8565b8281036040840152612e1381896128c8565b61ffff97881660608501529590961660808301525060a08101929092526001600160a01b031660c090910152949350505050565b60008060408385031215612e5a57600080fd5b50508035926020909101359150565b600181811c90821680612e7d57607f821691505b602082108103612e9d57634e487b7160e01b600052602260045260246000fd5b50919050565b6020808252600d908201526c2737ba103a34329037bbb732b960991b604082015260600190565b634e487b7160e01b600052601160045260246000fd5b818103818111156108b4576108b4612eca565b6020808252602d908201527f4552433732313a2063616c6c6572206973206e6f7420746f6b656e206f776e6560408201526c1c881bdc88185c1c1c9bdd9959609a1b606082015260800190565b60208082526024908201527f496e636f727265637420616d6f756e74206f662045544820666f72206d696e746040820152632066656560e01b606082015260800190565b60208082526022908201527f506c6174666f726d20616c726561647920686173206120506c6174666f726d20604082015261125160f21b606082015260800190565b8183823760009101908152919050565b601f821115610a8857600081815260208120601f850160051c81016020861015612ffd5750805b601f850160051c820191505b8181101561206f57828155600101613009565b815167ffffffffffffffff81111561303657613036612b1a565b61304a816130448454612e69565b84612fd6565b602080601f83116001811461307f57600084156130675750858301515b600019600386901b1c1916600185901b17855561206f565b600085815260208120601f198616915b828110156130ae5788860151825594840194600190910190840161308f565b50858210156130cc5787850151600019600388901b60f8161c191681555b5050505050600190811b01905550565b60208082526032908201527f4552433732313a207472616e7366657220746f206e6f6e20455243373231526560408201527131b2b4bb32b91034b6b83632b6b2b73a32b960711b606082015260800190565b634e487b7160e01b600052603260045260246000fd5b60006001820161315657613156612eca565b5060010190565b6000815161316f8185602086016128a4565b9290920192915050565b6000825161318b8184602087016128a4565b9190910192915050565b8381526060602082015260006131ae60608301856128c8565b9050826040830152949350505050565b60008083546131cc81612e69565b600182811680156131e457600181146131f957613228565b60ff1984168752821515830287019450613228565b8760005260208060002060005b8581101561321f5781548a820152908401908201613206565b50505082870194505b50506302e746c760e41b835250506004019392505050565b7f3c73766720786d6c6e733d22687474703a2f2f7777772e77332e6f72672f323081527f30302f737667222077696474683d2237323022206865696768743d223732302260208201527f3e3c726563742077696474683d223130302522206865696768743d223130302560408201527f222f3e3c73766720786d6c6e733d22687474703a2f2f7777772e77332e6f726760608201527f2f323030302f737667222077696474683d2231353022206865696768743d223160808201527f3530222076657273696f6e3d22312e32222076696577426f783d222d3230302060a08201527f2d353020313030302031303030223e3c706174682066696c6c3d22234646464660c08201527f46462220643d224d3236342e35203139302e3563302d31332e382031312e322d60e08201527f32352032352d3235483536386331332e3820302032352031312e3220323520326101008201527f357634393063302031332e382d31312e322032352d3235203235483238392e356101208201527f632d31332e3820302d32352d31312e322d32352d32357a222f3e3c70617468206101408201527f66696c6c3d22234646464646462220643d224d3236352036323463302d31332e6101608201527f382031312e322d32352032352d3235683534336331332e3820302032352031316101808201527f2e322032352032357635362e3563302031332e382d31312e322032352d3235206101a08201527f323548323930632d31332e3820302d32352d31312e322d32352d32357a222f3e6101c08201527f3c706174682066696c6c3d22234646464646462220643d224d30203139302e356101e08201527f63302d31332e382031312e322d32352032352d3235683534336331332e3820306102008201527f2032352031312e322032352032355632343763302031332e382d31312e3220326102208201527f352d3235203235483235632d31332e3820302d32352d31312e322d32352d32356102408201527f7a222f3e3c2f7376673e3c7465787420783d2233302220793d223637302220736102608201526b03a3cb6329e913337b73a1d160a51b6102808201526000611c0d61359f61359961357061028c86018861315d565b7f70782073616e732d73657269663b66696c6c3a23666666223e00000000000000815260190190565b8561315d565b6c1e17ba32bc3a1f1e17b9bb339f60991b8152600d0190565b7f646174613a696d6167652f7376672b786d6c3b6261736536342c0000000000008152600082516135f081601a8501602087016128a4565b91909101601a0192915050565b683d913730b6b2911d1160b91b815282516000906136228160098501602088016128a4565b6b1116101134b6b0b3b2911d1160a11b600991840191820152835161364e8160158401602088016128a4565b7f222c20226465736372697074696f6e223a20224b6e6f776c656467654c617965601592909101918201526e7220506c6174666f726d204944227d60881b6035820152604401949350505050565b7f646174613a6170706c69636174696f6e2f6a736f6e3b6261736536342c0000008152600082516136d481601d8501602087016128a4565b91909101601d0192915050565b7f416363657373436f6e74726f6c3a206163636f756e74200000000000000000008152600083516137198160178501602088016128a4565b7001034b99036b4b9b9b4b733903937b6329607d1b601791840191820152835161374a8160288401602088016128a4565b01602801949350505050565b6001600160a01b03858116825284166020820152604081018390526080606082018190526000906116eb908301846128c8565b60006020828403121561379b57600080fd5b815161286a81612871565b808201808211156108b4576108b4612eca565b6000826137d657634e487b7160e01b600052601260045260246000fd5b500490565b80820281158282048414176108b4576108b4612eca565b60008161380157613801612eca565b50600019019056fe4142434445464748494a4b4c4d4e4f505152535455565758595a6162636465666768696a6b6c6d6e6f707172737475767778797a303132333435363738392b2fa264697066735822122032ab6a4f293610f90b9bc60a815c02cb7930430a76c79379afc10876589a3dc464736f6c63430008110033",
  "linkReferences": {},
  "deployedLinkReferences": {}
}