{
  "_format": "hh-sol-artifact-1",
  "contractName": "KnowledgeLayerEscrow",
  "sourceName": "contracts/KnowledgeLayerEscrow.sol",
  "abi": [
    {
      "inputs": [
        {
          "internalType": "address",
          "name": "_knowledgeLayerIdAddress",
          "type": "address"
        },
        {
          "internalType": "address",
          "name": "_knowledgeLayerPlatformIdAddress",
          "type": "address"
        },
        {
          "internalType": "address",
          "name": "_knowledgeLayerCourseAddress",
          "type": "address"
        },
        {
          "internalType": "address",
          "name": "_protocolTreasuryAddress",
          "type": "address"
        }
      ],
      "stateMutability": "nonpayable",
      "type": "constructor"
    },
    {
      "anonymous": false,
      "inputs": [
        {
          "indexed": false,
          "internalType": "uint256",
          "name": "platformId",
          "type": "uint256"
        },
        {
          "indexed": false,
          "internalType": "uint256",
          "name": "courseId",
          "type": "uint256"
        },
        {
          "indexed": false,
          "internalType": "address",
          "name": "token",
          "type": "address"
        },
        {
          "indexed": false,
          "internalType": "uint256",
          "name": "amount",
          "type": "uint256"
        }
      ],
      "name": "BuyFeeReleased",
      "type": "event"
    },
    {
      "anonymous": false,
      "inputs": [
        {
          "indexed": false,
          "internalType": "uint256",
          "name": "platformId",
          "type": "uint256"
        },
        {
          "indexed": false,
          "internalType": "uint256",
          "name": "courseId",
          "type": "uint256"
        },
        {
          "indexed": false,
          "internalType": "address",
          "name": "token",
          "type": "address"
        },
        {
          "indexed": false,
          "internalType": "uint256",
          "name": "amount",
          "type": "uint256"
        }
      ],
      "name": "OriginFeeReleased",
      "type": "event"
    },
    {
      "anonymous": false,
      "inputs": [
        {
          "indexed": true,
          "internalType": "address",
          "name": "previousOwner",
          "type": "address"
        },
        {
          "indexed": true,
          "internalType": "address",
          "name": "newOwner",
          "type": "address"
        }
      ],
      "name": "OwnershipTransferred",
      "type": "event"
    },
    {
      "anonymous": false,
      "inputs": [
        {
          "indexed": false,
          "internalType": "uint256",
          "name": "transactionId",
          "type": "uint256"
        },
        {
          "indexed": false,
          "internalType": "enum KnowledgeLayerEscrow.PaymentType",
          "name": "paymentType",
          "type": "uint8"
        }
      ],
      "name": "Payment",
      "type": "event"
    },
    {
      "anonymous": false,
      "inputs": [
        {
          "indexed": false,
          "internalType": "uint16",
          "name": "fee",
          "type": "uint16"
        }
      ],
      "name": "ProtocolFeeUpdated",
      "type": "event"
    },
    {
      "anonymous": false,
      "inputs": [
        {
          "indexed": false,
          "internalType": "uint256",
          "name": "id",
          "type": "uint256"
        },
        {
          "indexed": false,
          "internalType": "uint256",
          "name": "senderId",
          "type": "uint256"
        },
        {
          "indexed": false,
          "internalType": "uint256",
          "name": "receiverId",
          "type": "uint256"
        },
        {
          "indexed": false,
          "internalType": "address",
          "name": "token",
          "type": "address"
        },
        {
          "indexed": false,
          "internalType": "uint256",
          "name": "amount",
          "type": "uint256"
        },
        {
          "indexed": false,
          "internalType": "uint256",
          "name": "courseId",
          "type": "uint256"
        },
        {
          "indexed": false,
          "internalType": "uint256",
          "name": "buyPlatformId",
          "type": "uint256"
        },
        {
          "indexed": false,
          "internalType": "uint16",
          "name": "protocolFee",
          "type": "uint16"
        },
        {
          "indexed": false,
          "internalType": "uint16",
          "name": "originFee",
          "type": "uint16"
        },
        {
          "indexed": false,
          "internalType": "uint16",
          "name": "buyFee",
          "type": "uint16"
        }
      ],
      "name": "TransactionCreated",
      "type": "event"
    },
    {
      "inputs": [
        {
          "internalType": "uint256",
          "name": "_platformId",
          "type": "uint256"
        },
        {
          "internalType": "address",
          "name": "_tokenAddress",
          "type": "address"
        }
      ],
      "name": "claim",
      "outputs": [],
      "stateMutability": "nonpayable",
      "type": "function"
    },
    {
      "inputs": [
        {
          "internalType": "uint256",
          "name": "_profileId",
          "type": "uint256"
        },
        {
          "internalType": "uint256",
          "name": "_courseId",
          "type": "uint256"
        },
        {
          "internalType": "uint256",
          "name": "_platformId",
          "type": "uint256"
        }
      ],
      "name": "createTransaction",
      "outputs": [
        {
          "internalType": "uint256",
          "name": "",
          "type": "uint256"
        }
      ],
      "stateMutability": "payable",
      "type": "function"
    },
    {
      "inputs": [],
      "name": "owner",
      "outputs": [
        {
          "internalType": "address",
          "name": "",
          "type": "address"
        }
      ],
      "stateMutability": "view",
      "type": "function"
    },
    {
      "inputs": [
        {
          "internalType": "uint256",
          "name": "",
          "type": "uint256"
        },
        {
          "internalType": "address",
          "name": "",
          "type": "address"
        }
      ],
      "name": "platformBalance",
      "outputs": [
        {
          "internalType": "uint256",
          "name": "",
          "type": "uint256"
        }
      ],
      "stateMutability": "view",
      "type": "function"
    },
    {
      "inputs": [],
      "name": "protocolFee",
      "outputs": [
        {
          "internalType": "uint16",
          "name": "",
          "type": "uint16"
        }
      ],
      "stateMutability": "view",
      "type": "function"
    },
    {
      "inputs": [],
      "name": "protocolTreasuryAddress",
      "outputs": [
        {
          "internalType": "address payable",
          "name": "",
          "type": "address"
        }
      ],
      "stateMutability": "view",
      "type": "function"
    },
    {
      "inputs": [
        {
          "internalType": "uint256",
          "name": "_profileId",
          "type": "uint256"
        },
        {
          "internalType": "uint256",
          "name": "_transactionId",
          "type": "uint256"
        }
      ],
      "name": "release",
      "outputs": [],
      "stateMutability": "nonpayable",
      "type": "function"
    },
    {
      "inputs": [],
      "name": "renounceOwnership",
      "outputs": [],
      "stateMutability": "nonpayable",
      "type": "function"
    },
    {
      "inputs": [
        {
          "internalType": "uint16",
          "name": "_protocolFee",
          "type": "uint16"
        }
      ],
      "name": "setProtocolFee",
      "outputs": [],
      "stateMutability": "nonpayable",
      "type": "function"
    },
    {
      "inputs": [
        {
          "internalType": "address payable",
          "name": "_protocolTreasuryAddress",
          "type": "address"
        }
      ],
      "name": "setProtocolTreasuryAddress",
      "outputs": [],
      "stateMutability": "nonpayable",
      "type": "function"
    },
    {
      "inputs": [
        {
          "internalType": "address",
          "name": "newOwner",
          "type": "address"
        }
      ],
      "name": "transferOwnership",
      "outputs": [],
      "stateMutability": "nonpayable",
      "type": "function"
    }
  ],
  "bytecode": "0x60806040523480156200001157600080fd5b5060405162001c7f38038062001c7f8339810160408190526200003491620001f1565b6200003f33620000c6565b600680546001600160a01b03199081166001600160a01b03878116919091179092556007805482168684161790556008805490911691841691909117905562000095600262000116602090811b62000e2317901c565b600580546001600160a01b0319166001600160a01b038316179055620000bc60646200011f565b505050506200024e565b600080546001600160a01b038381166001600160a01b0319831681178455604051919092169283917f8be0079c531659141344cd1fd0a4f28419497f9722a3daafe3b4186f6b6457e09190a35050565b80546001019055565b6200012962000173565b6003805461ffff191661ffff83169081179091556040519081527f15189fb9f7333d3c2ac875339ddb50cd49f554b5ed014b4b06111a437ec0b0c59060200160405180910390a150565b6000546001600160a01b03163314620001d25760405162461bcd60e51b815260206004820181905260248201527f4f776e61626c653a2063616c6c6572206973206e6f7420746865206f776e6572604482015260640160405180910390fd5b565b80516001600160a01b0381168114620001ec57600080fd5b919050565b600080600080608085870312156200020857600080fd5b6200021385620001d4565b93506200022360208601620001d4565b92506200023360408601620001d4565b91506200024360608601620001d4565b905092959194509250565b611a21806200025e6000396000f3fe60806040526004361061009c5760003560e01c80638da5cb5b116100645780638da5cb5b1461017b578063b0e21e8a14610199578063b3c51fdd146101c7578063ddd5e1b2146101da578063e4467f35146101fa578063f2fde38b1461021a57600080fd5b8063366a4120146100a15780636b6a7827146100c3578063715018a6146100e3578063734dd807146100f85780637691e1bb14610135575b600080fd5b3480156100ad57600080fd5b506100c16100bc3660046114ef565b61023a565b005b3480156100cf57600080fd5b506100c16100de366004611526565b610504565b3480156100ef57600080fd5b506100c161052e565b34801561010457600080fd5b50600554610118906001600160a01b031681565b6040516001600160a01b0390911681526020015b60405180910390f35b34801561014157600080fd5b5061016d61015036600461154a565b600460209081526000928352604080842090915290825290205481565b60405190815260200161012c565b34801561018757600080fd5b506000546001600160a01b0316610118565b3480156101a557600080fd5b506003546101b49061ffff1681565b60405161ffff909116815260200161012c565b61016d6101d536600461157a565b610542565b3480156101e657600080fd5b506100c16101f536600461154a565b610b91565b34801561020657600080fd5b506100c16102153660046115b6565b610d58565b34801561022657600080fd5b506100c1610235366004611526565b610daa565b60065482906001600160a01b0316632fa117e582336040516001600160e01b031960e085901b16815260048101929092526001600160a01b03166024820152604401602060405180830381865afa158015610299573d6000803e3d6000fd5b505050506040513d601f19601f820116820180604052508101906102bd91906115d3565b6103065760405162461bcd60e51b81526020600482015260156024820152744e6f74206f776e6572206f722064656c656761746560581b60448201526064015b60405180910390fd5b60025482106103505760405162461bcd60e51b8152602060048201526016602482015275125b9d985b1a59081d1c985b9cd858dd1a5bdb881a5960521b60448201526064016102fd565b60008281526001602081815260409283902083516101408101855281548152928101546001600160a01b039081169284019290925260028101548216838501526003810154821660608401526004808201546080850152600582015460a085015260068083015460c086015260079092015461ffff80821660e0870152620100008204811661010087015264010000000090910416610120850152905493516331a9108f60e11b815290810187905291921690636352211e90602401602060405180830381865afa158015610429573d6000803e3d6000fd5b505050506040513d601f19601f8201168201806040525081019061044d9190611605565b6001600160a01b031681604001516001600160a01b0316146104a45760405162461bcd60e51b815260206004820152601060248201526f2737ba103a3432903932b1b2b4bb32b960811b60448201526064016102fd565b6104ad83610e2c565b6104c48160400151826060015183608001516110df565b7fb4fca6d47a2f58a6df0cd750c445b9eaeb63246a2a427372e653f4e4390f257a8360006040516104f6929190611622565b60405180910390a150505050565b61050c6111be565b600580546001600160a01b0319166001600160a01b0392909216919091179055565b6105366111be565b6105406000611218565b565b600854604051630b91e28d60e01b81526004810184905260009182916001600160a01b0390911690630b91e28d90602401600060405180830381865afa158015610590573d6000803e3d6000fd5b505050506040513d6000823e601f3d908101601f191682016040526105b89190810190611762565b60065481516040516303ef723760e61b815292935060009283926001600160a01b03169163fbdc8dc0916105f9918b91600401918252602082015260400190565b6040805180830381865afa158015610615573d6000803e3d6000fd5b505050506040513d601f19601f820116820180604052508101906106399190611800565b915091506106443390565b6001600160a01b0316826001600160a01b0316146106945760405162461bcd60e51b815260206004820152600d60248201526c2737ba103a34329037bbb732b960991b60448201526064016102fd565b6007546020840151604051630b7a459360e31b815260048101919091526000916001600160a01b031690635bd22c9890602401600060405180830381865afa1580156106e4573d6000803e3d6000fd5b505050506040513d6000823e601f3d908101601f1916820160405261070c919081019061183a565b90506000868560200151036107215781610792565b600754604051630b7a459360e31b8152600481018990526001600160a01b0390911690635bd22c9890602401600060405180830381865afa15801561076a573d6000803e3d6000fd5b505050506040513d6000823e601f3d908101601f19168201604052610792919081019061183a565b905060006107ad866040015184606001518460800151611268565b60608701519091506001600160a01b031661080b578034146108065760405162461bcd60e51b81526020600482015260126024820152714e6f6e2d6d61746368696e672066756e647360701b60448201526064016102fd565b61084e565b341561084e5760405162461bcd60e51b81526020600482015260126024820152714e6f6e2d6d61746368696e672066756e647360701b60448201526064016102fd565b600061085960025490565b9050610869600280546001019055565b604051806101400160405280828152602001876001600160a01b03168152602001866001600160a01b0316815260200188606001516001600160a01b03168152602001886040015181526020018b81526020018a8152602001600360009054906101000a900461ffff1661ffff168152602001856060015161ffff168152602001846080015161ffff16815250600160008381526020019081526020016000206000820151816000015560208201518160010160006101000a8154816001600160a01b0302191690836001600160a01b0316021790555060408201518160020160006101000a8154816001600160a01b0302191690836001600160a01b0316021790555060608201518160030160006101000a8154816001600160a01b0302191690836001600160a01b031602179055506080820151816004015560a0820151816005015560c0820151816006015560e08201518160070160006101000a81548161ffff021916908361ffff1602179055506101008201518160070160026101000a81548161ffff021916908361ffff1602179055506101208201518160070160046101000a81548161ffff021916908361ffff16021790555090505060006001600160a01b031687606001516001600160a01b031614610a5e576060870151610a5e906001600160a01b03168730856112b7565b6008546040516399dbff0160e01b8152600481018d9052602481018c90526001600160a01b03909116906399dbff0190604401600060405180830381600087803b158015610aab57600080fd5b505af1158015610abf573d6000803e3d6000fd5b505050507fe6ee81966645873ac50dc30d3e97a778284f7a6d4547f914a25a5f94f8b1e667818c89600001518a606001518b604001518f8f600360009054906101000a900461ffff168c606001518c60800151604051610b7b9a99989796959493929190998a5260208a019890985260408901969096526001600160a01b03949094166060880152608087019290925260a086015260c085015261ffff90811660e0850152908116610100840152166101208201526101400190565b60405180910390a19a9950505050505050505050565b60008054336001600160a01b0390911603610bf6578215610be45760405162461bcd60e51b815260206004820152600d60248201526c1058d8d95cdcc819195b9a5959609a1b60448201526064016102fd565b506005546001600160a01b0316610cc1565b60075460405162f577a560e81b8152600481018590526001600160a01b039091169063f577a5009060240160006040518083038186803b158015610c3957600080fd5b505afa158015610c4d573d6000803e3d6000fd5b50506007546040516331a9108f60e11b8152600481018790526001600160a01b039091169250636352211e9150602401602060405180830381865afa158015610c9a573d6000803e3d6000fd5b505050506040513d601f19601f82011682018060405250810190610cbe9190611605565b90505b60008381526004602090815260408083206001600160a01b038616845290915290205480610d245760405162461bcd60e51b815260206004820152601060248201526f4e6f7468696e6720746f20636c61696d60801b60448201526064016102fd565b60008481526004602090815260408083206001600160a01b0387168452909152812055610d528284836110df565b50505050565b610d606111be565b6003805461ffff191661ffff83169081179091556040519081527f15189fb9f7333d3c2ac875339ddb50cd49f554b5ed014b4b06111a437ec0b0c59060200160405180910390a150565b610db26111be565b6001600160a01b038116610e175760405162461bcd60e51b815260206004820152602660248201527f4f776e61626c653a206e6577206f776e657220697320746865207a65726f206160448201526564647265737360d01b60648201526084016102fd565b610e2081611218565b50565b80546001019055565b60008181526001602052604080822060085460058201549251630b91e28d60e01b81529193926001600160a01b0390911691630b91e28d91610e749160040190815260200190565b600060405180830381865afa158015610e91573d6000803e3d6000fd5b505050506040513d6000823e601f3d908101601f19168201604052610eb99190810190611762565b6004830154600784015491925060009161271091610eda9161ffff16611928565b610ee49190611945565b6004840154600785015491925060009161271091610f0b9162010000900461ffff16611928565b610f159190611945565b6004850154600786015491925060009161271091610f3e91640100000000900461ffff16611928565b610f489190611945565b60038601546001600160a01b031660009081527f17ef568e3e12ab5b9c7254a8d58478811de00f9e6eb34345acd53bf8fd09d3ec6020526040812080549293508592909190610f98908490611967565b9091555050602080850151600090815260048252604080822060038901546001600160a01b031683529092529081208054849290610fd7908490611967565b90915550506006850154600090815260046020908152604080832060038901546001600160a01b0316845290915281208054839290611017908490611967565b90915550506020848101516005870154600388015460408051938452938301919091526001600160a01b0316818301526060810184905290517f5d3bde90daaaf264e45541324645b7856a8d173aaddfa2b6eb16aad071846f1f9181900360800190a16006850154600586015460038701546040805193845260208401929092526001600160a01b03168282015260608201839052517f5aad5ff29607f1f0e0dd6e7ea6f99dcc414f1ba2ba2bee46421f3fb0610a0dd39181900360800190a1505050505050565b6001600160a01b038216600003611146576040516001600160a01b038416908290600081818185875af1925050503d8060008114611139576040519150601f19603f3d011682016040523d82523d6000602084013e61113e565b606091505b505050505050565b60405163a9059cbb60e01b81526001600160a01b0384811660048301526024820183905283169063a9059cbb906044016020604051808303816000875af1158015611195573d6000803e3d6000fd5b505050506040513d601f19601f82011682018060405250810190610d5291906115d3565b505050565b6000546001600160a01b031633146105405760405162461bcd60e51b815260206004820181905260248201527f4f776e61626c653a2063616c6c6572206973206e6f7420746865206f776e657260448201526064016102fd565b600080546001600160a01b038381166001600160a01b0319831681178455604051919092169283917f8be0079c531659141344cd1fd0a4f28419497f9722a3daafe3b4186f6b6457e09190a35050565b60035460009061271090839061128390869061ffff1661197a565b61128d919061197a565b61129b9061ffff1686611928565b6112a59190611945565b6112af9085611967565b949350505050565b604080516001600160a01b038581166024830152848116604483015260648083018590528351808403909101815260849092018352602080830180516001600160e01b03166323b872dd60e01b17905283518085019094528084527f5361666545524332303a206c6f772d6c6576656c2063616c6c206661696c656490840152610d529287929160009161134f9185169084906113cc565b8051909150156111b9578080602001905181019061136d91906115d3565b6111b95760405162461bcd60e51b815260206004820152602a60248201527f5361666545524332303a204552433230206f7065726174696f6e20646964206e6044820152691bdd081cdd58d8d9595960b21b60648201526084016102fd565b60606112af848460008585600080866001600160a01b031685876040516113f3919061199c565b60006040518083038185875af1925050503d8060008114611430576040519150601f19603f3d011682016040523d82523d6000602084013e611435565b606091505b509150915061144687838387611451565b979650505050505050565b606083156114c05782516000036114b9576001600160a01b0385163b6114b95760405162461bcd60e51b815260206004820152601d60248201527f416464726573733a2063616c6c20746f206e6f6e2d636f6e747261637400000060448201526064016102fd565b50816112af565b6112af83838151156114d55781518083602001fd5b8060405162461bcd60e51b81526004016102fd91906119b8565b6000806040838503121561150257600080fd5b50508035926020909101359150565b6001600160a01b0381168114610e2057600080fd5b60006020828403121561153857600080fd5b813561154381611511565b9392505050565b6000806040838503121561155d57600080fd5b82359150602083013561156f81611511565b809150509250929050565b60008060006060848603121561158f57600080fd5b505081359360208301359350604090920135919050565b61ffff81168114610e2057600080fd5b6000602082840312156115c857600080fd5b8135611543816115a6565b6000602082840312156115e557600080fd5b8151801515811461154357600080fd5b805161160081611511565b919050565b60006020828403121561161757600080fd5b815161154381611511565b828152604081016002831061164757634e487b7160e01b600052602160045260246000fd5b8260208301529392505050565b634e487b7160e01b600052604160045260246000fd5b60405160a0810167ffffffffffffffff8111828210171561168d5761168d611654565b60405290565b60405160e0810167ffffffffffffffff8111828210171561168d5761168d611654565b60005b838110156116d15781810151838201526020016116b9565b50506000910152565b600082601f8301126116eb57600080fd5b815167ffffffffffffffff8082111561170657611706611654565b604051601f8301601f19908116603f0116810190828211818310171561172e5761172e611654565b8160405283815286602085880101111561174757600080fd5b6117588460208301602089016116b6565b9695505050505050565b60006020828403121561177457600080fd5b815167ffffffffffffffff8082111561178c57600080fd5b9083019060a082860312156117a057600080fd5b6117a861166a565b82518152602083015160208201526040830151604082015260608301516117ce81611511565b60608201526080830151828111156117e557600080fd5b6117f1878286016116da565b60808301525095945050505050565b6000806040838503121561181357600080fd5b825161181e81611511565b602084015190925061156f81611511565b8051611600816115a6565b60006020828403121561184c57600080fd5b815167ffffffffffffffff8082111561186457600080fd5b9083019060e0828603121561187857600080fd5b611880611693565b8251815260208301518281111561189657600080fd5b6118a2878286016116da565b6020830152506040830151828111156118ba57600080fd5b6118c6878286016116da565b6040830152506118d86060840161182f565b60608201526118e96080840161182f565b608082015260a083015160a082015261190460c084016115f5565b60c082015295945050505050565b634e487b7160e01b600052601160045260246000fd5b808202811582820484141761193f5761193f611912565b92915050565b60008261196257634e487b7160e01b600052601260045260246000fd5b500490565b8082018082111561193f5761193f611912565b61ffff81811683821601908082111561199557611995611912565b5092915050565b600082516119ae8184602087016116b6565b9190910192915050565b60208152600082518060208401526119d78160408501602087016116b6565b601f01601f1916919091016040019291505056fea2646970667358221220eae1db2ae1578146235c2b29aeed2d631b3447cdf4cb6fdfd83edd96cd8af42364736f6c63430008110033",
  "linkReferences": {},
  "deployedLinkReferences": {}
}