{
  "_format": "hh-sol-artifact-1",
  "contractName": "KnowledgeLayerID",
  "sourceName": "contracts/KnowledgeLayerID.sol",
  "abi": [
    {
      "inputs": [
        {
          "internalType": "address",
          "name": "_platformIdAddress",
          "type": "address"
        }
      ],
      "stateMutability": "nonpayable",
      "type": "constructor"
    },
    {
      "inputs": [],
      "name": "HandleContainsInvalidCharacters",
      "type": "error"
    },
    {
      "inputs": [],
      "name": "HandleFirstCharInvalid",
      "type": "error"
    },
    {
      "inputs": [],
      "name": "HandleLengthInvalid",
      "type": "error"
    },
    {
      "anonymous": false,
      "inputs": [
        {
          "indexed": true,
          "internalType": "address",
          "name": "owner",
          "type": "address"
        },
        {
          "indexed": true,
          "internalType": "address",
          "name": "approved",
          "type": "address"
        },
        {
          "indexed": true,
          "internalType": "uint256",
          "name": "tokenId",
          "type": "uint256"
        }
      ],
      "name": "Approval",
      "type": "event"
    },
    {
      "anonymous": false,
      "inputs": [
        {
          "indexed": true,
          "internalType": "address",
          "name": "owner",
          "type": "address"
        },
        {
          "indexed": true,
          "internalType": "address",
          "name": "operator",
          "type": "address"
        },
        {
          "indexed": false,
          "internalType": "bool",
          "name": "approved",
          "type": "bool"
        }
      ],
      "name": "ApprovalForAll",
      "type": "event"
    },
    {
      "anonymous": false,
      "inputs": [
        {
          "indexed": true,
          "internalType": "uint256",
          "name": "profileId",
          "type": "uint256"
        },
        {
          "indexed": false,
          "internalType": "string",
          "name": "newCid",
          "type": "string"
        }
      ],
      "name": "CidUpdated",
      "type": "event"
    },
    {
      "anonymous": false,
      "inputs": [
        {
          "indexed": false,
          "internalType": "uint256",
          "name": "profileId",
          "type": "uint256"
        },
        {
          "indexed": false,
          "internalType": "address",
          "name": "delegate",
          "type": "address"
        }
      ],
      "name": "DelegateAdded",
      "type": "event"
    },
    {
      "anonymous": false,
      "inputs": [
        {
          "indexed": false,
          "internalType": "uint256",
          "name": "profileId",
          "type": "uint256"
        },
        {
          "indexed": false,
          "internalType": "address",
          "name": "delegate",
          "type": "address"
        }
      ],
      "name": "DelegateRemoved",
      "type": "event"
    },
    {
      "anonymous": false,
      "inputs": [
        {
          "indexed": true,
          "internalType": "address",
          "name": "user",
          "type": "address"
        },
        {
          "indexed": false,
          "internalType": "uint256",
          "name": "profileId",
          "type": "uint256"
        },
        {
          "indexed": false,
          "internalType": "string",
          "name": "handle",
          "type": "string"
        },
        {
          "indexed": false,
          "internalType": "uint256",
          "name": "platformId",
          "type": "uint256"
        },
        {
          "indexed": false,
          "internalType": "uint256",
          "name": "fee",
          "type": "uint256"
        }
      ],
      "name": "Mint",
      "type": "event"
    },
    {
      "anonymous": false,
      "inputs": [
        {
          "indexed": false,
          "internalType": "uint256",
          "name": "mintFee",
          "type": "uint256"
        }
      ],
      "name": "MintFeeUpdated",
      "type": "event"
    },
    {
      "anonymous": false,
      "inputs": [
        {
          "indexed": false,
          "internalType": "enum KnowledgeLayerID.MintStatus",
          "name": "mintStatus",
          "type": "uint8"
        }
      ],
      "name": "MintStatusUpdated",
      "type": "event"
    },
    {
      "anonymous": false,
      "inputs": [
        {
          "indexed": true,
          "internalType": "address",
          "name": "previousOwner",
          "type": "address"
        },
        {
          "indexed": true,
          "internalType": "address",
          "name": "newOwner",
          "type": "address"
        }
      ],
      "name": "OwnershipTransferred",
      "type": "event"
    },
    {
      "anonymous": false,
      "inputs": [
        {
          "indexed": false,
          "internalType": "uint256",
          "name": "price",
          "type": "uint256"
        }
      ],
      "name": "ShortHandlesMaxPriceUpdated",
      "type": "event"
    },
    {
      "anonymous": false,
      "inputs": [
        {
          "indexed": true,
          "internalType": "address",
          "name": "from",
          "type": "address"
        },
        {
          "indexed": true,
          "internalType": "address",
          "name": "to",
          "type": "address"
        },
        {
          "indexed": true,
          "internalType": "uint256",
          "name": "tokenId",
          "type": "uint256"
        }
      ],
      "name": "Transfer",
      "type": "event"
    },
    {
      "inputs": [
        {
          "internalType": "uint256",
          "name": "_profileId",
          "type": "uint256"
        },
        {
          "internalType": "address",
          "name": "_delegate",
          "type": "address"
        }
      ],
      "name": "addDelegate",
      "outputs": [],
      "stateMutability": "nonpayable",
      "type": "function"
    },
    {
      "inputs": [
        {
          "internalType": "address",
          "name": "to",
          "type": "address"
        },
        {
          "internalType": "uint256",
          "name": "tokenId",
          "type": "uint256"
        }
      ],
      "name": "approve",
      "outputs": [],
      "stateMutability": "nonpayable",
      "type": "function"
    },
    {
      "inputs": [
        {
          "internalType": "address",
          "name": "owner",
          "type": "address"
        }
      ],
      "name": "balanceOf",
      "outputs": [
        {
          "internalType": "uint256",
          "name": "",
          "type": "uint256"
        }
      ],
      "stateMutability": "view",
      "type": "function"
    },
    {
      "inputs": [
        {
          "internalType": "uint256",
          "name": "_platformId",
          "type": "uint256"
        },
        {
          "internalType": "address",
          "name": "_userAddress",
          "type": "address"
        },
        {
          "internalType": "string",
          "name": "_handle",
          "type": "string"
        }
      ],
      "name": "freeMint",
      "outputs": [
        {
          "internalType": "uint256",
          "name": "",
          "type": "uint256"
        }
      ],
      "stateMutability": "nonpayable",
      "type": "function"
    },
    {
      "inputs": [
        {
          "internalType": "uint256",
          "name": "tokenId",
          "type": "uint256"
        }
      ],
      "name": "getApproved",
      "outputs": [
        {
          "internalType": "address",
          "name": "",
          "type": "address"
        }
      ],
      "stateMutability": "view",
      "type": "function"
    },
    {
      "inputs": [
        {
          "internalType": "string",
          "name": "_handle",
          "type": "string"
        }
      ],
      "name": "getHandlePrice",
      "outputs": [
        {
          "internalType": "uint256",
          "name": "",
          "type": "uint256"
        }
      ],
      "stateMutability": "view",
      "type": "function"
    },
    {
      "inputs": [
        {
          "internalType": "address",
          "name": "_address",
          "type": "address"
        }
      ],
      "name": "getOriginatorPlatformIdByAddress",
      "outputs": [
        {
          "internalType": "uint256",
          "name": "",
          "type": "uint256"
        }
      ],
      "stateMutability": "view",
      "type": "function"
    },
    {
      "inputs": [
        {
          "internalType": "address",
          "name": "",
          "type": "address"
        }
      ],
      "name": "ids",
      "outputs": [
        {
          "internalType": "uint256",
          "name": "",
          "type": "uint256"
        }
      ],
      "stateMutability": "view",
      "type": "function"
    },
    {
      "inputs": [
        {
          "internalType": "address",
          "name": "owner",
          "type": "address"
        },
        {
          "internalType": "address",
          "name": "operator",
          "type": "address"
        }
      ],
      "name": "isApprovedForAll",
      "outputs": [
        {
          "internalType": "bool",
          "name": "",
          "type": "bool"
        }
      ],
      "stateMutability": "view",
      "type": "function"
    },
    {
      "inputs": [
        {
          "internalType": "uint256",
          "name": "_profileId",
          "type": "uint256"
        },
        {
          "internalType": "address",
          "name": "_address",
          "type": "address"
        }
      ],
      "name": "isDelegate",
      "outputs": [
        {
          "internalType": "bool",
          "name": "",
          "type": "bool"
        }
      ],
      "stateMutability": "view",
      "type": "function"
    },
    {
      "inputs": [
        {
          "internalType": "uint256",
          "name": "_profileId",
          "type": "uint256"
        },
        {
          "internalType": "address",
          "name": "_address",
          "type": "address"
        }
      ],
      "name": "isOwnerOrDelegate",
      "outputs": [
        {
          "internalType": "bool",
          "name": "",
          "type": "bool"
        }
      ],
      "stateMutability": "view",
      "type": "function"
    },
    {
      "inputs": [
        {
          "internalType": "uint256",
          "name": "_profileId",
          "type": "uint256"
        }
      ],
      "name": "isValid",
      "outputs": [],
      "stateMutability": "view",
      "type": "function"
    },
    {
      "inputs": [
        {
          "internalType": "address",
          "name": "_address",
          "type": "address"
        },
        {
          "internalType": "string",
          "name": "_handle",
          "type": "string"
        },
        {
          "internalType": "bytes32[]",
          "name": "_proof",
          "type": "bytes32[]"
        }
      ],
      "name": "isWhitelisted",
      "outputs": [
        {
          "internalType": "bool",
          "name": "",
          "type": "bool"
        }
      ],
      "stateMutability": "view",
      "type": "function"
    },
    {
      "inputs": [],
      "name": "knowledgeLayerPlatformId",
      "outputs": [
        {
          "internalType": "contract IKnowledgeLayerPlatformID",
          "name": "",
          "type": "address"
        }
      ],
      "stateMutability": "view",
      "type": "function"
    },
    {
      "inputs": [
        {
          "internalType": "uint256",
          "name": "_platformId",
          "type": "uint256"
        },
        {
          "internalType": "string",
          "name": "_handle",
          "type": "string"
        }
      ],
      "name": "mint",
      "outputs": [
        {
          "internalType": "uint256",
          "name": "",
          "type": "uint256"
        }
      ],
      "stateMutability": "payable",
      "type": "function"
    },
    {
      "inputs": [],
      "name": "mintFee",
      "outputs": [
        {
          "internalType": "uint256",
          "name": "",
          "type": "uint256"
        }
      ],
      "stateMutability": "view",
      "type": "function"
    },
    {
      "inputs": [
        {
          "internalType": "address",
          "name": "_address",
          "type": "address"
        },
        {
          "internalType": "uint256",
          "name": "_platformId",
          "type": "uint256"
        },
        {
          "internalType": "string",
          "name": "_handle",
          "type": "string"
        }
      ],
      "name": "mintForAddress",
      "outputs": [
        {
          "internalType": "uint256",
          "name": "",
          "type": "uint256"
        }
      ],
      "stateMutability": "payable",
      "type": "function"
    },
    {
      "inputs": [],
      "name": "mintStatus",
      "outputs": [
        {
          "internalType": "enum KnowledgeLayerID.MintStatus",
          "name": "",
          "type": "uint8"
        }
      ],
      "stateMutability": "view",
      "type": "function"
    },
    {
      "inputs": [],
      "name": "name",
      "outputs": [
        {
          "internalType": "string",
          "name": "",
          "type": "string"
        }
      ],
      "stateMutability": "view",
      "type": "function"
    },
    {
      "inputs": [],
      "name": "owner",
      "outputs": [
        {
          "internalType": "address",
          "name": "",
          "type": "address"
        }
      ],
      "stateMutability": "view",
      "type": "function"
    },
    {
      "inputs": [
        {
          "internalType": "uint256",
          "name": "tokenId",
          "type": "uint256"
        }
      ],
      "name": "ownerOf",
      "outputs": [
        {
          "internalType": "address",
          "name": "",
          "type": "address"
        }
      ],
      "stateMutability": "view",
      "type": "function"
    },
    {
      "inputs": [
        {
          "internalType": "uint256",
          "name": "_tokenId1",
          "type": "uint256"
        },
        {
          "internalType": "uint256",
          "name": "_tokenId2",
          "type": "uint256"
        }
      ],
      "name": "ownersOf",
      "outputs": [
        {
          "internalType": "address",
          "name": "",
          "type": "address"
        },
        {
          "internalType": "address",
          "name": "",
          "type": "address"
        }
      ],
      "stateMutability": "view",
      "type": "function"
    },
    {
      "inputs": [
        {
          "internalType": "uint256",
          "name": "",
          "type": "uint256"
        }
      ],
      "name": "profiles",
      "outputs": [
        {
          "internalType": "uint256",
          "name": "id",
          "type": "uint256"
        },
        {
          "internalType": "string",
          "name": "handle",
          "type": "string"
        },
        {
          "internalType": "uint256",
          "name": "platformId",
          "type": "uint256"
        },
        {
          "internalType": "string",
          "name": "dataUri",
          "type": "string"
        }
      ],
      "stateMutability": "view",
      "type": "function"
    },
    {
      "inputs": [
        {
          "internalType": "uint256",
          "name": "_profileId",
          "type": "uint256"
        },
        {
          "internalType": "address",
          "name": "_delegate",
          "type": "address"
        }
      ],
      "name": "removeDelegate",
      "outputs": [],
      "stateMutability": "nonpayable",
      "type": "function"
    },
    {
      "inputs": [],
      "name": "renounceOwnership",
      "outputs": [],
      "stateMutability": "nonpayable",
      "type": "function"
    },
    {
      "inputs": [
        {
          "internalType": "address",
          "name": "from",
          "type": "address"
        },
        {
          "internalType": "address",
          "name": "to",
          "type": "address"
        },
        {
          "internalType": "uint256",
          "name": "tokenId",
          "type": "uint256"
        }
      ],
      "name": "safeTransferFrom",
      "outputs": [],
      "stateMutability": "nonpayable",
      "type": "function"
    },
    {
      "inputs": [
        {
          "internalType": "address",
          "name": "from",
          "type": "address"
        },
        {
          "internalType": "address",
          "name": "to",
          "type": "address"
        },
        {
          "internalType": "uint256",
          "name": "tokenId",
          "type": "uint256"
        },
        {
          "internalType": "bytes",
          "name": "data",
          "type": "bytes"
        }
      ],
      "name": "safeTransferFrom",
      "outputs": [],
      "stateMutability": "nonpayable",
      "type": "function"
    },
    {
      "inputs": [
        {
          "internalType": "address",
          "name": "operator",
          "type": "address"
        },
        {
          "internalType": "bool",
          "name": "approved",
          "type": "bool"
        }
      ],
      "name": "setApprovalForAll",
      "outputs": [],
      "stateMutability": "nonpayable",
      "type": "function"
    },
    {
      "inputs": [
        {
          "internalType": "bytes32",
          "name": "root",
          "type": "bytes32"
        }
      ],
      "name": "setWhitelistMerkleRoot",
      "outputs": [],
      "stateMutability": "nonpayable",
      "type": "function"
    },
    {
      "inputs": [
        {
          "internalType": "bytes4",
          "name": "interfaceId",
          "type": "bytes4"
        }
      ],
      "name": "supportsInterface",
      "outputs": [
        {
          "internalType": "bool",
          "name": "",
          "type": "bool"
        }
      ],
      "stateMutability": "view",
      "type": "function"
    },
    {
      "inputs": [],
      "name": "symbol",
      "outputs": [
        {
          "internalType": "string",
          "name": "",
          "type": "string"
        }
      ],
      "stateMutability": "view",
      "type": "function"
    },
    {
      "inputs": [
        {
          "internalType": "string",
          "name": "",
          "type": "string"
        }
      ],
      "name": "takenHandles",
      "outputs": [
        {
          "internalType": "bool",
          "name": "",
          "type": "bool"
        }
      ],
      "stateMutability": "view",
      "type": "function"
    },
    {
      "inputs": [
        {
          "internalType": "uint256",
          "name": "tokenId",
          "type": "uint256"
        }
      ],
      "name": "tokenURI",
      "outputs": [
        {
          "internalType": "string",
          "name": "",
          "type": "string"
        }
      ],
      "stateMutability": "view",
      "type": "function"
    },
    {
      "inputs": [],
      "name": "totalSupply",
      "outputs": [
        {
          "internalType": "uint256",
          "name": "",
          "type": "uint256"
        }
      ],
      "stateMutability": "view",
      "type": "function"
    },
    {
      "inputs": [
        {
          "internalType": "address",
          "name": "from",
          "type": "address"
        },
        {
          "internalType": "address",
          "name": "to",
          "type": "address"
        },
        {
          "internalType": "uint256",
          "name": "tokenId",
          "type": "uint256"
        }
      ],
      "name": "transferFrom",
      "outputs": [],
      "stateMutability": "nonpayable",
      "type": "function"
    },
    {
      "inputs": [
        {
          "internalType": "address",
          "name": "newOwner",
          "type": "address"
        }
      ],
      "name": "transferOwnership",
      "outputs": [],
      "stateMutability": "nonpayable",
      "type": "function"
    },
    {
      "inputs": [
        {
          "internalType": "uint256",
          "name": "_mintFee",
          "type": "uint256"
        }
      ],
      "name": "updateMintFee",
      "outputs": [],
      "stateMutability": "nonpayable",
      "type": "function"
    },
    {
      "inputs": [
        {
          "internalType": "enum KnowledgeLayerID.MintStatus",
          "name": "_mintStatus",
          "type": "uint8"
        }
      ],
      "name": "updateMintStatus",
      "outputs": [],
      "stateMutability": "nonpayable",
      "type": "function"
    },
    {
      "inputs": [
        {
          "internalType": "uint256",
          "name": "_profileId",
          "type": "uint256"
        },
        {
          "internalType": "string",
          "name": "_newCid",
          "type": "string"
        }
      ],
      "name": "updateProfileData",
      "outputs": [],
      "stateMutability": "nonpayable",
      "type": "function"
    },
    {
      "inputs": [
        {
          "internalType": "uint256",
          "name": "_shortHandlesMaxPrice",
          "type": "uint256"
        }
      ],
      "name": "updateShortHandlesMaxPrice",
      "outputs": [],
      "stateMutability": "nonpayable",
      "type": "function"
    },
    {
      "inputs": [
        {
          "internalType": "uint256",
          "name": "_platformId",
          "type": "uint256"
        },
        {
          "internalType": "string",
          "name": "_handle",
          "type": "string"
        },
        {
          "internalType": "bytes32[]",
          "name": "_proof",
          "type": "bytes32[]"
        }
      ],
      "name": "whitelistMint",
      "outputs": [
        {
          "internalType": "uint256",
          "name": "",
          "type": "uint256"
        }
      ],
      "stateMutability": "payable",
      "type": "function"
    },
    {
      "inputs": [],
      "name": "withdraw",
      "outputs": [],
      "stateMutability": "nonpayable",
      "type": "function"
    }
  ],
  "bytecode": "0x60806040523480156200001157600080fd5b5060405162003d4038038062003d40833981016040819052620000349162000158565b6040518060400160405280601081526020016f12db9bdddb195919d953185e595c925160821b8152506040518060400160405280600481526020016312d3125160e21b815250620000946200008e620000fb60201b60201c565b620000ff565b6001620000a283826200022f565b506002620000b182826200022f565b5050600780546001600160a01b0319166001600160a01b03841617905550620000e7600c6200014f602090811b62001ab817901c565b50600f805460ff19166001179055620002fb565b3390565b600080546001600160a01b038381166001600160a01b0319831681178455604051919092169283917f8be0079c531659141344cd1fd0a4f28419497f9722a3daafe3b4186f6b6457e09190a35050565b80546001019055565b6000602082840312156200016b57600080fd5b81516001600160a01b03811681146200018357600080fd5b9392505050565b634e487b7160e01b600052604160045260246000fd5b600181811c90821680620001b557607f821691505b602082108103620001d657634e487b7160e01b600052602260045260246000fd5b50919050565b601f8211156200022a57600081815260208120601f850160051c81016020861015620002055750805b601f850160051c820191505b81811015620002265782815560010162000211565b5050505b505050565b81516001600160401b038111156200024b576200024b6200018a565b62000263816200025c8454620001a0565b84620001dc565b602080601f8311600181146200029b5760008415620002825750858301515b600019600386901b1c1916600185901b17855562000226565b600085815260208120601f198616915b82811015620002cc57888601518255948401946001909101908401620002ab565b5085821015620002eb5787850151600019600388901b60f8161c191681555b5050505050600190811b01905550565b613a35806200030b6000396000f3fe6080604052600436106102515760003560e01c806377097fc811610139578063c36fe3d6116100b6578063ebf247f91161007a578063ebf247f91461076a578063f160068f1461078a578063f2fde38b146107aa578063f577a500146107ca578063f905f154146107ea578063fbdc8dc01461080a57600080fd5b8063c36fe3d614610678578063c87b56dd146106a8578063e985e9c5146106c8578063ea17e5a814610711578063eab5d4261461072457600080fd5b80639da3f8fd116100fd5780639da3f8fd146105d1578063a22cb465146105f8578063b88d4fde14610618578063bd32fb6614610638578063c247793b1461065857600080fd5b806377097fc81461054b57806384017e521461055e57806389c1694c1461057e5780638da5cb5b1461059e57806395d89b41146105bc57600080fd5b80632106beec116101d257806342842e0e1161019657806342842e0e146104705780635c4b0348146104905780636352211e146104d657806370a08231146104f657806370e703dd14610516578063715018a61461053657600080fd5b80632106beec146103c057806323b872dd146103fb5780632eefaa611461041b5780632fa117e51461043b5780633ccfd60b1461045b57600080fd5b806316afebe51161021957806316afebe51461032b57806318160ddd1461033e5780631847c06b146103535780631cf6239b146103805780631f67fba6146103a057600080fd5b806301ffc9a71461025657806306fdde031461028b578063081812fc146102ad578063095ea7b3146102e557806313966db514610307575b600080fd5b34801561026257600080fd5b5061027661027136600461283e565b61084a565b60405190151581526020015b60405180910390f35b34801561029757600080fd5b506102a061089c565b60405161028291906128ab565b3480156102b957600080fd5b506102cd6102c83660046128be565b61092e565b6040516001600160a01b039091168152602001610282565b3480156102f157600080fd5b506103056103003660046128f3565b610955565b005b34801561031357600080fd5b5061031d600b5481565b604051908152602001610282565b61031d61033936600461295e565b610a6f565b34801561034a57600080fd5b5061031d610d18565b34801561035f57600080fd5b5061031d61036e366004612a04565b600a6020526000908152604090205481565b34801561038c57600080fd5b5061030561039b366004612a1f565b610d34565b3480156103ac57600080fd5b506103056103bb3660046128be565b610df0565b3480156103cc57600080fd5b506102766103db366004612b08565b805160208183018101805160088252928201919093012091525460ff1681565b34801561040757600080fd5b50610305610416366004612b3c565b610e34565b34801561042757600080fd5b50610276610436366004612b78565b610e65565b34801561044757600080fd5b50610276610456366004612a1f565b610ee5565b34801561046757600080fd5b50610305610f38565b34801561047c57600080fd5b5061030561048b366004612b3c565b610fdb565b34801561049c57600080fd5b5061031d6104ab366004612a04565b6001600160a01b03166000908152600a60209081526040808320548352600990915290206002015490565b3480156104e257600080fd5b506102cd6104f13660046128be565b610ff6565b34801561050257600080fd5b5061031d610511366004612a04565b611056565b34801561052257600080fd5b50610305610531366004612a1f565b6110dc565b34801561054257600080fd5b5061030561118d565b61031d610559366004612c54565b6111a1565b34801561056a57600080fd5b506103056105793660046128be565b61137a565b34801561058a57600080fd5b5061031d610599366004612c9f565b6113b7565b3480156105aa57600080fd5b506000546001600160a01b03166102cd565b3480156105c857600080fd5b506102a06114f5565b3480156105dd57600080fd5b50600f546105eb9060ff1681565b6040516102829190612d0e565b34801561060457600080fd5b50610305610613366004612d36565b611504565b34801561062457600080fd5b50610305610633366004612d72565b611513565b34801561064457600080fd5b506103056106533660046128be565b61154b565b34801561066457600080fd5b506007546102cd906001600160a01b031681565b34801561068457600080fd5b506106986106933660046128be565b611558565b6040516102829493929190612ded565b3480156106b457600080fd5b506102a06106c33660046128be565b611691565b3480156106d457600080fd5b506102766106e3366004612e29565b6001600160a01b03918216600090815260066020908152604080832093909416825291909152205460ff1690565b61031d61071f366004612e53565b61169c565b34801561073057600080fd5b5061027661073f366004612a1f565b6000918252600d602090815260408084206001600160a01b0393909316845291905290205460ff1690565b34801561077657600080fd5b5061031d610785366004612e94565b611857565b34801561079657600080fd5b506103056107a5366004612ed5565b611896565b3480156107b657600080fd5b506103056107c5366004612a04565b61197d565b3480156107d657600080fd5b506103056107e53660046128be565b6119f3565b3480156107f657600080fd5b50610305610805366004612f1b565b611a3c565b34801561081657600080fd5b5061082a610825366004612f3c565b611a97565b604080516001600160a01b03938416815292909116602083015201610282565b60006001600160e01b031982166380ac58cd60e01b148061087b57506001600160e01b03198216635b5e139f60e01b145b8061089657506301ffc9a760e01b6001600160e01b03198316145b92915050565b6060600180546108ab90612f5e565b80601f01602080910402602001604051908101604052809291908181526020018280546108d790612f5e565b80156109245780601f106108f957610100808354040283529160200191610924565b820191906000526020600020905b81548152906001019060200180831161090757829003601f168201915b5050505050905090565b600061093982611ac1565b506000908152600560205260409020546001600160a01b031690565b600061096082610ff6565b9050806001600160a01b0316836001600160a01b0316036109d25760405162461bcd60e51b815260206004820152602160248201527f4552433732313a20617070726f76616c20746f2063757272656e74206f776e656044820152603960f91b60648201526084015b60405180910390fd5b336001600160a01b03821614806109ee57506109ee81336106e3565b610a605760405162461bcd60e51b815260206004820152603d60248201527f4552433732313a20617070726f76652063616c6c6572206973206e6f7420746f60448201527f6b656e206f776e6572206f7220617070726f76656420666f7220616c6c00000060648201526084016109c9565b610a6a8383611b20565b505050565b600033858588610a7e84611056565b15610a9b5760405162461bcd60e51b81526004016109c990612f98565b60088383604051610aad929190612fdb565b9081526040519081900360200190205460ff1615610add5760405162461bcd60e51b81526004016109c990612feb565b8015610b3f5760075460405162f577a560e81b8152600481018390526001600160a01b039091169063f577a5009060240160006040518083038186803b158015610b2657600080fd5b505afa158015610b3a573d6000803e3d6000fd5b505050505b610b498383611b8e565b8888610b558282611857565b3414610b735760405162461bcd60e51b81526004016109c990613019565b6001600f5460ff166002811115610b8c57610b8c612cf8565b14610bd95760405162461bcd60e51b815260206004820152601d60248201527f57686974656c697374206d696e74206973206e6f7420656e61626c656400000060448201526064016109c9565b6000339050610c60818d8d8080601f016020809104026020016040519081016040528093929190818152602001838380828437600081840152601f19601f820116905080830192505050505050508c8c80806020026020016040519081016040528093929190818152602001838360200280828437600092019190915250610e6592505050565b610ca55760405162461bcd60e51b8152602060048201526016602482015275165bdd49dc99481b9bdd081dda1a5d195b1a5cdd195960521b60448201526064016109c9565b610cb781610cb2600c5490565b611db0565b610d07818d8d8080601f016020809104026020016040519081016040528093929190818152602001838380828437600081840152601f19601f820116905080830192505050505050508f34611f3b565b9d9c50505050505050505050505050565b60006001610d25600c5490565b610d2f9190613073565b905090565b33610d3e83610ff6565b6001600160a01b031614610d845760405162461bcd60e51b815260206004820152600d60248201526c2737ba103a34329037bbb732b960991b60448201526064016109c9565b6000828152600d602090815260408083206001600160a01b03851680855290835292819020805460ff191660011790558051858152918201929092527f2d678d15460f6ef62d6d85bfaf6a46d9d0d6498a0fd6ecd92d42bc2ab018103991015b60405180910390a15050565b610df861200d565b60108190556040518181527fa7c83a47a9702f7f1fc21a99b3be95dc10f5d00a4bca12cb54ed49b50bce1785906020015b60405180910390a150565b610e3e3382612067565b610e5a5760405162461bcd60e51b81526004016109c990613086565b610a6a8383836120e5565b600080610e7c856001600160a01b0316601461212d565b84604051602001610e8e9291906130ef565b6040516020818303038152906040529050610edc600e5482604051602001610eb6919061312b565b60405160208183030381529060405280519060200120856122c89092919063ffffffff16565b95945050505050565b6000816001600160a01b0316610efa84610ff6565b6001600160a01b03161480610f3157506000838152600d602090815260408083206001600160a01b038616845290915290205460ff165b9392505050565b610f4061200d565b604051600090339047908381818185875af1925050503d8060008114610f82576040519150601f19603f3d011682016040523d82523d6000602084013e610f87565b606091505b5050905080610fd85760405162461bcd60e51b815260206004820152601860248201527f4661696c656420746f207769746864726177204574686572000000000000000060448201526064016109c9565b50565b610a6a83838360405180602001604052806000815250611513565b6000818152600360205260408120546001600160a01b0316806108965760405162461bcd60e51b8152602060048201526018602482015277115490cdcc8c4e881a5b9d985b1a59081d1bdad95b88125160421b60448201526064016109c9565b60006001600160a01b0382166110c05760405162461bcd60e51b815260206004820152602960248201527f4552433732313a2061646472657373207a65726f206973206e6f7420612076616044820152683634b21037bbb732b960b91b60648201526084016109c9565b506001600160a01b031660009081526004602052604090205490565b336110e683610ff6565b6001600160a01b03161461112c5760405162461bcd60e51b815260206004820152600d60248201526c2737ba103a34329037bbb732b960991b60448201526064016109c9565b6000828152600d602090815260408083206001600160a01b03851680855290835292819020805460ff191690558051858152918201929092527f09f87139523b83583b15f476015dd9a27fae3a03f17202cdf77d063bef5d21c29101610de4565b61119561200d565b61119f60006122de565b565b6000338383866111b084611056565b156111cd5760405162461bcd60e51b81526004016109c990612f98565b600883836040516111df929190612fdb565b9081526040519081900360200190205460ff161561120f5760405162461bcd60e51b81526004016109c990612feb565b80156112715760075460405162f577a560e81b8152600481018390526001600160a01b039091169063f577a5009060240160006040518083038186803b15801561125857600080fd5b505afa15801561126c573d6000803e3d6000fd5b505050505b61127b8383611b8e565b86866112878282611857565b34146112a55760405162461bcd60e51b81526004016109c990613019565b6002600f5460ff1660028111156112be576112be612cf8565b1461130b5760405162461bcd60e51b815260206004820152601a60248201527f5075626c6963206d696e74206973206e6f7420656e61626c656400000000000060448201526064016109c9565b600c54339061131b908290611db0565b61136b818b8b8080601f016020809104026020016040519081016040528093929190818152602001838380828437600081840152601f19601f820116905080830192505050505050508d34611f3b565b9b9a5050505050505050505050565b61138261200d565b600b8190556040518181527f38fbb1c8b109c430f0c030e7ed076cf5611a307773a4e8e365601e8f8bceaec690602001610e29565b6000838383876113c684611056565b156113e35760405162461bcd60e51b81526004016109c990612f98565b600883836040516113f5929190612fdb565b9081526040519081900360200190205460ff16156114255760405162461bcd60e51b81526004016109c990612feb565b80156114875760075460405162f577a560e81b8152600481018390526001600160a01b039091169063f577a5009060240160006040518083038186803b15801561146e57600080fd5b505afa158015611482573d6000803e3d6000fd5b505050505b6114918383611b8e565b61149961200d565b6114a688610cb2600c5490565b6114e88888888080601f01602080910402602001604051908101604052809392919081815260200183838082843760009201829052508f93509150611f3b9050565b9998505050505050505050565b6060600280546108ab90612f5e565b61150f33838361232e565b5050565b61151d3383612067565b6115395760405162461bcd60e51b81526004016109c990613086565b611545848484846123fc565b50505050565b61155361200d565b600e55565b6009602052600090815260409020805460018201805491929161157a90612f5e565b80601f01602080910402602001604051908101604052809291908181526020018280546115a690612f5e565b80156115f35780601f106115c8576101008083540402835291602001916115f3565b820191906000526020600020905b8154815290600101906020018083116115d657829003601f168201915b50505050509080600201549080600301805461160e90612f5e565b80601f016020809104026020016040519081016040528092919081815260200182805461163a90612f5e565b80156116875780601f1061165c57610100808354040283529160200191611687565b820191906000526020600020905b81548152906001019060200180831161166a57829003601f168201915b5050505050905084565b60606108968261242f565b6000848383866116ab84611056565b156116c85760405162461bcd60e51b81526004016109c990612f98565b600883836040516116da929190612fdb565b9081526040519081900360200190205460ff161561170a5760405162461bcd60e51b81526004016109c990612feb565b801561176c5760075460405162f577a560e81b8152600481018390526001600160a01b039091169063f577a5009060240160006040518083038186803b15801561175357600080fd5b505afa158015611767573d6000803e3d6000fd5b505050505b6117768383611b8e565b86866117828282611857565b34146117a05760405162461bcd60e51b81526004016109c990613019565b6002600f5460ff1660028111156117b9576117b9612cf8565b146118065760405162461bcd60e51b815260206004820152601a60248201527f5075626c6963206d696e74206973206e6f7420656e61626c656400000000000060448201526064016109c9565b6118138b610cb2600c5490565b61136b8b8a8a8080601f0160208091040260200160405190810160405280939291908181526020018383808284376000920191909152508f9250349150611f3b9050565b6000816004811161188a5761186d600182613073565b61187890600261322b565b6010546118859190613237565b61188e565b600b545b949350505050565b816118a18133610ee5565b6118e55760405162461bcd60e51b81526020600482015260156024820152744e6f74206f776e6572206f722064656c656761746560581b60448201526064016109c9565b8151602e146119245760405162461bcd60e51b815260206004820152600b60248201526a125b9d985b1a590818da5960aa1b60448201526064016109c9565b600083815260096020526040902060030161193f838261329f565b50827f613807bd6768f626264e7eb664a65ca99a0d930f8fd8a5b868491a592eb57f728360405161197091906128ab565b60405180910390a2505050565b61198561200d565b6001600160a01b0381166119ea5760405162461bcd60e51b815260206004820152602660248201527f4f776e61626c653a206e6577206f776e657220697320746865207a65726f206160448201526564647265737360d01b60648201526084016109c9565b610fd8816122de565b600081118015611a045750600c5481105b610fd85760405162461bcd60e51b81526020600482015260096024820152681b9bdd081d985b1a5960ba1b60448201526064016109c9565b611a4461200d565b600f805482919060ff19166001836002811115611a6357611a63612cf8565b02179055507fbe5bfaa294dd4b792e98f2bcf8f597b2ead214107f9bc9e8392d6ec65e8d854f81604051610e299190612d0e565b600080611aa384610ff6565b611aac84610ff6565b915091505b9250929050565b80546001019055565b6000818152600360205260409020546001600160a01b0316610fd85760405162461bcd60e51b8152602060048201526018602482015277115490cdcc8c4e881a5b9d985b1a59081d1bdad95b88125160421b60448201526064016109c9565b600081815260056020526040902080546001600160a01b0319166001600160a01b0384169081179091558190611b5582610ff6565b6001600160a01b03167f8c5be1e5ebec7d5bd14f71427d1e84f3dd0314c0f7b2291e5b200ac8c7c3b92560405160405180910390a45050565b600082828080601f0160208091040260200160405190810160405280939291908181526020018383808284376000920191909152505082519293505060018210905080611bdb5750601f81115b15611bf957604051633eb64ab360e01b815260040160405180910390fd5b600084846000818110611c0e57611c0e61335e565b909101356001600160f81b031916915050602d60f81b811480611c3e5750605f60f81b6001600160f81b03198216145b15611c5c57604051632f2c22a760e11b815260040160405180910390fd5b60005b82811015611da857600360fc1b848281518110611c7e57611c7e61335e565b01602001516001600160f81b0319161080611cbc5750603d60f91b848281518110611cab57611cab61335e565b01602001516001600160f81b031916115b80611d185750603960f81b848281518110611cd957611cd961335e565b01602001516001600160f81b031916118015611d185750606160f81b848281518110611d0757611d0761335e565b01602001516001600160f81b031916105b8015611d495750838181518110611d3157611d3161335e565b6020910101516001600160f81b031916602d60f81b14155b8015611d7a5750838181518110611d6257611d6261335e565b6020910101516001600160f81b031916605f60f81b14155b15611d9857604051630bb7f19b60e21b815260040160405180910390fd5b611da181613374565b9050611c5f565b505050505050565b6001600160a01b038216611e065760405162461bcd60e51b815260206004820181905260248201527f4552433732313a206d696e7420746f20746865207a65726f206164647265737360448201526064016109c9565b6000818152600360205260409020546001600160a01b031615611e6b5760405162461bcd60e51b815260206004820152601c60248201527f4552433732313a20746f6b656e20616c7265616479206d696e7465640000000060448201526064016109c9565b6000818152600360205260409020546001600160a01b031615611ed05760405162461bcd60e51b815260206004820152601c60248201527f4552433732313a20746f6b656e20616c7265616479206d696e7465640000000060448201526064016109c9565b6001600160a01b038216600081815260046020908152604080832080546001019055848352600390915280822080546001600160a01b0319168417905551839291907fddf252ad1be2c89b69c2b068fc378daa952ba7f163c4a11628f55a4df523b3ef908290a45050565b600080611f47600c5490565b9050611f57600c80546001019055565b60008181526009602052604090206002810185905560018101611f7a878261329f565b506001600887604051611f8d919061312b565b9081526040805160209281900383018120805460ff1916941515949094179093556001600160a01b038a166000818152600a9093529120849055907f8475f1ba3b06c1e11c870cbbf9753ca9a8292ea0b203262f682de476dc268f8c90611ffb9085908a908a908a9061338d565b60405180910390a25095945050505050565b6000546001600160a01b0316331461119f5760405162461bcd60e51b815260206004820181905260248201527f4f776e61626c653a2063616c6c6572206973206e6f7420746865206f776e657260448201526064016109c9565b60008061207383610ff6565b9050806001600160a01b0316846001600160a01b031614806120ba57506001600160a01b0380821660009081526006602090815260408083209388168352929052205460ff165b8061188e5750836001600160a01b03166120d38461092e565b6001600160a01b031614949350505050565b60405162461bcd60e51b815260206004820152601d60248201527f546f6b656e207472616e73666572206973206e6f7420616c6c6f77656400000060448201526064016109c9565b6060600061213c8360026133b9565b6121479060026133d0565b6001600160401b0381111561215e5761215e612a4b565b6040519080825280601f01601f191660200182016040528015612188576020820181803683370190505b509050600360fc1b816000815181106121a3576121a361335e565b60200101906001600160f81b031916908160001a905350600f60fb1b816001815181106121d2576121d261335e565b60200101906001600160f81b031916908160001a90535060006121f68460026133b9565b6122019060016133d0565b90505b6001811115612279576f181899199a1a9b1b9c1cb0b131b232b360811b85600f16601081106122355761223561335e565b1a60f81b82828151811061224b5761224b61335e565b60200101906001600160f81b031916908160001a90535060049490941c93612272816133e3565b9050612204565b508315610f315760405162461bcd60e51b815260206004820181905260248201527f537472696e67733a20686578206c656e67746820696e73756666696369656e7460448201526064016109c9565b6000826122d5858461255c565b14949350505050565b600080546001600160a01b038381166001600160a01b0319831681178455604051919092169283917f8be0079c531659141344cd1fd0a4f28419497f9722a3daafe3b4186f6b6457e09190a35050565b816001600160a01b0316836001600160a01b03160361238f5760405162461bcd60e51b815260206004820152601960248201527f4552433732313a20617070726f766520746f2063616c6c65720000000000000060448201526064016109c9565b6001600160a01b03838116600081815260066020908152604080832094871680845294825291829020805460ff191686151590811790915591519182527f17307eab39ab6107e8899845ad3d59bd9653f200f220920489ca2b5937696c31910160405180910390a3505050565b6124078484846120e5565b612413848484846125a9565b6115455760405162461bcd60e51b81526004016109c9906133fa565b600081815260096020908152604080832090516060939261245492600101910161344c565b60405160208183030381529060405290506000601460096000868152602001908152602001600020600101805461248a90612f5e565b905011156124b25760405180604001604052806002815260200161034360f41b8152506124ce565b60405180604001604052806002815260200161036360f41b8152505b905060006124fc82846040516020016124e89291906134cd565b6040516020818303038152906040526126a7565b60405160200161250c9190613845565b604051602081830303815290604052905061253383826040516020016124e892919061388a565b6040516020016125439190613920565b6040516020818303038152906040529350505050919050565b600081815b84518110156125a15761258d828683815181106125805761258061335e565b60200260200101516127f9565b91508061259981613374565b915050612561565b509392505050565b60006001600160a01b0384163b1561269f57604051630a85bd0160e11b81526001600160a01b0385169063150b7a02906125ed903390899088908890600401613965565b6020604051808303816000875af1925050508015612628575060408051601f3d908101601f19168201909252612625918101906139a2565b60015b612685573d808015612656576040519150601f19603f3d011682016040523d82523d6000602084013e61265b565b606091505b50805160000361267d5760405162461bcd60e51b81526004016109c9906133fa565b805181602001fd5b6001600160e01b031916630a85bd0160e11b14905061188e565b50600161188e565b606081516000036126c657505060408051602081019091526000815290565b60006040518060600160405280604081526020016139c060409139905060006003845160026126f591906133d0565b6126ff9190613237565b61270a9060046133b9565b6001600160401b0381111561272157612721612a4b565b6040519080825280601f01601f19166020018201604052801561274b576020820181803683370190505b509050600182016020820185865187015b808210156127b7576003820191508151603f8160121c168501518453600184019350603f81600c1c168501518453600184019350603f8160061c168501518453600184019350603f811685015184535060018301925061275c565b50506003865106600181146127d357600281146127e6576127ee565b603d6001830353603d60028303536127ee565b603d60018303535b509195945050505050565b6000818310612815576000828152602084905260409020610f31565b6000838152602083905260409020610f31565b6001600160e01b031981168114610fd857600080fd5b60006020828403121561285057600080fd5b8135610f3181612828565b60005b8381101561287657818101518382015260200161285e565b50506000910152565b6000815180845261289781602086016020860161285b565b601f01601f19169290920160200192915050565b602081526000610f31602083018461287f565b6000602082840312156128d057600080fd5b5035919050565b80356001600160a01b03811681146128ee57600080fd5b919050565b6000806040838503121561290657600080fd5b61290f836128d7565b946020939093013593505050565b60008083601f84011261292f57600080fd5b5081356001600160401b0381111561294657600080fd5b602083019150836020828501011115611ab157600080fd5b60008060008060006060868803121561297657600080fd5b8535945060208601356001600160401b038082111561299457600080fd5b6129a089838a0161291d565b909650945060408801359150808211156129b957600080fd5b818801915088601f8301126129cd57600080fd5b8135818111156129dc57600080fd5b8960208260051b85010111156129f157600080fd5b9699959850939650602001949392505050565b600060208284031215612a1657600080fd5b610f31826128d7565b60008060408385031215612a3257600080fd5b82359150612a42602084016128d7565b90509250929050565b634e487b7160e01b600052604160045260246000fd5b604051601f8201601f191681016001600160401b0381118282101715612a8957612a89612a4b565b604052919050565b60006001600160401b03831115612aaa57612aaa612a4b565b612abd601f8401601f1916602001612a61565b9050828152838383011115612ad157600080fd5b828260208301376000602084830101529392505050565b600082601f830112612af957600080fd5b610f3183833560208501612a91565b600060208284031215612b1a57600080fd5b81356001600160401b03811115612b3057600080fd5b61188e84828501612ae8565b600080600060608486031215612b5157600080fd5b612b5a846128d7565b9250612b68602085016128d7565b9150604084013590509250925092565b600080600060608486031215612b8d57600080fd5b612b96846128d7565b92506020808501356001600160401b0380821115612bb357600080fd5b612bbf88838901612ae8565b94506040870135915080821115612bd557600080fd5b818701915087601f830112612be957600080fd5b813581811115612bfb57612bfb612a4b565b8060051b9150612c0c848301612a61565b818152918301840191848101908a841115612c2657600080fd5b938501935b83851015612c4457843582529385019390850190612c2b565b8096505050505050509250925092565b600080600060408486031215612c6957600080fd5b8335925060208401356001600160401b03811115612c8657600080fd5b612c928682870161291d565b9497909650939450505050565b60008060008060608587031215612cb557600080fd5b84359350612cc5602086016128d7565b925060408501356001600160401b03811115612ce057600080fd5b612cec8782880161291d565b95989497509550505050565b634e487b7160e01b600052602160045260246000fd5b6020810160038310612d3057634e487b7160e01b600052602160045260246000fd5b91905290565b60008060408385031215612d4957600080fd5b612d52836128d7565b915060208301358015158114612d6757600080fd5b809150509250929050565b60008060008060808587031215612d8857600080fd5b612d91856128d7565b9350612d9f602086016128d7565b92506040850135915060608501356001600160401b03811115612dc157600080fd5b8501601f81018713612dd257600080fd5b612de187823560208401612a91565b91505092959194509250565b848152608060208201526000612e06608083018661287f565b8460408401528281036060840152612e1e818561287f565b979650505050505050565b60008060408385031215612e3c57600080fd5b612e45836128d7565b9150612a42602084016128d7565b60008060008060608587031215612e6957600080fd5b612e72856128d7565b93506020850135925060408501356001600160401b03811115612ce057600080fd5b60008060208385031215612ea757600080fd5b82356001600160401b03811115612ebd57600080fd5b612ec98582860161291d565b90969095509350505050565b60008060408385031215612ee857600080fd5b8235915060208301356001600160401b03811115612f0557600080fd5b612f1185828601612ae8565b9150509250929050565b600060208284031215612f2d57600080fd5b813560038110610f3157600080fd5b60008060408385031215612f4f57600080fd5b50508035926020909101359150565b600181811c90821680612f7257607f821691505b602082108103612f9257634e487b7160e01b600052602260045260246000fd5b50919050565b60208082526023908201527f596f7520616c726561647920686176652061204b6e6f776c656467654c6179656040820152621c925160ea1b606082015260800190565b8183823760009101908152919050565b6020808252601490820152732430b73236329030b63932b0b23c903a30b5b2b760611b604082015260600190565b60208082526024908201527f496e636f727265637420616d6f756e74206f662045544820666f72206d696e746040820152632066656560e01b606082015260800190565b634e487b7160e01b600052601160045260246000fd5b818103818111156108965761089661305d565b6020808252602d908201527f4552433732313a2063616c6c6572206973206e6f7420746f6b656e206f776e6560408201526c1c881bdc88185c1c1c9bdd9959609a1b606082015260800190565b600081516130e581856020860161285b565b9290920192915050565b6000835161310181846020880161285b565b603b60f81b908301908152835161311f81600184016020880161285b565b01600101949350505050565b6000825161313d81846020870161285b565b9190910192915050565b600181815b808511156131825781600019048211156131685761316861305d565b8085161561317557918102915b93841c939080029061314c565b509250929050565b60008261319957506001610896565b816131a657506000610896565b81600181146131bc57600281146131c6576131e2565b6001915050610896565b60ff8411156131d7576131d761305d565b50506001821b610896565b5060208310610133831016604e8410600b8410161715613205575081810a610896565b61320f8383613147565b80600019048211156132235761322361305d565b029392505050565b6000610f31838361318a565b60008261325457634e487b7160e01b600052601260045260246000fd5b500490565b601f821115610a6a57600081815260208120601f850160051c810160208610156132805750805b601f850160051c820191505b81811015611da85782815560010161328c565b81516001600160401b038111156132b8576132b8612a4b565b6132cc816132c68454612f5e565b84613259565b602080601f83116001811461330157600084156132e95750858301515b600019600386901b1c1916600185901b178555611da8565b600085815260208120601f198616915b8281101561333057888601518255948401946001909101908401613311565b508582101561334e5787850151600019600388901b60f8161c191681555b5050505050600190811b01905550565b634e487b7160e01b600052603260045260246000fd5b6000600182016133865761338661305d565b5060010190565b8481526080602082015260006133a6608083018661287f565b6040830194909452506060015292915050565b80820281158282048414176108965761089661305d565b808201808211156108965761089661305d565b6000816133f2576133f261305d565b506000190190565b60208082526032908201527f4552433732313a207472616e7366657220746f206e6f6e20455243373231526560408201527131b2b4bb32b91034b6b83632b6b2b73a32b960711b606082015260800190565b600080835461345a81612f5e565b600182811680156134725760018114613487576134b6565b60ff19841687528215158302870194506134b6565b8760005260208060002060005b858110156134ad5781548a820152908401908201613494565b50505082870194505b5050620b9d1b60ea1b835250506003019392505050565b7f3c73766720786d6c6e733d22687474703a2f2f7777772e77332e6f72672f323081527f30302f737667222077696474683d2237323022206865696768743d223732302260208201527f3e3c726563742077696474683d223130302522206865696768743d223130302560408201527f222f3e3c73766720786d6c6e733d22687474703a2f2f7777772e77332e6f726760608201527f2f323030302f737667222077696474683d2231353022206865696768743d223160808201527f3530222076657273696f6e3d22312e32222076696577426f783d222d3230302060a08201527f2d353020313030302031303030223e3c706174682066696c6c3d22234646464660c08201527f46462220643d224d3236342e35203139302e3563302d31332e382031312e322d60e08201527f32352032352d3235483536386331332e3820302032352031312e3220323520326101008201527f357634393063302031332e382d31312e322032352d3235203235483238392e356101208201527f632d31332e3820302d32352d31312e322d32352d32357a222f3e3c70617468206101408201527f66696c6c3d22234646464646462220643d224d3236352036323463302d31332e6101608201527f382031312e322d32352032352d3235683534336331332e3820302032352031316101808201527f2e322032352032357635362e3563302031332e382d31312e322032352d3235206101a08201527f323548323930632d31332e3820302d32352d31312e322d32352d32357a222f3e6101c08201527f3c706174682066696c6c3d22234646464646462220643d224d30203139302e356101e08201527f63302d31332e382031312e322d32352032352d3235683534336331332e3820306102008201527f2032352031312e322032352032355632343763302031332e382d31312e3220326102208201527f352d3235203235483235632d31332e3820302d32352d31312e322d32352d32356102408201527f7a222f3e3c2f7376673e3c7465787420783d2233302220793d223637302220736102608201526b03a3cb6329e913337b73a1d160a51b610280820152600061188e61382c6138266137fd61028c8601886130d3565b7f70782073616e732d73657269663b66696c6c3a23666666223e00000000000000815260190190565b856130d3565b6c1e17ba32bc3a1f1e17b9bb339f60991b8152600d0190565b7f646174613a696d6167652f7376672b786d6c3b6261736536342c00000000000081526000825161387d81601a85016020870161285b565b91909101601a0192915050565b683d913730b6b2911d1160b91b815282516000906138af81600985016020880161285b565b6b1116101134b6b0b3b2911d1160a11b60099184019182015283516138db81601584016020880161285b565b7f222c20226465736372697074696f6e223a20224b6e6f776c656467654c617965601592909101918201526572204944227d60d01b6035820152603b01949350505050565b7f646174613a6170706c69636174696f6e2f6a736f6e3b6261736536342c00000081526000825161395881601d85016020870161285b565b91909101601d0192915050565b6001600160a01b03858116825284166020820152604081018390526080606082018190526000906139989083018461287f565b9695505050505050565b6000602082840312156139b457600080fd5b8151610f318161282856fe4142434445464748494a4b4c4d4e4f505152535455565758595a6162636465666768696a6b6c6d6e6f707172737475767778797a303132333435363738392b2fa2646970667358221220c3a797db73272abcdf577c9b6ca525eea401ad7c67c8c46f01cea6c71d656bce64736f6c63430008110033",
  "linkReferences": {},
  "deployedLinkReferences": {}
}