{
  "_format": "hh-sol-artifact-1",
  "contractName": "KnowledgeLayerCourse",
  "sourceName": "contracts/KnowledgeLayerCourse.sol",
  "abi": [
    {
      "inputs": [
        {
          "internalType": "address",
          "name": "_knowledgeLayerIdAddress",
          "type": "address"
        }
      ],
      "stateMutability": "nonpayable",
      "type": "constructor"
    },
    {
      "anonymous": false,
      "inputs": [
        {
          "indexed": true,
          "internalType": "address",
          "name": "account",
          "type": "address"
        },
        {
          "indexed": true,
          "internalType": "address",
          "name": "operator",
          "type": "address"
        },
        {
          "indexed": false,
          "internalType": "bool",
          "name": "approved",
          "type": "bool"
        }
      ],
      "name": "ApprovalForAll",
      "type": "event"
    },
    {
      "anonymous": false,
      "inputs": [
        {
          "indexed": true,
          "internalType": "uint256",
          "name": "courseId",
          "type": "uint256"
        },
        {
          "indexed": false,
          "internalType": "uint256",
          "name": "ownerId",
          "type": "uint256"
        },
        {
          "indexed": false,
          "internalType": "uint256",
          "name": "platformId",
          "type": "uint256"
        },
        {
          "indexed": false,
          "internalType": "uint256",
          "name": "price",
          "type": "uint256"
        },
        {
          "indexed": false,
          "internalType": "address",
          "name": "token",
          "type": "address"
        },
        {
          "indexed": false,
          "internalType": "string",
          "name": "dataUri",
          "type": "string"
        }
      ],
      "name": "CourseCreated",
      "type": "event"
    },
    {
      "anonymous": false,
      "inputs": [
        {
          "indexed": true,
          "internalType": "uint256",
          "name": "courseId",
          "type": "uint256"
        },
        {
          "indexed": false,
          "internalType": "uint256",
          "name": "price",
          "type": "uint256"
        },
        {
          "indexed": false,
          "internalType": "address",
          "name": "token",
          "type": "address"
        },
        {
          "indexed": false,
          "internalType": "string",
          "name": "dataUri",
          "type": "string"
        }
      ],
      "name": "CourseUpdated",
      "type": "event"
    },
    {
      "anonymous": false,
      "inputs": [
        {
          "indexed": true,
          "internalType": "bytes32",
          "name": "role",
          "type": "bytes32"
        },
        {
          "indexed": true,
          "internalType": "bytes32",
          "name": "previousAdminRole",
          "type": "bytes32"
        },
        {
          "indexed": true,
          "internalType": "bytes32",
          "name": "newAdminRole",
          "type": "bytes32"
        }
      ],
      "name": "RoleAdminChanged",
      "type": "event"
    },
    {
      "anonymous": false,
      "inputs": [
        {
          "indexed": true,
          "internalType": "bytes32",
          "name": "role",
          "type": "bytes32"
        },
        {
          "indexed": true,
          "internalType": "address",
          "name": "account",
          "type": "address"
        },
        {
          "indexed": true,
          "internalType": "address",
          "name": "sender",
          "type": "address"
        }
      ],
      "name": "RoleGranted",
      "type": "event"
    },
    {
      "anonymous": false,
      "inputs": [
        {
          "indexed": true,
          "internalType": "bytes32",
          "name": "role",
          "type": "bytes32"
        },
        {
          "indexed": true,
          "internalType": "address",
          "name": "account",
          "type": "address"
        },
        {
          "indexed": true,
          "internalType": "address",
          "name": "sender",
          "type": "address"
        }
      ],
      "name": "RoleRevoked",
      "type": "event"
    },
    {
      "anonymous": false,
      "inputs": [
        {
          "indexed": true,
          "internalType": "address",
          "name": "operator",
          "type": "address"
        },
        {
          "indexed": true,
          "internalType": "address",
          "name": "from",
          "type": "address"
        },
        {
          "indexed": true,
          "internalType": "address",
          "name": "to",
          "type": "address"
        },
        {
          "indexed": false,
          "internalType": "uint256[]",
          "name": "ids",
          "type": "uint256[]"
        },
        {
          "indexed": false,
          "internalType": "uint256[]",
          "name": "values",
          "type": "uint256[]"
        }
      ],
      "name": "TransferBatch",
      "type": "event"
    },
    {
      "anonymous": false,
      "inputs": [
        {
          "indexed": true,
          "internalType": "address",
          "name": "operator",
          "type": "address"
        },
        {
          "indexed": true,
          "internalType": "address",
          "name": "from",
          "type": "address"
        },
        {
          "indexed": true,
          "internalType": "address",
          "name": "to",
          "type": "address"
        },
        {
          "indexed": false,
          "internalType": "uint256",
          "name": "id",
          "type": "uint256"
        },
        {
          "indexed": false,
          "internalType": "uint256",
          "name": "value",
          "type": "uint256"
        }
      ],
      "name": "TransferSingle",
      "type": "event"
    },
    {
      "anonymous": false,
      "inputs": [
        {
          "indexed": false,
          "internalType": "string",
          "name": "value",
          "type": "string"
        },
        {
          "indexed": true,
          "internalType": "uint256",
          "name": "id",
          "type": "uint256"
        }
      ],
      "name": "URI",
      "type": "event"
    },
    {
      "inputs": [],
      "name": "DEFAULT_ADMIN_ROLE",
      "outputs": [
        {
          "internalType": "bytes32",
          "name": "",
          "type": "bytes32"
        }
      ],
      "stateMutability": "view",
      "type": "function"
    },
    {
      "inputs": [],
      "name": "ESCROW_ROLE",
      "outputs": [
        {
          "internalType": "bytes32",
          "name": "",
          "type": "bytes32"
        }
      ],
      "stateMutability": "view",
      "type": "function"
    },
    {
      "inputs": [
        {
          "internalType": "address",
          "name": "account",
          "type": "address"
        },
        {
          "internalType": "uint256",
          "name": "id",
          "type": "uint256"
        }
      ],
      "name": "balanceOf",
      "outputs": [
        {
          "internalType": "uint256",
          "name": "",
          "type": "uint256"
        }
      ],
      "stateMutability": "view",
      "type": "function"
    },
    {
      "inputs": [
        {
          "internalType": "address[]",
          "name": "accounts",
          "type": "address[]"
        },
        {
          "internalType": "uint256[]",
          "name": "ids",
          "type": "uint256[]"
        }
      ],
      "name": "balanceOfBatch",
      "outputs": [
        {
          "internalType": "uint256[]",
          "name": "",
          "type": "uint256[]"
        }
      ],
      "stateMutability": "view",
      "type": "function"
    },
    {
      "inputs": [
        {
          "internalType": "uint256",
          "name": "_profileId",
          "type": "uint256"
        },
        {
          "internalType": "uint256",
          "name": "_courseId",
          "type": "uint256"
        }
      ],
      "name": "buyCourse",
      "outputs": [],
      "stateMutability": "nonpayable",
      "type": "function"
    },
    {
      "inputs": [
        {
          "internalType": "uint256",
          "name": "",
          "type": "uint256"
        }
      ],
      "name": "courses",
      "outputs": [
        {
          "internalType": "uint256",
          "name": "ownerId",
          "type": "uint256"
        },
        {
          "internalType": "uint256",
          "name": "platformId",
          "type": "uint256"
        },
        {
          "internalType": "uint256",
          "name": "price",
          "type": "uint256"
        },
        {
          "internalType": "address",
          "name": "token",
          "type": "address"
        },
        {
          "internalType": "string",
          "name": "dataUri",
          "type": "string"
        }
      ],
      "stateMutability": "view",
      "type": "function"
    },
    {
      "inputs": [
        {
          "internalType": "uint256",
          "name": "_profileId",
          "type": "uint256"
        },
        {
          "internalType": "uint256",
          "name": "_platformId",
          "type": "uint256"
        },
        {
          "internalType": "uint256",
          "name": "_price",
          "type": "uint256"
        },
        {
          "internalType": "address",
          "name": "_token",
          "type": "address"
        },
        {
          "internalType": "string",
          "name": "_dataUri",
          "type": "string"
        }
      ],
      "name": "createCourse",
      "outputs": [],
      "stateMutability": "nonpayable",
      "type": "function"
    },
    {
      "inputs": [
        {
          "internalType": "uint256",
          "name": "_courseId",
          "type": "uint256"
        }
      ],
      "name": "getCourse",
      "outputs": [
        {
          "components": [
            {
              "internalType": "uint256",
              "name": "ownerId",
              "type": "uint256"
            },
            {
              "internalType": "uint256",
              "name": "platformId",
              "type": "uint256"
            },
            {
              "internalType": "uint256",
              "name": "price",
              "type": "uint256"
            },
            {
              "internalType": "address",
              "name": "token",
              "type": "address"
            },
            {
              "internalType": "string",
              "name": "dataUri",
              "type": "string"
            }
          ],
          "internalType": "struct KnowledgeLayerCourse.Course",
          "name": "",
          "type": "tuple"
        }
      ],
      "stateMutability": "view",
      "type": "function"
    },
    {
      "inputs": [
        {
          "internalType": "bytes32",
          "name": "role",
          "type": "bytes32"
        }
      ],
      "name": "getRoleAdmin",
      "outputs": [
        {
          "internalType": "bytes32",
          "name": "",
          "type": "bytes32"
        }
      ],
      "stateMutability": "view",
      "type": "function"
    },
    {
      "inputs": [
        {
          "internalType": "bytes32",
          "name": "role",
          "type": "bytes32"
        },
        {
          "internalType": "address",
          "name": "account",
          "type": "address"
        }
      ],
      "name": "grantRole",
      "outputs": [],
      "stateMutability": "nonpayable",
      "type": "function"
    },
    {
      "inputs": [
        {
          "internalType": "bytes32",
          "name": "role",
          "type": "bytes32"
        },
        {
          "internalType": "address",
          "name": "account",
          "type": "address"
        }
      ],
      "name": "hasRole",
      "outputs": [
        {
          "internalType": "bool",
          "name": "",
          "type": "bool"
        }
      ],
      "stateMutability": "view",
      "type": "function"
    },
    {
      "inputs": [
        {
          "internalType": "address",
          "name": "account",
          "type": "address"
        },
        {
          "internalType": "address",
          "name": "operator",
          "type": "address"
        }
      ],
      "name": "isApprovedForAll",
      "outputs": [
        {
          "internalType": "bool",
          "name": "",
          "type": "bool"
        }
      ],
      "stateMutability": "view",
      "type": "function"
    },
    {
      "inputs": [
        {
          "internalType": "bytes32",
          "name": "role",
          "type": "bytes32"
        },
        {
          "internalType": "address",
          "name": "account",
          "type": "address"
        }
      ],
      "name": "renounceRole",
      "outputs": [],
      "stateMutability": "nonpayable",
      "type": "function"
    },
    {
      "inputs": [
        {
          "internalType": "bytes32",
          "name": "role",
          "type": "bytes32"
        },
        {
          "internalType": "address",
          "name": "account",
          "type": "address"
        }
      ],
      "name": "revokeRole",
      "outputs": [],
      "stateMutability": "nonpayable",
      "type": "function"
    },
    {
      "inputs": [
        {
          "internalType": "address",
          "name": "",
          "type": "address"
        },
        {
          "internalType": "address",
          "name": "",
          "type": "address"
        },
        {
          "internalType": "uint256[]",
          "name": "",
          "type": "uint256[]"
        },
        {
          "internalType": "uint256[]",
          "name": "",
          "type": "uint256[]"
        },
        {
          "internalType": "bytes",
          "name": "",
          "type": "bytes"
        }
      ],
      "name": "safeBatchTransferFrom",
      "outputs": [],
      "stateMutability": "nonpayable",
      "type": "function"
    },
    {
      "inputs": [
        {
          "internalType": "address",
          "name": "",
          "type": "address"
        },
        {
          "internalType": "address",
          "name": "",
          "type": "address"
        },
        {
          "internalType": "uint256",
          "name": "",
          "type": "uint256"
        },
        {
          "internalType": "uint256",
          "name": "",
          "type": "uint256"
        },
        {
          "internalType": "bytes",
          "name": "",
          "type": "bytes"
        }
      ],
      "name": "safeTransferFrom",
      "outputs": [],
      "stateMutability": "nonpayable",
      "type": "function"
    },
    {
      "inputs": [
        {
          "internalType": "address",
          "name": "operator",
          "type": "address"
        },
        {
          "internalType": "bool",
          "name": "approved",
          "type": "bool"
        }
      ],
      "name": "setApprovalForAll",
      "outputs": [],
      "stateMutability": "nonpayable",
      "type": "function"
    },
    {
      "inputs": [
        {
          "internalType": "bytes4",
          "name": "interfaceId",
          "type": "bytes4"
        }
      ],
      "name": "supportsInterface",
      "outputs": [
        {
          "internalType": "bool",
          "name": "",
          "type": "bool"
        }
      ],
      "stateMutability": "view",
      "type": "function"
    },
    {
      "inputs": [
        {
          "internalType": "uint256",
          "name": "_profileId",
          "type": "uint256"
        },
        {
          "internalType": "uint256",
          "name": "_courseId",
          "type": "uint256"
        },
        {
          "internalType": "uint256",
          "name": "_price",
          "type": "uint256"
        },
        {
          "internalType": "address",
          "name": "_token",
          "type": "address"
        },
        {
          "internalType": "string",
          "name": "_dataUri",
          "type": "string"
        }
      ],
      "name": "updateCourse",
      "outputs": [],
      "stateMutability": "nonpayable",
      "type": "function"
    },
    {
      "inputs": [
        {
          "internalType": "uint256",
          "name": "",
          "type": "uint256"
        }
      ],
      "name": "uri",
      "outputs": [
        {
          "internalType": "string",
          "name": "",
          "type": "string"
        }
      ],
      "stateMutability": "view",
      "type": "function"
    }
  ],
  "bytecode": "0x60806040523480156200001157600080fd5b50604051620021a5380380620021a5833981016040819052620000349162000161565b6040805160208101909152600081526200004e8162000096565b506200005c600033620000a8565b600680546001600160a01b0319166001600160a01b0383161790556200008f6005620000b4602090811b62000d1e17901c565b5062000304565b6002620000a4828262000238565b5050565b620000a48282620000bd565b80546001019055565b60008281526003602090815260408083206001600160a01b038516845290915290205460ff16620000a45760008281526003602090815260408083206001600160a01b03851684529091529020805460ff191660011790556200011d3390565b6001600160a01b0316816001600160a01b0316837f2f8788117e7eff1d82e926ec794901d17c78024a50270940304540a733656f0d60405160405180910390a45050565b6000602082840312156200017457600080fd5b81516001600160a01b03811681146200018c57600080fd5b9392505050565b634e487b7160e01b600052604160045260246000fd5b600181811c90821680620001be57607f821691505b602082108103620001df57634e487b7160e01b600052602260045260246000fd5b50919050565b601f8211156200023357600081815260208120601f850160051c810160208610156200020e5750805b601f850160051c820191505b818110156200022f578281556001016200021a565b5050505b505050565b81516001600160401b0381111562000254576200025462000193565b6200026c81620002658454620001a9565b84620001e5565b602080601f831160018114620002a457600084156200028b5750858301515b600019600386901b1c1916600185901b1785556200022f565b600085815260208120601f198616915b82811015620002d557888601518255948401946001909101908401620002b4565b5085821015620002f45787850151600019600388901b60f8161c191681555b5050505050600190811b01905550565b611e9180620003146000396000f3fe608060405234801561001057600080fd5b506004361061012b5760003560e01c80636ce76f30116100ad578063a22cb46511610071578063a22cb465146102c3578063d547741f146102d6578063e6194369146102e9578063e985e9c5146102fc578063f242432a1461033857600080fd5b80636ce76f301461024a57806391d148541461027157806396f979d21461028457806399dbff01146102a8578063a217fddf146102bb57600080fd5b80632eb2c2d6116100f45780632eb2c2d6146101dc5780632f2ff15d146101f157806334ba6ea81461020457806336568abe146102175780634e1273f41461022a57600080fd5b8062fdd58e1461013057806301ffc9a7146101565780630b91e28d146101795780630e89341c14610199578063248a9ca3146101b9575b600080fd5b61014361013e36600461149c565b610346565b6040519081526020015b60405180910390f35b6101696101643660046114de565b6103df565b604051901515815260200161014d565b61018c6101873660046114fb565b6103f9565b60405161014d9190611564565b6101ac6101a73660046114fb565b61056e565b60405161014d91906115b7565b6101436101c73660046114fb565b60009081526003602052604090206001015490565b6101ef6101ea366004611720565b610602565b005b6101ef6101ff3660046117ce565b61064a565b6101ef6102123660046117fe565b610674565b6101ef6102253660046117ce565b610801565b61023d610238366004611872565b61087f565b60405161014d919061193f565b6101437f2fdac322ee704ce09f0773f7f3f92eb98d5e7c836ee9c056cccd5f61041e5e3f81565b61016961027f3660046117ce565b6109a9565b6102976102923660046114fb565b6109d4565b60405161014d959493929190611983565b6101ef6102b63660046119c1565b610a99565b610143600081565b6101ef6102d13660046119f1565b610b55565b6101ef6102e43660046117ce565b610b60565b6101ef6102f73660046117fe565b610b85565b61016961030a366004611a1f565b6001600160a01b03918216600090815260016020908152604080832093909416825291909152205460ff1690565b6101ef6101ea366004611a4d565b60006001600160a01b0383166103b65760405162461bcd60e51b815260206004820152602a60248201527f455243313135353a2061646472657373207a65726f206973206e6f742061207660448201526930b634b21037bbb732b960b11b60648201526084015b60405180910390fd5b506000818152602081815260408083206001600160a01b03861684529091529020545b92915050565b60006103ea82610d27565b806103d957506103d982610d77565b6104346040518060a0016040528060008152602001600081526020016000815260200160006001600160a01b03168152602001606081525090565b60055482106104855760405162461bcd60e51b815260206004820152601960248201527f5468697320636f7572736520646f65736e27742065786973740000000000000060448201526064016103ad565b600082815260046020818152604092839020835160a0810185528154815260018201549281019290925260028101549382019390935260038301546001600160a01b0316606082015290820180549192916080840191906104e590611ab6565b80601f016020809104026020016040519081016040528092919081815260200182805461051190611ab6565b801561055e5780601f106105335761010080835404028352916020019161055e565b820191906000526020600020905b81548152906001019060200180831161054157829003601f168201915b5050505050815250509050919050565b60606002805461057d90611ab6565b80601f01602080910402602001604051908101604052809291908181526020018280546105a990611ab6565b80156105f65780601f106105cb576101008083540402835291602001916105f6565b820191906000526020600020905b8154815290600101906020018083116105d957829003601f168201915b50505050509050919050565b60405162461bcd60e51b815260206004820152601d60248201527f546f6b656e207472616e73666572206973206e6f7420616c6c6f77656400000060448201526064016103ad565b60008281526003602052604090206001015461066581610d9c565b61066f8383610da9565b505050565b60065485906001600160a01b0316632fa117e582336040516001600160e01b031960e085901b16815260048101929092526001600160a01b03166024820152604401602060405180830381865afa1580156106d3573d6000803e3d6000fd5b505050506040513d601f19601f820116820180604052508101906106f79190611af0565b61073b5760405162461bcd60e51b81526020600482015260156024820152744e6f74206f776e6572206f722064656c656761746560581b60448201526064016103ad565b6000858152600460205260409020805487146107895760405162461bcd60e51b815260206004820152600d60248201526c2737ba103a34329037bbb732b960991b60448201526064016103ad565b600281018590556003810180546001600160a01b0319166001600160a01b038616179055600481016107bb8482611b53565b50857f0e51a51c5f732afe9d8dda86036d0588de49fc5334205793a2a84a6ceb5ef7da8686866040516107f093929190611c13565b60405180910390a250505050505050565b6001600160a01b03811633146108715760405162461bcd60e51b815260206004820152602f60248201527f416363657373436f6e74726f6c3a2063616e206f6e6c792072656e6f756e636560448201526e103937b632b9903337b91039b2b63360891b60648201526084016103ad565b61087b8282610e2f565b5050565b606081518351146108e45760405162461bcd60e51b815260206004820152602960248201527f455243313135353a206163636f756e747320616e6420696473206c656e677468604482015268040dad2e6dac2e8c6d60bb1b60648201526084016103ad565b6000835167ffffffffffffffff811115610900576109006115ca565b604051908082528060200260200182016040528015610929578160200160208202803683370190505b50905060005b84518110156109a15761097485828151811061094d5761094d611c46565b602002602001015185838151811061096757610967611c46565b6020026020010151610346565b82828151811061098657610986611c46565b602090810291909101015261099a81611c72565b905061092f565b509392505050565b60009182526003602090815260408084206001600160a01b0393909316845291905290205460ff1690565b6004602081905260009182526040909120805460018201546002830154600384015494840180549395929491936001600160a01b0390931692610a1690611ab6565b80601f0160208091040260200160405190810160405280929190818152602001828054610a4290611ab6565b8015610a8f5780601f10610a6457610100808354040283529160200191610a8f565b820191906000526020600020905b815481529060010190602001808311610a7257829003601f168201915b5050505050905085565b7f2fdac322ee704ce09f0773f7f3f92eb98d5e7c836ee9c056cccd5f61041e5e3f610ac381610d9c565b6006546040516331a9108f60e11b8152600481018590526000916001600160a01b031690636352211e90602401602060405180830381865afa158015610b0d573d6000803e3d6000fd5b505050506040513d601f19601f82011682018060405250810190610b319190611c8b565b9050610b4f8184600160405180602001604052806000815250610e96565b50505050565b61087b338383610faa565b600082815260036020526040902060010154610b7b81610d9c565b61066f8383610e2f565b60065485906001600160a01b0316632fa117e582336040516001600160e01b031960e085901b16815260048101929092526001600160a01b03166024820152604401602060405180830381865afa158015610be4573d6000803e3d6000fd5b505050506040513d601f19601f82011682018060405250810190610c089190611af0565b610c4c5760405162461bcd60e51b81526020600482015260156024820152744e6f74206f776e6572206f722064656c656761746560581b60448201526064016103ad565b6000610c5760055490565b6040805160a08101825289815260208082018a81528284018a81526001600160a01b038a811660608601908152608086018b815260008981526004968790529790972086518155935160018501559151600284015590516003830180546001600160a01b031916919092161790559251939450909290820190610cda9082611b53565b505060058054600101905550807f3a8fd0fe37a8c321d641651e868e7beb96ff207804b33e764a2a26b692110c6e88888888886040516107f0959493929190611983565b80546001019055565b60006001600160e01b03198216636cdb3d1360e11b1480610d5857506001600160e01b031982166303a24d0760e21b145b806103d957506301ffc9a760e01b6001600160e01b03198316146103d9565b60006001600160e01b03198216637965db0b60e01b14806103d957506103d982610d27565b610da6813361108a565b50565b610db382826109a9565b61087b5760008281526003602090815260408083206001600160a01b03851684529091529020805460ff19166001179055610deb3390565b6001600160a01b0316816001600160a01b0316837f2f8788117e7eff1d82e926ec794901d17c78024a50270940304540a733656f0d60405160405180910390a45050565b610e3982826109a9565b1561087b5760008281526003602090815260408083206001600160a01b0385168085529252808320805460ff1916905551339285917ff6391f5c32d9c69d2a47ea670b442974b53935d1edc7fd64eb21e047a839171b9190a45050565b6001600160a01b038416610ef65760405162461bcd60e51b815260206004820152602160248201527f455243313135353a206d696e7420746f20746865207a65726f206164647265736044820152607360f81b60648201526084016103ad565b336000610f02856110e3565b90506000610f0f856110e3565b90506000868152602081815260408083206001600160a01b038b16845290915281208054879290610f41908490611ca8565b909155505060408051878152602081018790526001600160a01b03808a1692600092918716917fc3d58168c5ae7397731d063d5bbf3d657854427343f4c083240f7aacaa2d0f62910160405180910390a4610fa183600089898989611136565b50505050505050565b816001600160a01b0316836001600160a01b03160361101d5760405162461bcd60e51b815260206004820152602960248201527f455243313135353a2073657474696e6720617070726f76616c20737461747573604482015268103337b91039b2b63360b91b60648201526084016103ad565b6001600160a01b03838116600081815260016020908152604080832094871680845294825291829020805460ff191686151590811790915591519182527f17307eab39ab6107e8899845ad3d59bd9653f200f220920489ca2b5937696c31910160405180910390a3505050565b61109482826109a9565b61087b576110a1816112d2565b6110ac8360206112e4565b6040516020016110bd929190611cbb565b60408051601f198184030181529082905262461bcd60e51b82526103ad916004016115b7565b6040805160018082528183019092526060916000919060208083019080368337019050509050828160008151811061111d5761111d611c46565b602090810291909101015292915050565b505050505050565b6001600160a01b0384163b1561112e5760405163f23a6e6160e01b81526001600160a01b0385169063f23a6e619061117a9089908990889088908890600401611d30565b6020604051808303816000875af19250505080156111b5575060408051601f3d908101601f191682019092526111b291810190611d6a565b60015b611261576111c1611d87565b806308c379a0036111fa57506111d5611da3565b806111e057506111fc565b8060405162461bcd60e51b81526004016103ad91906115b7565b505b60405162461bcd60e51b815260206004820152603460248201527f455243313135353a207472616e7366657220746f206e6f6e2d455243313135356044820152732932b1b2b4bb32b91034b6b83632b6b2b73a32b960611b60648201526084016103ad565b6001600160e01b0319811663f23a6e6160e01b14610fa15760405162461bcd60e51b815260206004820152602860248201527f455243313135353a204552433131353552656365697665722072656a656374656044820152676420746f6b656e7360c01b60648201526084016103ad565b60606103d96001600160a01b03831660145b606060006112f3836002611e2d565b6112fe906002611ca8565b67ffffffffffffffff811115611316576113166115ca565b6040519080825280601f01601f191660200182016040528015611340576020820181803683370190505b509050600360fc1b8160008151811061135b5761135b611c46565b60200101906001600160f81b031916908160001a905350600f60fb1b8160018151811061138a5761138a611c46565b60200101906001600160f81b031916908160001a90535060006113ae846002611e2d565b6113b9906001611ca8565b90505b6001811115611431576f181899199a1a9b1b9c1cb0b131b232b360811b85600f16601081106113ed576113ed611c46565b1a60f81b82828151811061140357611403611c46565b60200101906001600160f81b031916908160001a90535060049490941c9361142a81611e44565b90506113bc565b5083156114805760405162461bcd60e51b815260206004820181905260248201527f537472696e67733a20686578206c656e67746820696e73756666696369656e7460448201526064016103ad565b9392505050565b6001600160a01b0381168114610da657600080fd5b600080604083850312156114af57600080fd5b82356114ba81611487565b946020939093013593505050565b6001600160e01b031981168114610da657600080fd5b6000602082840312156114f057600080fd5b8135611480816114c8565b60006020828403121561150d57600080fd5b5035919050565b60005b8381101561152f578181015183820152602001611517565b50506000910152565b60008151808452611550816020860160208601611514565b601f01601f19169290920160200192915050565b6020815281516020820152602082015160408201526040820151606082015260018060a01b0360608301511660808201526000608083015160a0808401526115af60c0840182611538565b949350505050565b6020815260006114806020830184611538565b634e487b7160e01b600052604160045260246000fd5b601f8201601f1916810167ffffffffffffffff81118282101715611606576116066115ca565b6040525050565b600067ffffffffffffffff821115611627576116276115ca565b5060051b60200190565b600082601f83011261164257600080fd5b8135602061164f8261160d565b60405161165c82826115e0565b83815260059390931b850182019282810191508684111561167c57600080fd5b8286015b848110156116975780358352918301918301611680565b509695505050505050565b600067ffffffffffffffff8311156116bc576116bc6115ca565b6040516116d3601f8501601f1916602001826115e0565b8091508381528484840111156116e857600080fd5b83836020830137600060208583010152509392505050565b600082601f83011261171157600080fd5b611480838335602085016116a2565b600080600080600060a0868803121561173857600080fd5b853561174381611487565b9450602086013561175381611487565b9350604086013567ffffffffffffffff8082111561177057600080fd5b61177c89838a01611631565b9450606088013591508082111561179257600080fd5b61179e89838a01611631565b935060808801359150808211156117b457600080fd5b506117c188828901611700565b9150509295509295909350565b600080604083850312156117e157600080fd5b8235915060208301356117f381611487565b809150509250929050565b600080600080600060a0868803121561181657600080fd5b853594506020860135935060408601359250606086013561183681611487565b9150608086013567ffffffffffffffff81111561185257600080fd5b8601601f8101881361186357600080fd5b6117c1888235602084016116a2565b6000806040838503121561188557600080fd5b823567ffffffffffffffff8082111561189d57600080fd5b818501915085601f8301126118b157600080fd5b813560206118be8261160d565b6040516118cb82826115e0565b83815260059390931b85018201928281019150898411156118eb57600080fd5b948201945b8386101561191257853561190381611487565b825294820194908201906118f0565b9650508601359250508082111561192857600080fd5b5061193585828601611631565b9150509250929050565b6020808252825182820181905260009190848201906040850190845b818110156119775783518352928401929184019160010161195b565b50909695505050505050565b85815284602082015283604082015260018060a01b038316606082015260a0608082015260006119b660a0830184611538565b979650505050505050565b600080604083850312156119d457600080fd5b50508035926020909101359150565b8015158114610da657600080fd5b60008060408385031215611a0457600080fd5b8235611a0f81611487565b915060208301356117f3816119e3565b60008060408385031215611a3257600080fd5b8235611a3d81611487565b915060208301356117f381611487565b600080600080600060a08688031215611a6557600080fd5b8535611a7081611487565b94506020860135611a8081611487565b93506040860135925060608601359150608086013567ffffffffffffffff811115611aaa57600080fd5b6117c188828901611700565b600181811c90821680611aca57607f821691505b602082108103611aea57634e487b7160e01b600052602260045260246000fd5b50919050565b600060208284031215611b0257600080fd5b8151611480816119e3565b601f82111561066f57600081815260208120601f850160051c81016020861015611b345750805b601f850160051c820191505b8181101561112e57828155600101611b40565b815167ffffffffffffffff811115611b6d57611b6d6115ca565b611b8181611b7b8454611ab6565b84611b0d565b602080601f831160018114611bb65760008415611b9e5750858301515b600019600386901b1c1916600185901b17855561112e565b600085815260208120601f198616915b82811015611be557888601518255948401946001909101908401611bc6565b5085821015611c035787850151600019600388901b60f8161c191681555b5050505050600190811b01905550565b8381526001600160a01b0383166020820152606060408201819052600090611c3d90830184611538565b95945050505050565b634e487b7160e01b600052603260045260246000fd5b634e487b7160e01b600052601160045260246000fd5b600060018201611c8457611c84611c5c565b5060010190565b600060208284031215611c9d57600080fd5b815161148081611487565b808201808211156103d9576103d9611c5c565b7f416363657373436f6e74726f6c3a206163636f756e7420000000000000000000815260008351611cf3816017850160208801611514565b7001034b99036b4b9b9b4b733903937b6329607d1b6017918401918201528351611d24816028840160208801611514565b01602801949350505050565b6001600160a01b03868116825285166020820152604081018490526060810183905260a0608082018190526000906119b690830184611538565b600060208284031215611d7c57600080fd5b8151611480816114c8565b600060033d1115611da05760046000803e5060005160e01c5b90565b600060443d1015611db15790565b6040516003193d81016004833e81513d67ffffffffffffffff8160248401118184111715611de157505050505090565b8285019150815181811115611df95750505050505090565b843d8701016020828501011115611e135750505050505090565b611e22602082860101876115e0565b509095945050505050565b80820281158282048414176103d9576103d9611c5c565b600081611e5357611e53611c5c565b50600019019056fea264697066735822122028f3fefef93daba1ad9c2fbdc193e51c2e893a24d225b9d696b48a873522260d64736f6c63430008110033",
  "linkReferences": {},
  "deployedLinkReferences": {}
}