{
  "_format": "hh-sol-artifact-1",
  "contractName": "KnowledgeLayerReview",
  "sourceName": "contracts/KnowledgeLayerReview.sol",
  "abi": [
    {
      "inputs": [
        {
          "internalType": "address",
          "name": "_knowledgeLayerIdAddress",
          "type": "address"
        },
        {
          "internalType": "address",
          "name": "_knowledgeLayerCourseAddress",
          "type": "address"
        }
      ],
      "stateMutability": "nonpayable",
      "type": "constructor"
    },
    {
      "anonymous": false,
      "inputs": [
        {
          "indexed": true,
          "internalType": "address",
          "name": "owner",
          "type": "address"
        },
        {
          "indexed": true,
          "internalType": "address",
          "name": "approved",
          "type": "address"
        },
        {
          "indexed": true,
          "internalType": "uint256",
          "name": "tokenId",
          "type": "uint256"
        }
      ],
      "name": "Approval",
      "type": "event"
    },
    {
      "anonymous": false,
      "inputs": [
        {
          "indexed": true,
          "internalType": "address",
          "name": "owner",
          "type": "address"
        },
        {
          "indexed": true,
          "internalType": "address",
          "name": "operator",
          "type": "address"
        },
        {
          "indexed": false,
          "internalType": "bool",
          "name": "approved",
          "type": "bool"
        }
      ],
      "name": "ApprovalForAll",
      "type": "event"
    },
    {
      "anonymous": false,
      "inputs": [
        {
          "indexed": true,
          "internalType": "uint256",
          "name": "id",
          "type": "uint256"
        },
        {
          "indexed": true,
          "internalType": "uint256",
          "name": "courseId",
          "type": "uint256"
        },
        {
          "indexed": true,
          "internalType": "uint256",
          "name": "toId",
          "type": "uint256"
        },
        {
          "indexed": false,
          "internalType": "uint256",
          "name": "fromId",
          "type": "uint256"
        },
        {
          "indexed": false,
          "internalType": "uint256",
          "name": "rating",
          "type": "uint256"
        },
        {
          "indexed": false,
          "internalType": "string",
          "name": "dataUri",
          "type": "string"
        }
      ],
      "name": "Mint",
      "type": "event"
    },
    {
      "anonymous": false,
      "inputs": [
        {
          "indexed": true,
          "internalType": "address",
          "name": "from",
          "type": "address"
        },
        {
          "indexed": true,
          "internalType": "address",
          "name": "to",
          "type": "address"
        },
        {
          "indexed": true,
          "internalType": "uint256",
          "name": "tokenId",
          "type": "uint256"
        }
      ],
      "name": "Transfer",
      "type": "event"
    },
    {
      "inputs": [
        {
          "internalType": "address",
          "name": "to",
          "type": "address"
        },
        {
          "internalType": "uint256",
          "name": "tokenId",
          "type": "uint256"
        }
      ],
      "name": "approve",
      "outputs": [],
      "stateMutability": "nonpayable",
      "type": "function"
    },
    {
      "inputs": [
        {
          "internalType": "address",
          "name": "owner",
          "type": "address"
        }
      ],
      "name": "balanceOf",
      "outputs": [
        {
          "internalType": "uint256",
          "name": "",
          "type": "uint256"
        }
      ],
      "stateMutability": "view",
      "type": "function"
    },
    {
      "inputs": [
        {
          "internalType": "uint256",
          "name": "tokenId",
          "type": "uint256"
        }
      ],
      "name": "getApproved",
      "outputs": [
        {
          "internalType": "address",
          "name": "",
          "type": "address"
        }
      ],
      "stateMutability": "view",
      "type": "function"
    },
    {
      "inputs": [
        {
          "internalType": "uint256",
          "name": "_reviewId",
          "type": "uint256"
        }
      ],
      "name": "getReview",
      "outputs": [
        {
          "components": [
            {
              "internalType": "uint256",
              "name": "id",
              "type": "uint256"
            },
            {
              "internalType": "uint256",
              "name": "ownerId",
              "type": "uint256"
            },
            {
              "internalType": "string",
              "name": "dataUri",
              "type": "string"
            },
            {
              "internalType": "uint256",
              "name": "courseId",
              "type": "uint256"
            },
            {
              "internalType": "uint256",
              "name": "rating",
              "type": "uint256"
            }
          ],
          "internalType": "struct KnowledgeLayerReview.Review",
          "name": "",
          "type": "tuple"
        }
      ],
      "stateMutability": "view",
      "type": "function"
    },
    {
      "inputs": [
        {
          "internalType": "uint256",
          "name": "",
          "type": "uint256"
        },
        {
          "internalType": "uint256",
          "name": "",
          "type": "uint256"
        }
      ],
      "name": "hasBeenReviewed",
      "outputs": [
        {
          "internalType": "bool",
          "name": "",
          "type": "bool"
        }
      ],
      "stateMutability": "view",
      "type": "function"
    },
    {
      "inputs": [
        {
          "internalType": "address",
          "name": "owner",
          "type": "address"
        },
        {
          "internalType": "address",
          "name": "operator",
          "type": "address"
        }
      ],
      "name": "isApprovedForAll",
      "outputs": [
        {
          "internalType": "bool",
          "name": "",
          "type": "bool"
        }
      ],
      "stateMutability": "view",
      "type": "function"
    },
    {
      "inputs": [
        {
          "internalType": "uint256",
          "name": "_profileId",
          "type": "uint256"
        },
        {
          "internalType": "uint256",
          "name": "_courseId",
          "type": "uint256"
        },
        {
          "internalType": "string",
          "name": "_dataUri",
          "type": "string"
        },
        {
          "internalType": "uint256",
          "name": "_rating",
          "type": "uint256"
        }
      ],
      "name": "mint",
      "outputs": [
        {
          "internalType": "uint256",
          "name": "",
          "type": "uint256"
        }
      ],
      "stateMutability": "nonpayable",
      "type": "function"
    },
    {
      "inputs": [],
      "name": "name",
      "outputs": [
        {
          "internalType": "string",
          "name": "",
          "type": "string"
        }
      ],
      "stateMutability": "view",
      "type": "function"
    },
    {
      "inputs": [
        {
          "internalType": "uint256",
          "name": "tokenId",
          "type": "uint256"
        }
      ],
      "name": "ownerOf",
      "outputs": [
        {
          "internalType": "address",
          "name": "",
          "type": "address"
        }
      ],
      "stateMutability": "view",
      "type": "function"
    },
    {
      "inputs": [
        {
          "internalType": "uint256",
          "name": "",
          "type": "uint256"
        }
      ],
      "name": "reviews",
      "outputs": [
        {
          "internalType": "uint256",
          "name": "id",
          "type": "uint256"
        },
        {
          "internalType": "uint256",
          "name": "ownerId",
          "type": "uint256"
        },
        {
          "internalType": "string",
          "name": "dataUri",
          "type": "string"
        },
        {
          "internalType": "uint256",
          "name": "courseId",
          "type": "uint256"
        },
        {
          "internalType": "uint256",
          "name": "rating",
          "type": "uint256"
        }
      ],
      "stateMutability": "view",
      "type": "function"
    },
    {
      "inputs": [
        {
          "internalType": "address",
          "name": "from",
          "type": "address"
        },
        {
          "internalType": "address",
          "name": "to",
          "type": "address"
        },
        {
          "internalType": "uint256",
          "name": "tokenId",
          "type": "uint256"
        }
      ],
      "name": "safeTransferFrom",
      "outputs": [],
      "stateMutability": "nonpayable",
      "type": "function"
    },
    {
      "inputs": [
        {
          "internalType": "address",
          "name": "from",
          "type": "address"
        },
        {
          "internalType": "address",
          "name": "to",
          "type": "address"
        },
        {
          "internalType": "uint256",
          "name": "tokenId",
          "type": "uint256"
        },
        {
          "internalType": "bytes",
          "name": "data",
          "type": "bytes"
        }
      ],
      "name": "safeTransferFrom",
      "outputs": [],
      "stateMutability": "nonpayable",
      "type": "function"
    },
    {
      "inputs": [
        {
          "internalType": "address",
          "name": "operator",
          "type": "address"
        },
        {
          "internalType": "bool",
          "name": "approved",
          "type": "bool"
        }
      ],
      "name": "setApprovalForAll",
      "outputs": [],
      "stateMutability": "nonpayable",
      "type": "function"
    },
    {
      "inputs": [
        {
          "internalType": "bytes4",
          "name": "interfaceId",
          "type": "bytes4"
        }
      ],
      "name": "supportsInterface",
      "outputs": [
        {
          "internalType": "bool",
          "name": "",
          "type": "bool"
        }
      ],
      "stateMutability": "view",
      "type": "function"
    },
    {
      "inputs": [],
      "name": "symbol",
      "outputs": [
        {
          "internalType": "string",
          "name": "",
          "type": "string"
        }
      ],
      "stateMutability": "view",
      "type": "function"
    },
    {
      "inputs": [
        {
          "internalType": "uint256",
          "name": "",
          "type": "uint256"
        }
      ],
      "name": "tokenURI",
      "outputs": [
        {
          "internalType": "string",
          "name": "",
          "type": "string"
        }
      ],
      "stateMutability": "view",
      "type": "function"
    },
    {
      "inputs": [],
      "name": "totalSupply",
      "outputs": [
        {
          "internalType": "uint256",
          "name": "",
          "type": "uint256"
        }
      ],
      "stateMutability": "view",
      "type": "function"
    },
    {
      "inputs": [
        {
          "internalType": "address",
          "name": "from",
          "type": "address"
        },
        {
          "internalType": "address",
          "name": "to",
          "type": "address"
        },
        {
          "internalType": "uint256",
          "name": "tokenId",
          "type": "uint256"
        }
      ],
      "name": "transferFrom",
      "outputs": [],
      "stateMutability": "nonpayable",
      "type": "function"
    }
  ],
  "bytecode": "0x60806040523480156200001157600080fd5b506040516200244038038062002440833981016040819052620000349162000121565b6040518060400160405280601481526020017f4b6e6f776c656467654c617965725265766965770000000000000000000000008152506040518060400160405280600381526020016225a62960e91b8152508160009081620000979190620001fe565b506001620000a68282620001fe565b5050600980546001600160a01b03199081166001600160a01b0386811691909117909255600a805490911691841691909117905550620000f36006620000fb602090811b62000da717901c565b5050620002ca565b80546001019055565b80516001600160a01b03811681146200011c57600080fd5b919050565b600080604083850312156200013557600080fd5b620001408362000104565b9150620001506020840162000104565b90509250929050565b634e487b7160e01b600052604160045260246000fd5b600181811c908216806200018457607f821691505b602082108103620001a557634e487b7160e01b600052602260045260246000fd5b50919050565b601f821115620001f957600081815260208120601f850160051c81016020861015620001d45750805b601f850160051c820191505b81811015620001f557828155600101620001e0565b5050505b505050565b81516001600160401b038111156200021a576200021a62000159565b62000232816200022b84546200016f565b84620001ab565b602080601f8311600181146200026a5760008415620002515750858301515b600019600386901b1c1916600185901b178555620001f5565b600085815260208120601f198616915b828110156200029b578886015182559484019460019091019084016200027a565b5085821015620002ba5787850151600019600388901b60f8161c191681555b5050505050600190811b01905550565b61216680620002da6000396000f3fe608060405234801561001057600080fd5b50600436106101165760003560e01c806370a08231116100a2578063b88d4fde11610071578063b88d4fde14610263578063c87b56dd14610276578063cf2ed32e14610289578063e83ddcea1461029c578063e985e9c5146102c057600080fd5b806370a082311461021557806395d89b4114610228578063990581b614610230578063a22cb4651461025057600080fd5b8063095ea7b3116100e9578063095ea7b3146101b157806318160ddd146101c657806323b872dd146101dc57806342842e0e146101ef5780636352211e1461020257600080fd5b806301ffc9a71461011b57806306fdde031461014357806307f3f7f514610158578063081812fc14610186575b600080fd5b61012e610129366004611500565b6102d3565b60405190151581526020015b60405180910390f35b61014b610325565b60405161013a9190611574565b61012e610166366004611587565b600860209081526000928352604080842090915290825290205460ff1681565b6101996101943660046115a9565b6103b7565b6040516001600160a01b03909116815260200161013a565b6101c46101bf3660046115d7565b6103de565b005b6101ce6104f8565b60405190815260200161013a565b6101c46101ea366004611603565b610514565b6101c46101fd366004611603565b610545565b6101996102103660046115a9565b610560565b6101ce610223366004611644565b6105c0565b61014b610646565b61024361023e3660046115a9565b610655565b60405161013a9190611661565b6101c461025e3660046116bf565b6107ab565b6101c4610271366004611790565b6107ba565b61014b6102843660046115a9565b6107f2565b6101ce61029736600461183f565b6107fc565b6102af6102aa3660046115a9565b610cc2565b60405161013a9594939291906118c7565b61012e6102ce3660046118fa565b610d79565b60006001600160e01b031982166380ac58cd60e01b148061030457506001600160e01b03198216635b5e139f60e01b145b8061031f57506301ffc9a760e01b6001600160e01b03198316145b92915050565b60606000805461033490611928565b80601f016020809104026020016040519081016040528092919081815260200182805461036090611928565b80156103ad5780601f10610382576101008083540402835291602001916103ad565b820191906000526020600020905b81548152906001019060200180831161039057829003601f168201915b5050505050905090565b60006103c282610db0565b506000908152600460205260409020546001600160a01b031690565b60006103e982610560565b9050806001600160a01b0316836001600160a01b03160361045b5760405162461bcd60e51b815260206004820152602160248201527f4552433732313a20617070726f76616c20746f2063757272656e74206f776e656044820152603960f91b60648201526084015b60405180910390fd5b336001600160a01b038216148061047757506104778133610d79565b6104e95760405162461bcd60e51b815260206004820152603d60248201527f4552433732313a20617070726f76652063616c6c6572206973206e6f7420746f60448201527f6b656e206f776e6572206f7220617070726f76656420666f7220616c6c0000006064820152608401610452565b6104f38383610e12565b505050565b6000600161050560065490565b61050f9190611978565b905090565b61051e3382610e80565b61053a5760405162461bcd60e51b81526004016104529061198b565b6104f3838383610edf565b6104f3838383604051806020016040528060008152506107ba565b6000818152600260205260408120546001600160a01b03168061031f5760405162461bcd60e51b8152602060048201526018602482015277115490cdcc8c4e881a5b9d985b1a59081d1bdad95b88125160421b6044820152606401610452565b60006001600160a01b03821661062a5760405162461bcd60e51b815260206004820152602960248201527f4552433732313a2061646472657373207a65726f206973206e6f7420612076616044820152683634b21037bbb732b960b91b6064820152608401610452565b506001600160a01b031660009081526003602052604090205490565b60606001805461033490611928565b6106876040518060a0016040528060008152602001600081526020016060815260200160008152602001600081525090565b60065482106106cc5760405162461bcd60e51b8152602060048201526011602482015270125b9d985b1a59081c995d9a595dc81251607a1b6044820152606401610452565b600760008381526020019081526020016000206040518060a0016040529081600082015481526020016001820154815260200160028201805461070e90611928565b80601f016020809104026020016040519081016040528092919081815260200182805461073a90611928565b80156107875780601f1061075c57610100808354040283529160200191610787565b820191906000526020600020905b81548152906001019060200180831161076a57829003601f168201915b50505050508152602001600382015481526020016004820154815250509050919050565b6107b6338383610f27565b5050565b6107c43383610e80565b6107e05760405162461bcd60e51b81526004016104529061198b565b6107ec84848484610ff5565b50505050565b606061031f611028565b60095460009086906001600160a01b0316632fa117e582336040516001600160e01b031960e085901b16815260048101929092526001600160a01b03166024820152604401602060405180830381865afa15801561085e573d6000803e3d6000fd5b505050506040513d601f19601f8201168201806040525081019061088291906119d8565b6108c65760405162461bcd60e51b81526020600482015260156024820152744e6f74206f776e6572206f722064656c656761746560581b6044820152606401610452565b600a54604051630b91e28d60e01b8152600481018890526000916001600160a01b031690630b91e28d90602401600060405180830381865afa158015610910573d6000803e3d6000fd5b505050506040513d6000823e601f3d908101601f1916820160405261093891908101906119f5565b6009546040516331a9108f60e11b8152600481018b90529192506000916001600160a01b0390911690636352211e90602401602060405180830381865afa158015610987573d6000803e3d6000fd5b505050506040513d601f19601f820116820180604052508101906109ab9190611ace565b905060058511156109ef5760405162461bcd60e51b815260206004820152600e60248201526d496e76616c696420726174696e6760901b6044820152606401610452565b60008881526008602090815260408083208c845290915290205460ff1615610a515760405162461bcd60e51b8152602060048201526015602482015274416c7265616479206d696e7465642072657669657760581b6044820152606401610452565b600a54604051627eeac760e11b81526001600160a01b038381166004830152602482018b9052600092169062fdd58e90604401602060405180830381865afa158015610aa1573d6000803e3d6000fd5b505050506040513d601f19601f82011682018060405250810190610ac59190611aeb565b11610b125760405162461bcd60e51b815260206004820152601960248201527f4e6f742061206275796572206f662074686520636f75727365000000000000006044820152606401610452565b60008881526008602090815260408083208c8452909152808220805460ff19166001179055600954845191516331a9108f60e11b815260048101929092526001600160a01b031690636352211e90602401602060405180830381865afa158015610b80573d6000803e3d6000fd5b505050506040513d601f19601f82011682018060405250810190610ba49190611ace565b90506000610bb160065490565b9050610bbd82826110be565b6040518060a00160405280828152602001856000015181526020018a8a8080601f016020809104026020016040519081016040528093929190818152602001838380828437600092018290525093855250505060208083018e905260409283018b9052848252600781529082902083518155908301516001820155908201516002820190610c4b9082611b52565b5060608201516003820155608090910151600490910155610c70600680546001019055565b83600001518a827ffba3be2303a77f0445342b552521585a8b617f7dfc36da45a29011c34119596c8e8b8e8e604051610cac9493929190611c12565b60405180910390a49a9950505050505050505050565b60076020526000908152604090208054600182015460028301805492939192610cea90611928565b80601f0160208091040260200160405190810160405280929190818152602001828054610d1690611928565b8015610d635780601f10610d3857610100808354040283529160200191610d63565b820191906000526020600020905b815481529060010190602001808311610d4657829003601f168201915b5050505050908060030154908060040154905085565b6001600160a01b03918216600090815260056020908152604080832093909416825291909152205460ff1690565b80546001019055565b6000818152600260205260409020546001600160a01b0316610e0f5760405162461bcd60e51b8152602060048201526018602482015277115490cdcc8c4e881a5b9d985b1a59081d1bdad95b88125160421b6044820152606401610452565b50565b600081815260046020526040902080546001600160a01b0319166001600160a01b0384169081179091558190610e4782610560565b6001600160a01b03167f8c5be1e5ebec7d5bd14f71427d1e84f3dd0314c0f7b2291e5b200ac8c7c3b92560405160405180910390a45050565b600080610e8c83610560565b9050806001600160a01b0316846001600160a01b03161480610eb35750610eb38185610d79565b80610ed75750836001600160a01b0316610ecc846103b7565b6001600160a01b0316145b949350505050565b60405162461bcd60e51b815260206004820152601d60248201527f546f6b656e207472616e73666572206973206e6f7420616c6c6f7765640000006044820152606401610452565b816001600160a01b0316836001600160a01b031603610f885760405162461bcd60e51b815260206004820152601960248201527f4552433732313a20617070726f766520746f2063616c6c6572000000000000006044820152606401610452565b6001600160a01b03838116600081815260056020908152604080832094871680845294825291829020805460ff191686151590811790915591519182527f17307eab39ab6107e8899845ad3d59bd9653f200f220920489ca2b5937696c31910160405180910390a3505050565b611000848484610edf565b61100c848484846110d8565b6107ec5760405162461bcd60e51b815260040161045290611c4f565b60606000611050604051806102e001604052806102b98152602001611e386102b991396111d9565b6040516020016110609190611ca1565b6040516020818303038152906040529050611099816040516020016110859190611ce6565b6040516020818303038152906040526111d9565b6040516020016110a99190611d4c565b60405160208183030381529060405291505090565b6107b682826040518060200160405280600081525061132c565b60006001600160a01b0384163b156111ce57604051630a85bd0160e11b81526001600160a01b0385169063150b7a029061111c903390899088908890600401611d91565b6020604051808303816000875af1925050508015611157575060408051601f3d908101601f1916820190925261115491810190611dce565b60015b6111b4573d808015611185576040519150601f19603f3d011682016040523d82523d6000602084013e61118a565b606091505b5080516000036111ac5760405162461bcd60e51b815260040161045290611c4f565b805181602001fd5b6001600160e01b031916630a85bd0160e11b149050610ed7565b506001949350505050565b606081516000036111f857505060408051602081019091526000815290565b60006040518060600160405280604081526020016120f160409139905060006003845160026112279190611deb565b6112319190611dfe565b61123c906004611e20565b67ffffffffffffffff811115611254576112546116f8565b6040519080825280601f01601f19166020018201604052801561127e576020820181803683370190505b509050600182016020820185865187015b808210156112ea576003820191508151603f8160121c168501518453600184019350603f81600c1c168501518453600184019350603f8160061c168501518453600184019350603f811685015184535060018301925061128f565b5050600386510660018114611306576002811461131957611321565b603d6001830353603d6002830353611321565b603d60018303535b509195945050505050565b611336838361135f565b61134360008484846110d8565b6104f35760405162461bcd60e51b815260040161045290611c4f565b6001600160a01b0382166113b55760405162461bcd60e51b815260206004820181905260248201527f4552433732313a206d696e7420746f20746865207a65726f20616464726573736044820152606401610452565b6000818152600260205260409020546001600160a01b03161561141a5760405162461bcd60e51b815260206004820152601c60248201527f4552433732313a20746f6b656e20616c7265616479206d696e746564000000006044820152606401610452565b6000818152600260205260409020546001600160a01b03161561147f5760405162461bcd60e51b815260206004820152601c60248201527f4552433732313a20746f6b656e20616c7265616479206d696e746564000000006044820152606401610452565b6001600160a01b038216600081815260036020908152604080832080546001019055848352600290915280822080546001600160a01b0319168417905551839291907fddf252ad1be2c89b69c2b068fc378daa952ba7f163c4a11628f55a4df523b3ef908290a45050565b6001600160e01b031981168114610e0f57600080fd5b60006020828403121561151257600080fd5b813561151d816114ea565b9392505050565b60005b8381101561153f578181015183820152602001611527565b50506000910152565b60008151808452611560816020860160208601611524565b601f01601f19169290920160200192915050565b60208152600061151d6020830184611548565b6000806040838503121561159a57600080fd5b50508035926020909101359150565b6000602082840312156115bb57600080fd5b5035919050565b6001600160a01b0381168114610e0f57600080fd5b600080604083850312156115ea57600080fd5b82356115f5816115c2565b946020939093013593505050565b60008060006060848603121561161857600080fd5b8335611623816115c2565b92506020840135611633816115c2565b929592945050506040919091013590565b60006020828403121561165657600080fd5b813561151d816115c2565b6020815281516020820152602082015160408201526000604083015160a0606084015261169160c0840182611548565b905060608401516080840152608084015160a08401528091505092915050565b8015158114610e0f57600080fd5b600080604083850312156116d257600080fd5b82356116dd816115c2565b915060208301356116ed816116b1565b809150509250929050565b634e487b7160e01b600052604160045260246000fd5b60405160a0810167ffffffffffffffff81118282101715611731576117316116f8565b60405290565b604051601f8201601f1916810167ffffffffffffffff81118282101715611760576117606116f8565b604052919050565b600067ffffffffffffffff821115611782576117826116f8565b50601f01601f191660200190565b600080600080608085870312156117a657600080fd5b84356117b1816115c2565b935060208501356117c1816115c2565b925060408501359150606085013567ffffffffffffffff8111156117e457600080fd5b8501601f810187136117f557600080fd5b803561180861180382611768565b611737565b81815288602083850101111561181d57600080fd5b8160208401602083013760006020838301015280935050505092959194509250565b60008060008060006080868803121561185757600080fd5b8535945060208601359350604086013567ffffffffffffffff8082111561187d57600080fd5b818801915088601f83011261189157600080fd5b8135818111156118a057600080fd5b8960208285010111156118b257600080fd5b96999598505060200195606001359392505050565b85815284602082015260a0604082015260006118e660a0830186611548565b606083019490945250608001529392505050565b6000806040838503121561190d57600080fd5b8235611918816115c2565b915060208301356116ed816115c2565b600181811c9082168061193c57607f821691505b60208210810361195c57634e487b7160e01b600052602260045260246000fd5b50919050565b634e487b7160e01b600052601160045260246000fd5b8181038181111561031f5761031f611962565b6020808252602d908201527f4552433732313a2063616c6c6572206973206e6f7420746f6b656e206f776e6560408201526c1c881bdc88185c1c1c9bdd9959609a1b606082015260800190565b6000602082840312156119ea57600080fd5b815161151d816116b1565b60006020808385031215611a0857600080fd5b825167ffffffffffffffff80821115611a2057600080fd5b9084019060a08287031215611a3457600080fd5b611a3c61170e565b825181528383015184820152604083015160408201526060830151611a60816115c2565b6060820152608083015182811115611a7757600080fd5b80840193505086601f840112611a8c57600080fd5b82519150611a9c61180383611768565b8281528785848601011115611ab057600080fd5b611abf83868301878701611524565b60808201529695505050505050565b600060208284031215611ae057600080fd5b815161151d816115c2565b600060208284031215611afd57600080fd5b5051919050565b601f8211156104f357600081815260208120601f850160051c81016020861015611b2b5750805b601f850160051c820191505b81811015611b4a57828155600101611b37565b505050505050565b815167ffffffffffffffff811115611b6c57611b6c6116f8565b611b8081611b7a8454611928565b84611b04565b602080601f831160018114611bb55760008415611b9d5750858301515b600019600386901b1c1916600185901b178555611b4a565b600085815260208120601f198616915b82811015611be457888601518255948401946001909101908401611bc5565b5085821015611c025787850151600019600388901b60f8161c191681555b5050505050600190811b01905550565b84815283602082015260606040820152816060820152818360808301376000818301608090810191909152601f909201601f191601019392505050565b60208082526032908201527f4552433732313a207472616e7366657220746f206e6f6e20455243373231526560408201527131b2b4bb32b91034b6b83632b6b2b73a32b960711b606082015260800190565b7f646174613a696d6167652f7376672b786d6c3b6261736536342c000000000000815260008251611cd981601a850160208701611524565b91909101601a0192915050565b7f7b226e616d65223a224b6e6f776c656467654c6179657220526576696577220081526a16101134b6b0b3b2911d1160a91b601f8201528151600090611d3381602a850160208701611524565b61227d60f01b602a939091019283015250602c01919050565b7f646174613a6170706c69636174696f6e2f6a736f6e3b6261736536342c000000815260008251611d8481601d850160208701611524565b91909101601d0192915050565b6001600160a01b0385811682528416602082015260408101839052608060608201819052600090611dc490830184611548565b9695505050505050565b600060208284031215611de057600080fd5b815161151d816114ea565b8082018082111561031f5761031f611962565b600082611e1b57634e487b7160e01b600052601260045260246000fd5b500490565b808202811582820484141761031f5761031f61196256fe3c73766720786d6c6e733d22687474703a2f2f7777772e77332e6f72672f323030302f737667222077696474683d2237323022206865696768743d22373230223e3c726563742077696474683d223130302522206865696768743d2231303025222f3e3c73766720786d6c6e733d22687474703a2f2f7777772e77332e6f72672f323030302f737667222077696474683d2231353022206865696768743d22313530222076657273696f6e3d22312e32222076696577426f783d222d323030202d353020313030302031303030223e3c706174682066696c6c3d22234646464646462220643d224d3236342e35203139302e3563302d31332e382031312e322d32352032352d3235483536386331332e3820302032352031312e322032352032357634393063302031332e382d31312e322032352d3235203235483238392e35632d31332e3820302d32352d31312e322d32352d32357a222f3e3c706174682066696c6c3d22234646464646462220643d224d3236352036323463302d31332e382031312e322d32352032352d3235683534336331332e3820302032352031312e322032352032357635362e3563302031332e382d31312e322032352d323520323548323930632d31332e3820302d32352d31312e322d32352d32357a222f3e3c706174682066696c6c3d22234646464646462220643d224d30203139302e3563302d31332e382031312e322d32352032352d3235683534336331332e3820302032352031312e322032352032355632343763302031332e382d31312e322032352d3235203235483235632d31332e3820302d32352d31312e322d32352d32357a222f3e3c2f7376673e3c7465787420783d2233302220793d2236373022207374796c653d22666f6e743a363070782073616e732d73657269663b66696c6c3a23666666223e7265766965773c2f746578743e3c2f7376673e4142434445464748494a4b4c4d4e4f505152535455565758595a6162636465666768696a6b6c6d6e6f707172737475767778797a303132333435363738392b2fa2646970667358221220c8b55cb55743491110a2f9a074080d2b0767772359df19918f2a006719b017de64736f6c63430008110033",
  "linkReferences": {},
  "deployedLinkReferences": {}
}